:020000040000FA
:1000000030180020910100009501000097010000C8
:1000100000000000000000000000000000000000E0
:100020000000000000000000000000009901000036
:1000300000000000000000009B0100009D01000086
:100040009F010000B91F0000000000000000000038
:1000500000000000000000009F0100000000000000
:1000600000000000000000009F01000000000000F0
:100070009F0100009F0100009F0100009905000002
:10008000F106000000000000000000000000000079
:100090000000000000000000000000000000000060
:1000A0009F0100009F0100009F0100000000000070
:1000B0009F010000B11500009F01000085150000A0
:1000C00000F002F800F030F80CA030C8083824180E
:1000D0002D18A246671EAB4654465D46AC4201D180
:1000E00000F022F87E460F3E0FCCB6460126334282
:1000F00000D0FB1AA246AB46334318474C720000AF
:100100006C7200000023002400250026103A01D361
:1001100078C1FBD8520700D330C100D50B607047BF
:100120001FB51FBD10B510BD00F072F91146FFF7E5
:10013000F7FF03F0EDFD00F08AF903B4FFF7F2FFDB
:1001400003BC00F091F9000001480160014800473C
:10015000240006400103FF1F70B505460C461646F5
:1001600002E00FCC0FC5103E102EFAD2082E02D39B
:1001700003CC03C5083E042E07D301CC01C5361FAE
:1001800003E021782970641C6D1C761EF9D270BDC5
:1001900006480047FEE7FEE7FEE7FEE7FEE7FEE76C
:1001A00003480449024A044B70470000C1000000A4
:1001B000301600203018002030160020F8B5042A30
:1001C0002CD3830712D00B78491C0370401C521E9D
:1001D00083070BD00B78491C0370401C521E830709
:1001E00004D00B78491C0370401C521E8B079B0FD8
:1001F00005D0C91ADF002023DE1B08C90AE0FFF77B
:10020000ABFFF8BD1D4608C9FD401C46B4402C4359
:1002100010C0121F042AF5D2F308C91A521EF0D4D6
:100220000B78491C0370401C521EEAD40B78491C01
:100230000370401C012AE4D409780170F8BD01E084
:1002400004C0091F0429FBD28B0701D50280801C42
:10025000C90700D00270704700290BD0C30702D035
:100260000270401C491E022904D3830702D5028074
:10027000801C891EE3E70022EEE70022DFE7037817
:10028000C2781946437812061B0219438378C07856
:100290001B04194311430902090A00060843704769
:1002A000020A08704A70020C8A70020ECA70704707
:1002B000002203098B422CD3030A8B4211D3002363
:1002C0009C464EE003460B433CD4002243088B423D
:1002D00031D303098B421CD3030A8B4201D39446CA
:1002E0003FE0C3098B4201D3CB01C01A52418309BD
:1002F0008B4201D38B01C01A524143098B4201D377
:100300004B01C01A524103098B4201D30B01C01AA1
:100310005241C3088B4201D3CB00C01A524183081B
:100320008B4201D38B00C01A524143088B4201D348
:100330004B00C01A5241411A00D2014652411046A8
:1003400070475DE0CA0F00D04942031000D340421D
:10035000534000229C4603098B422DD3030A8B4253
:1003600012D3FC22890112BA030A8B420CD38901F1
:1003700092118B4208D3890192118B4204D38901D7
:100380003AD0921100E08909C3098B4201D3CB0115
:10039000C01A524183098B4201D38B01C01A5241CA
:1003A00043098B4201D34B01C01A524103098B42CE
:1003B00001D30B01C01A5241C3088B4201D3CB00B9
:1003C000C01A524183088B4201D38B00C01A52419C
:1003D000D9D243088B4201D34B00C01A5241411A73
:1003E00000D20146634652415B10104601D34042A1
:1003F000002B00D54942704763465B1000D3404252
:1004000001B50020C046C04602BD70477047704726
:10041000754600F025F8AE46050069465346C0080B
:10042000C000854618B020B5FFF7BAFE60BC0027B3
:100430004908B6460026C0C5C0C5C0C5C0C5C0C5B0
:10044000C0C5C0C5C0C5403D49008D46704710B508
:100450000446C046C0462046FFF76FFE10BD0000B0
:1004600000487047CC15002001491820ABBEFEE7BC
:1004700026000200704770B58C180578401C6B0789
:100480005B0F01D10378401C2A1106D10278401C71
:1004900003E00678401C0E70491C5B1EF9D12B0747
:1004A00005D40023521E0DD40B70491CFAE70378C3
:1004B000401CCB1A921C03E01D780D70491C5B1C7C
:1004C000521EF9D5A142D8D3002070BDF8B52A4EEE
:1004D000307801281CD1294800250078284C0128B3
:1004E0001ED1284A1068284FC3072046C08B2749D1
:1004F00007D11368DB0BDB0703D112685208D20760
:1005000007D0A279012A0BD0B84201D20D70E57054
:10051000F8BDE2780123002A1BD0B8421CD30D702D
:100520001B4800210570552020714A2001F04EF92A
:100530000A201021207261720222E271A172E5721A
:100540000B4600F063F9E583E570A079002805D03B
:100550000FE0E583E3700D700B70F8BD03210A20F6
:1005600004F028FE0B4905200870207C0821084370
:1005700020743570A571F8BDCF000020C90000209F
:100580005400002000800440881300000401002073
:10059000CE000020A80D002010B501208007406982
:1005A000C00762D03148416AC9075ED0012181622B
:1005B0002F4A002006214143535A5B1C535289188D
:1005C0004B885B1C4B808B885B1C8B80401CC0B2B3
:1005D0000528EFD327490888401C08802648017861
:1005E000491C017025480178491C0170244908887C
:1005F000002801D0401E088022490888002801D028
:10060000401E088020480168C9070BD10168C90B4A
:10061000C90707D100684008C00703D11B480188FB
:10062000491C01801A480078012803D11948018823
:10063000491C01801849194A0868904201D2401C9F
:10064000086017488068C0070FD016480078022855
:100650000BD315490888401C088003F0A1F8134902
:100660000888002801D0401E088010BD800000408E
:10067000240F00200601002008010020460200206F
:10068000CC000020B6000020008004407200002052
:100690006C0000208C00002090000020FFFF09006B
:1006A000D00E0020CA000020020100204C020020D1
:1006B00010B50E4801684022114301602F21100639
:1006C00081607D21C9000162032141610221016035
:1006D00001688907FCD401680122114301600F20E1
:1006E00002F01CF80F2002F041F810BD00E00540B8
:1006F00000200249C043886270470000802000400B
:100700001D4908688022104308601C4A2F20906011
:100710001A4BFF20803318600020106250629062F4
:10072000D06210635063154940318861C861086226
:10073000486288628860C860C862086348638863EA
:10074000C8630F491962D96158619861D069511421
:100750000843D061106802210843106010688007C8
:10076000FCD41068012108431060080405490860A2
:10077000054908607047000000E005400020004087
:100780003FCCFF0080E200E000E100E030B51D4B0F
:100790001D49986A0978FF2442189A62188C598C6E
:1007A000C0B20134C9B2802800D9201AC0B2802951
:1007B00000D9611A134DC9B230352C88A408641CC5
:1007C000444368888008401C4843D96A2018401870
:1007D000D862D97D491CC9B2D975102911D111032C
:1007E000090C99840003000CFF223F3200219883FA
:1007F000904202D90120987000E09970D9759962F1
:10080000D96230BD540000204002002010B50C46D3
:1008100001462C2000F0DAFF21462B2000F0D6FF05
:1008200010BD000070B5194801230068184A04255E
:100830001849272820D0032463281AD0652814D00B
:1008400066280FD00878002819D00021082004F06D
:10085000C1FC114964200870487088700F4900205D
:10086000087070BD0B70082001E0022008709071C4
:10087000EBE70C709571E8E70D709371E5E70848B8
:100880000470084801681943016070BDB800002079
:10089000600F0020BC000020EC130020BD000020F1
:1008A000DC000020D800002070B5044616460D4636
:1008B00001200AE005F076F832461021204600F0CB
:1008C00007F8C0B24034002801D1AC42F2D370BD69
:1008D0000B494A6804239A434A6002228A600861ED
:1008E000886840221043886000BF4868C007FBD179
:1008F0004868400701D5012070470020704700007C
:1009000000200640F0B50746002416460D4601209B
:100910000BE0A0018219C019102100F009F8641C35
:10092000C0B26D1EE4B2002801D1002DF1D1F0BD9E
:1009300030B5114B5C680425AC435C6001249C60BD
:10094000186100BF5868C007FBD103E001CAD86036
:1009500000BF491E0029F9D19868402108439860DA
:1009600000BF5868C007FBD15868400701D5012077
:1009700030BD002030BD00000020064010B5104CF6
:100980002078A12808D10F4841690122D2021143E1
:1009900041612079002803D0002001F013FA10BD36
:1009A00008488038017C002002F09EFB206901216C
:1009B000C903084320610121002001F07FF910BD27
:1009C000D00E0020EC03002010B5104C2078A12898
:1009D00017D10F484069C1040E4801D40121417468
:1009E000217901290DD8417C002002F07DFB20698E
:1009F0000121C903084320610121002001F05EF9B3
:100A000010BD002001F0DEF910BD0000D00E002066
:100A1000EC0300206C03002010B515480178A129D3
:100A20001FD1816801291CD10179C078002902D029
:100A3000012910D015E0012804D0022805D0032890
:100A400006D00EE000F03AF810BD00F05FF810BDDF
:100A500000F012F810BD0749497C012901D1012895
:100A600003D0002001F0AEF910BD00F03BF810BD3E
:100A7000D00E00206C03002010B50C48C17803296B
:100A800005D10179002902D18078002804D0002105
:100A9000084601F013F910BD0549402008600649D9
:100AA0000448086001F08EFD10BD0000D00E00204B
:100AB000A0000020E40E00209C00002010B5074993
:100AC00000200860064801690122D2031143016138
:100AD0000821002001F0F2F810BD0000A000002065
:100AE000D00E002010B507490020086006480169B3
:100AF0000122D203114301610521002001F0DEF83B
:100B000010BD0000A0000020D00E002010B5084845
:100B10000178002002F0E8FA064801690122D203B8
:100B2000114301610121002001F0C8F810BD00004F
:100B30006C030020D00E002010B50F490878212842
:100B400016D1086901221204104308610B4842695A
:100B50000123DB021A4342610879012808D8C878CA
:100B60000649803908740021084601F0A7F810BD35
:100B7000002001F027F910BDD00E0020EC0300206A
:100B800010B5134A107821281DD11248416901235C
:100B90001B03194341611179012914D89178002967
:100BA00004D143690324A402A34343610948803864
:100BB00041741069012109040843106100210846AD
:100BC00001F07CF810BD002001F0FCF810BD000021
:100BD000D00E0020EC03002010B50D48017821292B
:100BE0000FD10179C078002902D0012907D008E08F
:100BF00002280AD0032804D100F00CF810BD022806
:100C000003D0002001F0DEF810BD00F00FF810BD99
:100C1000D00E002010B50449012088740021084638
:100C200001F04CF810BD00006C03002010B508481E
:100C30000169012212041143016106484169D21180
:100C4000114341610021084601F038F810BD000051
:100C5000D00E0020EC03002070B504780A4D002C63
:100C600002D02E78A41B04700878984203D02A780A
:100C70008018087070BD1078401CC0B21070032836
:100C8000F8D10020107070BDD5000020F8B5164ACC
:100C90000446105D8C280AD21449154B095C19557D
:100CA000144B401C1955144B19551055F8BD002014
:100CB000124F10553878FF2801D0A042F6D1104DC0
:100CC000104E12491048C8603321002004F036FA53
:100CD000C0B2287031788842F3D030703878FF285D
:100CE000E4D13C70F8BD0000DD000020EC610000A4
:100CF000E0000020E3000020E6000020D3000020F8
:100D0000BF000020C0000020AA55FA5A0000014090
:100D1000F0B50024224A4100535A224D285C083085
:100D200083423CD3002656521F4D204F2878C007DF
:100D300001D000220DE03878012806D0022807D023
:100D4000032809D004280FD109E00022114608E049
:100D5000FF220021002005E00022FF21FAE7FF2208
:100D60001146FF2000F076F92878401CC0B22870A8
:100D7000182814D33E700E4A2E70107AE4230D49C1
:100D800058438018E2008218641C127BE4B20A7097
:100D9000032CF7D308480122016811430160F0BD1C
:100DA000240F0020EC130020BD000020BC00002018
:100DB000600F0020DC000020D8000020074910B59B
:100DC000420051188B89064A1218927908329342D0
:100DD00003D300228A81FFF759FF10BD240F0020A2
:100DE000EC130020F8B504462448E423027A244F8B
:100DF0005A431318E0001A180021157C3819214EA7
:100E000085713155204E3155204E3155204E31558A
:100E1000157BCE009E19367BAE4204D1A14202D290
:100E20007E18B6798671491CC9B20329F1D3154BD6
:100E3000002185797E18B57100255D54491CC9B221
:100E40000329F6D3507C002813D0185D002810D158
:100E5000FF2104F073F90F4DA4002855FF21002055
:100E600004F06CF964196070FF21002004F066F949
:100E7000A0700949FF200870F8BD0000600F002035
:100E8000EC130020DD000020E6000020E30000203D
:100E9000E0000020E0130020D300002010B504463D
:100EA000FFF7A0FF204600F04FF8204600F0A6F81C
:100EB00010BD000070B5A8B00446A02219496846CC
:100EC000FFF74AF9184861000818028B17490919F9
:100ED000097B08318A420ED3002303831449154D40
:100EE0000868154A060608D5802398430860012043
:100EF00010704F20285528B070BD295D68464E00FF
:100F0000805B0E4E800A30550D4E491E30550D4EF9
:100F10003055C8B228552828EDD210780128EAD1DA
:100F20001370E8E74C610000240F0020EC13002050
:100F3000D8000020F5000020D4000020F800002098
:100F4000FB000020FE0000200B49E4230A7A5A43EC
:100F50005118C2008918094A097C121811730849EE
:100F60000978002907D1074A1154074A1154074A42
:100F70001154074A11547047600F0020EC130020F1
:100F8000D4000020F5000020FE000020FB0000201F
:100F9000F800002030B51349420051184B8A124A1C
:100FA0001218527A0832934215D300224A820F490E
:100FB000104C0B5C0A180E4924180918002B0BD092
:100FC0000D4D2D18012B09D0022B04D121462846A6
:100FD000FF23FFF741FE30BD2046F9E70846FF2317
:100FE0002946F6E7240F0020EC130020E90000203A
:100FF000EF000020EC000020F200002070B5044655
:101000000D49FF2008550D48002505550C48E422E0
:1010100005550C48017A51430818E1004018007C3E
:101020000521FFF745F908490919487207490120C8
:1010300008700748055570BDEC000020EF00002047
:10104000F2000020600F0020EC130020D5000020EB
:10105000E900002030B5064D01235C001C1928551D
:1010600064195B1C6170DBB2A270062BF5D330BD36
:10107000FB1300201648E422017A51430818282166
:10108000095C89004118403112488A7A0262CA7AA2
:101090004262097B81621049CA78C2620A7902639E
:1010A0004A7942630B488A7940304263CA79826345
:1010B0000A7AC2634A7AC260826142628A7AC262F2
:1010C000C2618262C97A0163016281607047000077
:1010D000600F002000200040FB130020F0B585B019
:1010E000FF2694490196086800243746C20709D0B4
:1010F0004008400008602046FFF7D0FE641CE4B2C0
:10110000032CF8D38C480078002803D00020FFF788
:10111000FFFD0AE10024012002902046FFF74EFE69
:101120002046FFF7C7FE2046FFF734FF8348E4223E
:10113000017A51430818E1004518287B030001F0AB
:10114000DFFA05E2BF048E5EEB00687C00280FD05A
:101150007B487D4A007881007A48435CA0001354A4
:10116000784A794B89184A78C0184270897807E024
:10117000754A697BA0001154A97B80184170E97BF6
:101180008170A87CFF2E32D03146704A6E4B515C84
:1011900002464A43A500595D4A430299130C4A008E
:1011A0008A186B49FF2E8B5423D03146694B595C0A
:1011B00003464B43644969184D786B43644D1B0CDF
:1011C00052195370FF2E16D03346634D8978EB5C6D
:1011D00058434843000C9070FF2E0ED05F48604A81
:1011E000815D0155002061008918888194E02146C5
:1011F000CBE72146DAE72346E7E726468CE0A87CE2
:10120000FF2F24D03946574A515C6A7B41435143F2
:101210000A0C02994B00C9184D4BFF2F5A5418D095
:101220003A46514B9A5CAB7B42435A43484B120CB3
:10123000C9184A70FF2F0ED03A464C4B9A5C504367
:10124000EA7B5043000C8870FF2F06D064E02146F3
:10125000D9E72246E5E72246EFE727465CE0019919
:10126000A87C0090FF2900D12146414A515C4843A7
:10127000FF21FFF71DF80146029842008518344807
:1012800041550198009AFF2800D120463949085C51
:10129000FF215043FFF70CF82D496D186870019835
:1012A000009AFF2800D120463349085CFF215043B3
:1012B000FEF7FEFFA8700198FF282DD101942BE0C6
:1012C0006A7BA87C00905043FF21FEF7F1FF0146A6
:1012D0000298420080181E4A03901154AA7B00987D
:1012E000FF215043FEF7E4FF0146194A0398801896
:1012F00003904170EA7B0098FF215043FEF7D8FF2E
:101300000146039807E00298002142008018104A25
:1013100011548018417081700298641C401CE4B222
:10132000C0B20290032C00D2F7E6FFF7A3FE05B08F
:10133000F0BD0000D8000020BC000020600F00209D
:10134000C000002078620000E0130020E0000020D0
:10135000FB130020E3000020E6000020DD00002059
:10136000240F0020F8000020FB000020FE000020D9
:10137000EC000020EF000020F2000020F0B54D4B03
:101380004D4918788008800018700A681209D20741
:1013900002D00122104318700868C008C00703D0AB
:1013A00018780221084318701878424A810750784B
:1013B000927D8446401EC4B2F3251007890F154064
:1013C000800F00291CD03B4EB77D7678BF083609C8
:1013D000BF003601012928D0022934D0032942D088
:1013E00000F0B8F85878810662D5DF2108405870BF
:1013F000010651D54006400E5870987B401C52E0C3
:1014000001280ED090070CD16046000709D02F208C
:101410005C70044205D12020044304205C70054325
:101420009D75987D8008800034E0012806D0022850
:1014300006D0082006435E7001200CE0882000E002
:1014400048205870F8E7012808D0022808D0082062
:1014500006435E70022007439F75C3E7482000E003
:1014600088205870F6E702280FD0D04380070CD1AF
:101470006046000709D02F205C70044205D120206F
:10148000044308205C7005439D75987D0321800806
:10149000800008439875A5E7410609D5BF2108409B
:1014A0005870987B401E9873D87B02210843D873EC
:1014B000F0BD0000540000200080044010B51F481B
:1014C0004268C1140A43426002680A4302604268EB
:1014D00001150A43426002680A43026042684115EE
:1014E0000A43426002680A430260426881150A4367
:1014F000426002680A430260B6213B2000F066F9B0
:10150000322001F0D1F80E48416A20221143416295
:10151000000401684908490001600A480168490857
:1015200049000160074808498030416181613220EB
:1015300001F0BAF806490548086010BD00A0044053
:101540000040044000200040AAAAAAAA0000FA5ABB
:1015500000000140094900200A681209D20700D0A2
:1015600001200968C908C90701D0022108430449BC
:1015700008228875487810434870704700800440FE
:101580005400002010B51F2001F0D4F806490320B4
:1015900008620648016901229204114301611F207B
:1015A00001F0D4F810BD000000400440D00E00202F
:1015B00010B51D2001F0BEF808480169084C8907E4
:1015C00009D5084921620169012292041143016190
:1015D0001D2001F0BBF81820206210BDD00E0020A5
:1015E000008004403B88000002480168024A114321
:1015F00001607047002004403FC0070005480168B3
:10160000490849000160044801680122120391431E
:101610000160704700C0014000E0054007480168D4
:1016200001221203114301600548016801221143A0
:1016300001600168C02211430160704700E005406D
:1016400000C0014010B51B4801680122120311437C
:101650000160194801680F22120291430722120209
:101660008918016001680822914301600168022223
:101670009143016001680422914301608168090A75
:1016800009020B3181600621416001681204114397
:1016900001600A494B6A202213434B620368C0244D
:1016A000234303604B6813434B60016801221143DD
:1016B000016010BD00E0054000C001400040044052
:1016C000F8B5284D0C462968C02739432960264EB5
:1016D000B16A20221143B162E861E868C006FCD417
:1016E000E869694608700C2000F0FEFFFF20E86101
:1016F000E861E861E861E861E861E861E861E9689A
:10170000C906FCD4E9684907FCD4E9692170E96994
:101710006170E969A170E969E170E9692171E969BC
:101720006171E969A171E969E17129683943296049
:10173000E861E861E861E861E868C006FCD4E8684F
:101740004007FCD4E8692072E8696072E869A07219
:10175000E869E072706A202108437062042000F09A
:10176000B3FFF8BD00C0014000400440F8B5154C7F
:101770002168C02211432160134DA96A20263143FC
:10178000A962E061E068C006FCD4E06969460870BF
:10179000142000F099FFFF20E061E068C006FCD44F
:1017A000E0684007FCD4E06969460870032000F057
:1017B00095FF686A30436862162000F085FF69462D
:1017C0000878F8BD00C001400040044038B50E4C18
:1017D000A26A20252A43A262802210430B4AD061CC
:1017E000D161D068C006FCD4D06969460870D06960
:1017F0000870032000F072FF606A284360621620C0
:1018000000F062FF38BD00000040044000C001400D
:10181000FFB581B004992027224E002904D0012968
:1018200013D0022905D102E0B16A3943B162022125
:10183000B16280211C4D0843E861E868C006FCD411
:101840001E2000F04BFF00240DE0B16A3943EFE7A2
:101850000298005DE861E868C006FCD41E2000F034
:101860003DFF641CA4B203988442F1D3E868C0062B
:10187000FCD41E2000F032FF0498002804D0012878
:101880000CD0022805D102E0706A38437062022051
:101890007062162000F018FF05B0F0BD706A384382
:1018A000F6E700000040044000C0014010B5214AA6
:1018B000D068214CC006C00F04D0002807D07D207E
:1018C000000203E01068012801D11C482060106963
:1018D0004007400F030000F013FF080507090B0D38
:1018E0000F11131401210CE002210AE0042108E089
:1018F000082106E0102104E0202102E0402100E060
:1019000080212068FEF7D4FC0D4A0E4920609042E9
:1019100006D90D480860401C08600B48093007E0F4
:101920000A4A904202D90848401E01E00648001FBA
:10193000086010BD0000064050020020006CDC0270
:1019400000366E01002006400400FA5A001BB70062
:101950000D480C490160491C01600A4909310160C8
:101960000A48012101608168C907FCD00021C160DB
:10197000C1684906490FFBD10169C908C900016165
:10198000704700000400FA5A00200640000006409C
:1019900010B5FEF78DFEFEF7B3FE10BD70B51A4D03
:1019A00028784406640E000602D5002000F00AFAEA
:1019B000002C1AD0022C17D1A878002814D128792D
:1019C00000224006400E114BE103002817D00228E8
:1019D0000AD8AC68012C07D11A5428690843286139
:1019E0000021084600F06AF970BDA8780128FBD1F3
:1019F000286980218843286128690549EEE728691C
:101A00008006F1D51A70E8E7D00E0020950000207E
:101A1000000101000349CA6B012383409A43CA6352
:101A20007047000000C005401B0612041343090262
:101A30000B43184370470000034801690348C8403E
:101A4000401EFDD27047000000000640DC0500008B
:101A5000034801690348C840401EFDD2704700009A
:101A6000000006408038010070B501201D4E800541
:101A7000B0601D4DA87C022815D10020A8746869AB
:101A80001A4988420DD1A8691949884209D1002410
:101A9000A000002101F028FB641C402CF8D3FEF7C5
:101AA00053FB0420A874134C2069134D400609D53C
:101AB0002069402188432061207BF060002000F0F5
:101AC00081F907E0E088002808D02069C00305D428
:101AD00000F078FD2069A843206170BD002000F06F
:101AE00071F970BD00C005406C030020AA55A55ACD
:101AF000FF0033CCD00E002000000100F8B501211A
:101B00003F48490581603F4EB07C3F4F01281CD0C3
:101B100034468034606980050ED5606909138843B6
:101B20006061002001F0CEFA3868000A3070606908
:101B30000121490308436061344C2069000450D4FA
:101B40000021084600F0BAF854E00024A500284619
:101B500001F0B8FA2E4A1078402807D32B49C988DB
:101B6000402903D93968AB19596502E03968AB19C6
:101B700059612649CB78032B0DD10B79002B0AD163
:101B80008B78002B07D10B78212B04D149780929B8
:101B900001D1001D1070641C102CD7D30220B0742A
:101BA00070691C490124884203D1B0691A498842EE
:101BB00003D01A48017821430170194E307800286B
:101BC000BAD1134D28784028B6D30E49402214319B
:101BD0001448FEF7F3FA347000202870114804709E
:101BE000AAE707484168C90104D481690122D206E5
:101BF0001143816120690121C90388432061F8BD37
:101C000000C005406C030020B0000020D00E002072
:101C1000BE000020AA55A55AFF0033CC14000020B6
:101C2000D2000020E40E00207CB53320204CC004FC
:101C3000A060002000F0BCF86068400330D41D4C68
:101C400020690321C90388432061002001F03AFA8A
:101C5000194D28680090042001F034FA286801909A
:101C60000098C0B220700099090A61700099090CAF
:101C7000A1700099090EE170019921710199090A79
:101C800061710199090CE1806021084002D020288F
:101C900003D008E000F0A2FB7CBD00F05BF97CBD46
:101CA00001208004A060002000F08CF87CBD0000C2
:101CB00000C00540D00E0020B0000020042806D847
:101CC000034A800080180522520789180160704776
:101CD00018C00540421E032A04D8034A8000801819
:101CE0008038C1677047000048C00540042804D808
:101CF00002498000401800210160704718C005406B
:101D0000F7B5054624498000164641180A6882B096
:101D1000002A02DB022005B0F0BD002D03D0042D07
:101D200001D8402E01D90420F5E70968490F04299C
:101D300001D00120EFE71949495D002904D0284668
:101D400000F040F80320E6E7154941180968B14260
:101D500001D20520DFE7134940188038C06F00909A
:101D6000B007B708002800D07F1C002407E00399C3
:101D7000A000009A0958801801F0C4F9641CBC4204
:101D8000F5D3F1B22846FFF799FF074900204855DF
:101D900006494855BFE7000018C0054095000020DF
:101DA000BC0E0020AC0E0020C1000020C5000020A9
:101DB000042804D8024980004018090701607047D0
:101DC00018C0054004280CD8064A8100891800284C
:101DD00004D1044818384068C00102D407204007E5
:101DE0000860704718C0054070B50E4DA968002006
:101DF00001F07AF9A868012806D101242046FFF7EE
:101E0000D7FF641C022CF9D9074900200860286913
:101E1000032189030843286101210020FFF74EFFB9
:101E200070BD0000D00E0020A0000020F8B5184FB3
:101E30000020FA783D79174BBC7884460C26014681
:101E400071435E5CB24210D1C9184E78B5420CD1D4
:101E50008E78B44209D10C225043C0180E4A8088B3
:101E6000106088680D49086005E0401C1028E5D323
:101E70006046002807D038690121C903084338614A
:101E800000F0A0FBF8BD0020FFF79CFFF8BD0000AC
:101E9000D00E0020F85B0000A00000209C00002075
:101EA00010B50E4CA068012814D12078812811D1DA
:101EB000207901280ED80A49095C002001F014F9A4
:101EC00020690121C9030843206101210020FFF797
:101ED000F5FE10BD0020FFF775FF10BDD00E0020ED
:101EE000A400002070B5194D28784406640EC0097E
:101EF00001D1FFF767FF0126F603002C15D0012C56
:101F00001AD0022C10D128794006400E02280BD896
:101F10000F49095C002001F0E7F828693043286187
:101F200002210020FFF7CAFE70BD2869000601D516
:101F30000221EFE70021EDE7A8680128F4D16879D4
:101F40000028F1D128790128F4D970BDD00E0020E5
:101F50009500002010B511484078030000F0D0FB38
:101F60000C19070A0D191919191910131619FEF76A
:101F700053FD10BDFEF702FD10BDFEF725FD10BD9F
:101F8000FEF72AFE10BDFEF7D7FD10BDFEF7F8FDE7
:101F900010BD0020FFF716FF10BD0000D00E00207E
:101FA00004487D2101740121417400218174803035
:101FB000416170476C03002070B5414D6C68414829
:101FC000A860002C08D0600F15D0002C07DA00F0B4
:101FD00011F900F0E7F853E000F00CF970BD600073
:101FE00002D500F0C5FA4BE0A00049D500F002F997
:101FF00000F0F2F844E02002C00E18D0200202D512
:10200000FFF712FE3CE0600202D5FFF72DFD37E03E
:10201000A00202D5FFF772FD32E0E002800F2FD060
:102020000320C004A8600020FFF7CCFE28E02005B4
:10203000000F13D0E00502D5FF200130A860A005F5
:1020400002D501204002A860600502D5012080026F
:10205000A860200514D50120C00210E020070FD091
:10206000E00701D00120A860A00701D50220A860E8
:10207000600701D50420A860200701D50820A860CA
:102080006001ABD528684000A8D500F0BBF80E4928
:10209000002348780D4A002802D0401E487003E013
:1020A0005078002800D053708878002802D0401E55
:1020B000887070BD90780028FBD0937070BD0000D0
:1020C00000C00540FFFFFBFEC5000020C10000204E
:1020D00070B500F0B1F9FFF763FFFFF739FCFFF7C8
:1020E000E5FB2148016810221143016040210120D5
:1020F000FFF7F0FD80210220FFF7ECFDC021032057
:10210000FFF7E8FDE0210420FFF7E4FD1748402138
:10211000016080224260C0228260E022C2601448D6
:1021200001600821416009228260C1600161124C96
:10213000104820602068C9060843206002206061C2
:102140001F25ED06322000F0AFFA25610A48610430
:10215000403041620949C162012000F0EBFA0120E0
:1021600000F010FB70BD000000E00540AC0E002048
:10217000BC0E0020100000B000C00540044000006C
:1021800000B5074A06205061FFF756FC0520506154
:10219000FFF75EFC506904218843506100BD0000D8
:1021A00000C0054010B500200949C04388600948B7
:1021B0000122026100228260CA601046FFF702FE1F
:1021C00001242046FFF792FD641C042CF9D910BDB0
:1021D00000C00540D00E00200448016904221143CC
:1021E00001610349D006886070470000D00E0020CE
:1021F00000C0054010B5FFF7ABFBFFF757FB00F041
:1022000033FA10BD10B501200B49800688600B48D9
:102210008068C0070FD00A48007802280BD309480D
:102220000078002801D101F0BBFA07480178491C69
:10223000017003F033F810BD00C00540D00E00203F
:10224000CA000020090100206500002010B50D48DB
:102250000169202399430161016940221143016111
:102260008178002902D002691A4302610173016971
:10227000012212041143016100210846FFF71EFDEF
:1022800010BD0000D00E0020F8B5214E1F4D306962
:10229000800607D5B078102101240027002805D03A
:1022A000012810D00020FFF78DFDF8BDB760306920
:1022B000084330610127EC553846FFF717FD7F1CB6
:1022C000042FF8D917E0B4603069884330610024E6
:1022D0002F55002C0CD02046FFF76AFD0D480069F1
:1022E000611EC840C00703D000212046FFF7E6FC6E
:1022F000641C022CECD930690121090408433061C7
:1023000000210846FFF7DAFCF8BD00009500002028
:10231000D00E002000C0054070B5184D2878440646
:10232000640E000602D50020FFF74CFD002C05D0FE
:10233000022C09D00020FFF745FD70BDA8780128C8
:10234000FBD128690E4912E0A8780028F5D1287938
:102350004006400E411E0129EFD8A9680129ECD1A1
:10236000084A1154FFF72EFD28690121090408438A
:10237000286100210846FFF7A1FC70BDD00E0020A7
:10238000800101009500002010B5114CA0680128C3
:102390000CD1104A002001461154401C0428FBD9DE
:1023A0002079012802D8A278002A03D00020FFF764
:1023B00009FD10BD084A1154FFF72CFB20690121CB
:1023C00009040843206100210846FFF777FC10BD8F
:1023D000D00E002095000020A400002010B5154864
:1023E0004078030000F08CF90C070A220D2210132C
:1023F0002216191C1F22FFF775FD10BDFFF7CEFA3C
:1024000010BDFFF789FF10BDFFF720FF10BDFFF7DC
:102410000DFD10BDFFF7E8FC10BDFFF735FF10BD47
:10242000FFF73EFD10BDFFF7AFFF10BD0020FFF727
:10243000C9FC10BDD00E002000200E4A01461154E8
:10244000401C0528FBD30C4A00201154401C0428D2
:10245000FBD30A48017041708170C17001714171F4
:10246000C18081600173016901225204114301613D
:102470007047000095000020A4000020D00E00202E
:10248000F8B5324C20690221884320613048007839
:10249000012856D02F49304A304F0020D1607B6848
:1024A0005B004ED52E4B401C9842F7D37868400015
:1024B00047D538690921C906884338612069000673
:1024C0001AD5284D0020A8606868800880006860E0
:1024D0000A2000F0F9F82868234D8607B60F00207F
:1024E000A86068682149084068600A2000F0ECF89C
:1024F0002D681E48C04305400A2000F0E5F800F0B2
:102500003FF8786840001DD5184A1649164BD2434B
:102510007868400016D520690006F9D5086880075C
:10252000800FB04202D0A068012806D01868104081
:10253000A842EDD0A0680128EAD1FFF75BFEFFF7C3
:102540001FFEF8BDFFF756FEF8BD0000D00E0020BC
:10255000A8000020AA55FA5A0000014000C005401A
:10256000E07509000040044000800440C477FFFF8C
:10257000024801690222114301617047D00E002018
:1025800010B50B4A002313600A480121C160C168DD
:10259000C906FCD502210161084C0749216003608E
:1025A00007481060106849070843106010BD00001C
:1025B00000C00540000006400200FA5A0020064014
:1025C000100000B0F8B52348244E04682248316852
:1025D000C088884200D230603068214F00281FD068
:1025E0000025E378A27861782078FFF71DFA01468C
:1025F000A80000F079FD6D1CEDB2241D102DF0D364
:1026000030683860306840281BD340210020FFF735
:1026100055FB10480168403101603068403816E0D1
:1026200000210846FFF74AFB3868402806D00D48CD
:1026300081690122120711438161F8BD00203860D1
:10264000F8BD3068C1B20020FFF738FB00203060D1
:10265000F8BD00009C000020D00E0020A00000204B
:10266000AC00002000C00540044801690922D206E0
:1026700011430161012149068160704700C0054096
:1026800010B50848006980070BD5FEF717FFFFF764
:10269000F7FE00F081FEFEF70BF8FEF731F800F0D0
:1026A00025FF10BDD00E002030B50346044C054D6B
:1026B00003E0EC60642000F007F85B1EF9D230BD47
:1026C000AA55FA5A0000014003490A693C21D14049
:1026D0004143491EFDD27047000006400621484391
:1026E000401EFDD27047000004490A693C21D140D8
:1026F00041434808401EFDD27047000000000640DC
:1027000030B47446641E2578641CAB4200D21D466A
:10271000635D5B00E31830BC18470000002805DB50
:10272000C106C90E012088400149086070470000B9
:1027300080E200E0002805DBC106C90E01208840C8
:10274000014908607047000080E200E0002809DBD2
:10275000C106C90E0120884003490860BFF34F8FAE
:10276000BFF36F8F7047000080E100E0002805DBB9
:10277000C106C90E01208840014908607047000069
:1027800000E100E0002805DBC106C90E01208840F9
:10279000014908607047000000E100E0F8B5074615
:1027A0001E460C461546104601F08AF900284CD00A
:1027B000284600F075F8002847D12C2044432348D0
:1027C00024182570280A6070E670A770A11D0020EB
:1027D000FDF766FD21460E310020FDF761FD214623
:1027E00012310020FDF75CFD214616310020FDF777
:1027F00057FD21461A310020FDF752FD00202071BF
:102800001248214621380A31807E0E46FDF748FDE8
:10281000010000D101203146FDF742FD012666711D
:10282000284600F0F5FC21462331FDF739FD284606
:1028300000F016FD21462731FDF732FD21461E31FD
:102840000020FDF72DFD2034E672F8BDA10900201F
:1028500070B52C2148430949441812342046FDF72D
:102860000EFD05463F2805D0681C2146FDF718FDE2
:10287000284670BD21460020F8E70000A10900208D
:1028800001462C225143044A002089184979012924
:1028900000D1012070470000A1090020704700000E
:1028A000F0B50022104D15239B010646EB1810468B
:1028B00011461C8F14E00E234B43EB5A5F047F0C30
:1028C000B74207D10E22514349194978C90900D0AE
:1028D0000120F0BD5B0401D1521C92B2491C89B2A7
:1028E000A3188B42E7D8F0BD20040020F8B50021E2
:1028F0002C4B1522920106469A180D460846148F55
:102900004BE00E2242439A5A57047F0CB7423ED105
:102910000E214843C4186688002E17D0201DFDF7ED
:10292000AEFC81B2B00100F0EDF80646201DFDF7C7
:10293000A6FC61886A4689014018017811704078C8
:1029400050701088864201D1012501E0002D27D06A
:102950002689002E24D020460A300546FDF78FFC3C
:1029600081B2B00100F0CEF806462846FDF787FC9C
:1029700021896A46890140180178117040785070A9
:102980001088864201D101250AE0002508E05204A2
:1029900001D1491C89B2401C80B262188242B0D871
:1029A0002846F8BD2004002070B51A4CA0790128F3
:1029B00028D1608A1849401C80B26082098F0026A5
:1029C000164D884202D91EE0401C2082208A0E212A
:1029D0004143695A490401D16428F5D380B20E21DC
:1029E0004843285A4004400CFFF780FF002809D1D3
:1029F000208A0E214843285A4004400CA082A67128
:102A00000320607170BDA671A682668226820220B4
:102A1000F7E70000180000206009002020040020D3
:102A2000F8B500252C46124E1CE020460E214843E6
:102A300010490746C85B420410D04004400CFFF721
:102A400055FF00280CD10B488022381841781143DB
:102A50004170E1B2202002F0BDFB01E06D1CADB27F
:102A6000641CA4B2308F4019A042DED8F8BD00002B
:102A7000600900202004002070B50B4D0024E88977
:102A800000280FD1687203E002F054FF641CE4B226
:102A90002A20FEF76BFE052801D0032CF4D37D20FD
:102AA0004001E88170BD00003E02002070B5124C6C
:102AB0000146207AE422504305192846273001298F
:102AC0000DD000290AD1014637220C48FDF776FBCC
:102AD0002946233104220A48FDF770FB70BD3722D6
:102AE0000649FDF76BFB207AE421484300190422D4
:102AF00003492330F0E70000600F0020C80D0020DC
:102B00008400002010B503460A480CE01C78020A35
:102B100054402209624000021403604054016040A6
:102B2000504080B25B1C0A46491E89B2002AEDD192
:102B300010BD0000FFFF000010B5034610460CE07A
:102B40001C78020A544022096240000214036040CB
:102B500054016040504080B25B1C0A46491E89B255
:102B6000002AEDD110BD0000F1B584B00020029024
:102B700004982C214843FE49401800901E30054619
:102B8000FDF77DFB074600981A300646FDF777FBF8
:102B900001460098123001900098044620348F427C
:102BA00070D00498FFF754FE0499F34F8A01F1495D
:102BB0005618315C07297CD007DC0B00FFF7A0FD1D
:102BC0000713FBF9286395AC1300212972D006DCAA
:102BD000082970D010296FD0202904D13DE1222985
:102BE0006BD023296AD00098002444710098417862
:102BF00002780802104300F079FE0821DF48FDF753
:102C00003AFBDF4801220178447011430822B1E009
:102C100002270198FDF733FB815DD8480838C219B7
:102C2000127A914201D1012102917F1CFFB2082F3B
:102C3000EFD3022709E0D1480838C019007A0028EC
:102C400012D07F1CFFB2082F02D202980028F2D0C7
:102C50000498FFF7FDFDA078801EA0702846FDF7C0
:102C60000EFB2946801CA8E10198FDF708FB815D59
:102C7000C24801220838C0190172C14801781143C5
:102C80000170E5E761E102270198FDF7F8FA815D3F
:102C9000BA480838C019007A814210D1B7490020DB
:102CA0000839C9190872B648012201781143017028
:102CB00009E046E0E0E060E092E0F9E01BE17F1C23
:102CC000FFB2082FE0D30498FFF7C2FDA078801E62
:102CD000A0702846FDF7D3FA2946801CFDF7E0FADC
:102CE000E07A401EE07205B0F0BD02203870049812
:102CF000FFF7AEFD305C7870A078801EA07028468B
:102D0000FDF7BDFA2946801CFDF7CAFA9C4902224C
:102D1000087810430870E6E7022038700498FFF73F
:102D200097FD305C7870A078801EA0702846FDF773
:102D3000A6FA2946801CFDF7B3FA914802220178D1
:102D400034E0012038700498FFF782FD305C787021
:102D50000498FFF77DFD305CB870A078C01EA070AD
:102D60002846FDF78CFA2946C01CFDF799FA8448DD
:102D70000422017811430170B5E7012038700498EE
:102D8000FFF766FD305C78700498FFF761FD305CFA
:102D9000B870A078C01EA0702846FDF770FA2946CA
:102DA000C01CFDF77DFA76480422017811430170BA
:102DB00096E72AE0FFE70498FFF74AFD305C704E83
:102DC0007070A078801EA0702846FDF758FA29463A
:102DD000801CFDF765FA30780821084330707FE7E2
:102DE0000498FFF735FD305C654EB070A078801E0A
:102DF000A0702846FDF743FA2946801CFDF750FADB
:102E000031780820014331706AE70498FFF720FD0C
:102E10005B4F305C38810498FFF71AFD397A305CDB
:102E20000902084338810498FFF712FD305C78816D
:102E30000498FFF70DFDB97A305C090208437881E8
:102E40003878082108433870A078401FA0702846C1
:102E5000FDF715FA2946401D40E70098801DFDF753
:102E60000EFA07460498FFF7F3FC305C0099381817
:102E7000891DFDF715FAEEE60498FFF7E9FC375CCB
:102E80000498FFF7E5FC365C380206430098801D85
:102E9000FDF7F5F900998019891DFDF701FAA07871
:102EA000C01EA0702846FDF7EAF92946C01C84E040
:102EB0000498FFF7CDFC375C0498FFF7C9FC305C41
:102EC0003902084307460498FFF7C2FC365C380213
:102ED00006430098801DFDF7D2F900998019891DDD
:102EE000FDF7DEF9A078001FA0702846FDF7C7F9AE
:102EF0002946001D61E00498FFF7AAFC375C04989E
:102F0000FFF7A6FC315C380201430F460498FFF737
:102F10009FFC305C3902084307460498FFF798FC91
:102F2000365C380206430098801DFDF7A8F9009929
:102F30008019891DFDF7B4F9A078401FA0702846BC
:102F4000FDF79DF92946401D37E00098009900796A
:102F5000401C087100990020891DFDF7A1F9044863
:102F6000009921380A31807E0F46FDF799F909E072
:102F7000A10900202D0B0020700D00200C04002062
:102F800018000020010000D101203946FDF788F922
:102F90000020A07000990E31FDF782F90020019900
:102FA000FDF77EF9009900201631FDF779F93146D9
:102FB0000020FDF775F929460020FDF771F992E62A
:102FC0002C225043024A00218018C1707047000033
:102FD000A1090020002121E000BF00BF00BF00BF09
:102FE00000BF00BF00BF00BF00BF00BF00BF00BFE9
:102FF00000BF00BF00BF00BF00BF00BF00BF00BFD9
:1030000000BF00BF00BF00BF00BF00BF00BF00BFC8
:1030100000BF00BF00BF00BF491C89B28142DBD99D
:103020007047000010B5044C208001E002F0BAFCAB
:1030300020880028FAD110BDCC00002070B50E46C3
:10304000054602240821FDF716F91D4AF0070ED0A7
:1030500028781178084328700220115C002902D0DA
:103060002955641CE4B2401CC0B20828F5D3B0074F
:1030700011D52878117A0843287002201118097A8E
:10308000002904D0082C06D22955641CE4B2401C47
:10309000C0B20828F2D3700711D52878117C0843F4
:1030A000287002201118097C002904D0082C06D2AF
:1030B0002955641CE4B2401CC0B20828F2D370BD8C
:1030C00004040020064A9063054802214030016054
:1030D00001688907FCD4D06B024908607047000082
:1030E00040C00540B0000020054A9063D163044809
:1030F0000121403001600168C907FCD17047000020
:1031000040C00540044A506091600120D060D06802
:10311000C007FCD17047000080C005407047000028
:1031200010B50F210320002209038003FDF7BCFB2B
:1031300018210448FDF7A1F80021402002F04AF8C8
:1031400010BD0000500E0020104901200A78042A0A
:103150001AD10F4A537C002B02D021204870022044
:10316000D27A002A02D020220A54401C084A203A6F
:10317000D37C002B02D022230B54401C527E002A09
:1031800002D023220A54401C70470000A80D0020E2
:103190007402002030B50022094C1146635C002007
:1031A0001D46C540ED0700D1521C401CC0B2082886
:1031B000F6D3491C89B21829F0D3900130BD000024
:1031C000500E002000B5FFF7E5FF00BDFFB581B050
:1031D0001F460C460026019800F01AF80546019893
:1031E00000F03EF8002D0FD000280DD0E1198142EB
:1031F00002D828193A4603E0A04204D9021B281934
:10320000039901F0CFFF0126304605B0F0BD000064
:10321000F0B50022114D15239B010646EB18104610
:1032200011461C8F16E00E234B43EB5A5F047F0CB4
:10323000B74209D10E20414348194088010401D505
:103240000003F0BD8001F0BD5B0401D1521C92B2BD
:10325000491C89B2A3188B42E5D8F0BD2004002098
:10326000F8B506460020104D15239B01EB180246C9
:1032700001461C8F13E00E234B43EB5A5F047F0C77
:10328000B74206D10E2041434819001DFCF7F7FF55
:10329000F8BD5B0401D1521C92B2491C89B2A3183B
:1032A0008B42E8D8F8BD000020040020F0B5114D95
:1032B00000242E8F360A0E702E8F4E70C1180E4EBF
:1032C0008C460FE00E214143735A5F0406D05B0425
:1032D0005B0E1370715C5170921C01E0641CA4B20F
:1032E000401C80B2298F0919814201D98445E9D84F
:1032F000F0BD000060090020200400200148807E0D
:103300007047000080090020F3B500221A4D1523F4
:103310009B010646EB1881B0104611461C8F26E033
:103320000E234B43EB5A5F047F0CB74219D10E209A
:1033300041434C19201DFCF7A2FF010E02980170B9
:10334000201D029DFCF79BFF000C6870201DFCF700
:1033500096FF000AA870201DFCF791FFE87001207D
:10336000FEBD5B0401D1521C92B2491C89B2A31864
:103370008B42D5D8FEBD0000200400206420704799
:10338000C12080017047000010B50248FCF777FFAC
:1033900010BD00009B0900201B4A00205060906077
:1033A0001A49486088601A4948608860506820233C
:1033B0001843506017484368C214134343600368BE
:1033C00093430360436802151343436003689343C8
:1033D00003604368421513434360036893430360EB
:1033E00043688215134343600368934303601820C6
:1033F000086148610022D2430A6288618803064955
:1034000008600649086070470040044000600440BE
:103410000080044000A0044080E200E000E100E001
:1034200010B50E48002444710D48E422017A51433E
:10343000091890220B485E31FCF7C0FE094A0020B3
:10344000363A06214143545489184C708C70401C04
:10345000CC70C0B24C710928F3D310BD000000201D
:10346000600F00208A02002010B5FEF771FAFEF707
:103470001DFAFEF7B9F8FFF78FFF022002F082FA7B
:10348000164802F097FAFEF7DDF8FEF7B7F8FEF7F8
:103490007FFA1348016802688907C90F1204D20F26
:1034A000520011430268D207520F11430D4A1368AC
:1034B00012689B07DB0FDB001943D207D20E1143C2
:1034C000026800689206D20F520111430005C00F36
:1034D000800101430448016010BD000080841E008B
:1034E0000080044000400440B800002070B5FEF7A2
:1034F00095F8164C0025A57365842584E57314485A
:1035000065740580134814490580E575A584A57088
:103510002576A576102060760A46002010320B46EC
:1035200020330D5415541D54401CC0B21028F8D33C
:1035300050210A48FCF79FFE04484563E574A574D2
:103540006575257502F0F6F970BD00005400002085
:103550004A02002048020020980D00201A03002093
:10356000F8B5714800240480704802250470704842
:10357000FC2104706F4804806F4804706F48047029
:103580006F4805706F48FCF776FE7B216E48FCF7AC
:1035900072FE48216D48FCF76EFE0E216C48FCF768
:1035A0006AFE08216B48FCF766FE10216A48FCF7AA
:1035B00062FE09216948FCF75EFE19216848FCF7A4
:1035C0005AFE6848684944704C7084708C70C470AE
:1035D000CC700B211C2209036448FCF7EFFD634803
:1035E00041780278080210431C2804D01C2260494C
:1035F0005E48FCF7E3FD0926F60132465D495E4868
:10360000FCF7DCFD5C484178027808021043B042C8
:103610000AD1811E5848FFF775FA58494A7F0B7F37
:103620001102194388420DD0324655495248FCF7E1
:10363000C5FD0524641EE4B22146012001F0CAFD47
:10364000002CF7D14F4F17213A46C9024E48FCF7DC
:10365000B5FDB91E4C48FFF755FA4C494A7F0B7F20
:103660001102194388420ED0FFF75AFD39464648E9
:10367000FCF701FE6424641EE4B22146202001F020
:10368000A9FD002CF7D15A2241494248FCF796FD8A
:1036900058214048FFF736FA3E4940314A7E0B7EBA
:1036A00011021943884220D05A213A48FCF7E3FD21
:1036B00039463548FCF7DFFD324631492E48FCF7E4
:1036C0007DFDFFF72DFD0524641EE4B22146012097
:1036D00001F080FD002CF7D16424641EE4B2214681
:1036E000202001F077FD002CF7D1FFF799F9FFF7C3
:1036F000D5F80A212848FCF7BEFD64210A2001F014
:103700001DFD0146012001F019FDFFF707FD002016
:10371000FFF7CCF9FFF7EAFEFFF782FEFDF71AFF8D
:103720001E480570F8BD0000CC000020D20000202B
:10373000B4000020B6000020CB000020C90000200B
:10374000CE000020881400200D14002084150020D5
:10375000FF0D002048000020700D00208C0D00207F
:1037600004040020C1000020C5000020440F0020F8
:10377000B05C000080B00000600F0020C213002089
:10378000CC5C00008105000020040020830900209B
:10379000C0BD0000500E0020800D0020CA00002097
:1037A000F8B54D4B002029214143CA18114622315A
:1037B0004C790D7924022C43641C0C71240A4C7141
:1037C000917C547C09022143491C5174090A401C14
:1037D000C0B291740328E6D3404F00213E4609361B
:1037E0000D4629200A4642433B481018C27B052A51
:1037F00007D12030007A3A5C012A0FD0374AD21C18
:103800001554491CC9B20329EBD3354E00242C2092
:1038100060438519687901281DD025E02F4BDB1CFA
:103820001A5CDC1C521CD2B21A54245CA242E8D3AB
:1038300042001D5494196378012B05D1B35C002B11
:1038400002D05B1EB354DCE7244B01225B1F5A54A9
:1038500065703D54D5E7A81DFCF711FD002803D085
:10386000A91D401EFCF71CFD641CE4B2092CCED33C
:103870001C4B187800280ED000204100C9180A7D82
:10388000CC7C12022243521CCA74120A401CC0B2E1
:103890000A750928F1D313482030007A00280FD088
:1038A00000204100C91823314A7E0C7E12022243B7
:1038B000521C0A76120A401CC0B24A760928F0D37C
:1038C00009490878002801D0401E0870887800282F
:1038D00001D0401E8870F8BD0D1400200F0100209B
:1038E000A10900201A0300208800002070B50022E2
:1038F000114C15239B01E31811461D8F18E00E2370
:103900004B43E35A5E04760C86420BD10E204843AB
:103910000019427880231A434270C9B2202001F076
:1039200059FC70BD5B0401D1521C92B2491C89B292
:10393000AB188B42E3D870BD20040020F0B50346DD
:1039400085B0002058490191064604460A8FA1E03F
:1039500021460E256943554D0291695A4D046D0C5F
:103960009D427DD10E202146414350480D184E49BD
:1039700068883B3102040091002A22DA4C4E3178EB
:1039800001291CD04104490C30464170090A81705C
:10399000281DFCF774FC811C080B0F463146401CA7
:1039A000C870000A0871012030700098FCF767FCAD
:1039B0003A0B012112030903511840180FE00226A7
:1039C0006EE000280ED00846FCF759FC0646281D7C
:1039D000FCF755FC801C80098001403030180099AC
:1039E000FCF75EFC2889012601041CD5304F79794B
:1039F0000129E4D04004400CF88028460A30FCF746
:103A00003EFC801C0390000B401C38810120787123
:103A10000098FCF734FC01460398020B12033003B4
:103A2000101808180EE000280FD00098FCF727FCAB
:103A3000074628460A30FCF722FC801C80098001DA
:103A4000403038180099FCF72BFC184802990027E1
:103A5000415ACA0B0299D20342526F80291D00E0DD
:103A600012E03846FCF71CFC29462F810A31002061
:103A7000FCF716FC01980199008F401E0887E1B2FF
:103A8000202001F0A7FB0BE0490401D1401C80B2CB
:103A9000641CA4B21118A14202D9642C00D257E7C9
:103AA000304605B0F0BD0000600900202004002071
:103AB000800D002010B500F023F8FEF775FF10BD53
:103AC000F0B5064600200D4D15239B01EB1802466C
:103AD00001461C8F0EE00E234B43EB5A5F047F0C14
:103AE000B74201D10120F0BD5B0401D1521C92B25A
:103AF000491C89B2A3188B42EDD8F0BD20040020E8
:103B0000F8B50025244F2E462C206843C41960794F
:103B100001283BD1A078102804D011281BD01228EE
:103B200034D118E02079E178884212D2A01DFCF748
:103B3000A6FB00282AD120460A30FCF7A0FBA11DD5
:103B4000FCF7AEFB284600F029F82846FFF70CF8F2
:103B50001CE066711AE0A01DFCF791FB00280CD157
:103B600020460A30FCF78BFBA11DFCF799FB284689
:103B700000F014F82846FEF7F7FFE078002805D19A
:103B800020460E30FCF77BFB0028E2D06D1CEDB226
:103B9000092DB9D3F8BD0000A1090020F0B50446F5
:103BA0002C2021464143584889B00D18284623301F
:103BB000FCF765FB049028462730FCF760FB1A35BC
:103BC000064628460695FCF75AFBB04272D22C21D5
:103BD0004D4A61438D18A1014C482F462C460818C8
:103BE00020370E3416350590402E65D9B97840201F
:103BF000411A029120460191FCF741FB0390019983
:103C0000301A884200D30846019007902846FCF7F6
:103C100036FB40210A1A029B05999A4215D3411896
:103C2000049A03988018019A01F0BCFA2846FCF720
:103C300026FB019940182946FCF732FB2046FCF789
:103C40001EFB01994018214626E04118049B039869
:103C5000C01801F0A7FA2046FCF711FB06462846DB
:103C6000FCF70DFB4021081A009030182146FCF7A4
:103C700017FB0146019A0098161A04983246081854
:103C8000059901F08FFA2046FCF7F9FA80192146D0
:103C9000FCF706FB29463046FCF702FB0698FCF7CA
:103CA000EEFA079940180699FCF7FAFAB9780798DE
:103CB0000818B87009B0F0BD2846FCF7E0FA05997D
:103CC000401800902046FCF7DAFA04993246401872
:103CD000009901F067FA2846FCF7D1FA80192946C5
:103CE000FCF7DEFA2046FCF7CAFA80192146FCF7F9
:103CF000D7FAB8788019B8700698FCF7C0FA80191E
:103D00000699FCF7CDFAD5E7A10900202D0B00207C
:103D1000FFF7AAFBFFF724FCFCF784FDFEF7D8F9B8
:103D2000124C01F03FFEFEF7ABFCA068C007F8D0D4
:103D30000F4D01F037FEFEF7A3FCA068C007F8D0D6
:103D40002878552803D1FEF797FE00F085F800F09B
:103D500045F8FCF7BBFB01F041F901F0C1F801F0B7
:103D60008DF8FFF7A7FEFDF7B9F9E2E7D00E0020C6
:103D700058000020FEB50026751E8009401C3746FD
:103D800000900024F80001901348C05DE040C00797
:103D90001AD00026751E009886420BD181B22846A3
:103DA00001F07CFB0320000228180F2180B289015A
:103DB000884208D9641CE4B2082CE5D37F1CBFB24A
:103DC000182FDED30020FEBD761C681CE3D10198BD
:103DD000001905B2DFE70000500E002070B51B4847
:103DE000007801282FD11A4D287802282BD2802163
:103DF0004A20FDF7EBFC4A20FDF7B8FC4407640FAE
:103E000001F0D0FD0120FFF70DF9022CF3D3042CB3
:103E10001AD00220287000214A20FDF7D7FC02208A
:103E2000FFF700F96520FDF7A1FC4006094C400EA4
:103E300020724120FDF79AFC60720146A37AE27974
:103E4000207AFCF7E3FC70BD0320E3E7CF000020FD
:103E5000CE0000205400002070B51748174D81791E
:103E6000687C814226D800246C7401F013FB687EC4
:103E70001349144A002801D0102807D1288C0B8838
:103E8000C0182884688C1388C018688414800C803B
:103E9000FCF77CFCA87E012802D16C842C84AC76D3
:103EA00020202221285E695E084303D0E87B04219C
:103EB0000843E87370BD0000600F0020540000202C
:103EC000480200204A020020F8B5734C00226379B2
:103ED000A01D724E0321724D012B63D0802B51D057
:103EE000812B0CD102E0521CD2B200E043781701C2
:103EF0007F194037BF7F9F4202D0092AF3D3C9E020
:103F0000092AFCD201780A23002922D0491E86788A
:103F1000C9B2002E00D00126E427794349191201C5
:103F20008A18114640318D7F4570C97F8170911983
:103F300060310A78C2708A7802710A7942718A798E
:103F400082710A7AC2718A7A0272097B4172E370C5
:103F5000F8BD8178002900D001211201B55C9219C9
:103F600045705578857051188A78C2700A79027147
:103F70008A7942710A7A82718A7AC2710A7B0272E4
:103F8000897BE3E70921017001210A0152194032BE
:103F9000927B4254491CC9B20929F6D9F8BD521C7A
:103FA000D2B200E0437817017F194037BF7F9F42AC
:103FB00002D0092AF3D36DE0092A6BD201780029D7
:103FC00009D0EC79A14241D1491ECCB281780029B7
:103FD0001AD0012719E08178002900D001211201AF
:103FE000B354921983785370C37851188B70027947
:103FF0000A7142798A7182790A72C2798A72027A66
:104000000A73407A8873F8BD0027E4216143491997
:10401000120189180D464035AB778378EB77CD19BF
:10402000C37860352B700379AB7043792B7183793A
:10403000AB71C3792B72037AAB72407A28739019F3
:1040400010225E31FCF7BAF821461FE0491E847841
:10405000C9B2002C00D00124E4264E437519120188
:10406000AD182A46403293778378D3772A19C378DC
:10407000603213700379937043791371837993716C
:10408000C3791372037A9372407A1073082001F097
:10409000A1F8F8BD2170F8BDE40E00208A020020CE
:1040A000600F0020F3B5FD49FE4C0A78FC4985B04D
:1040B000097808230E466779012519432E4302919A
:1040C000069B0396294699400026012A7ED0F64A8F
:1040D0001B019A1894465278012A04D12279002AA9
:1040E00001D0012200E00022002A08D0ED4B012877
:1040F000DB8802D08B43E38009E00B43FBE7002A17
:1041000005D1E84B01281B890AD08B432381E54B5D
:104110005B89002B0ED0002A0CD0002802D009E0C9
:104120000B43F3E7DF4B1B89194203D00022DD4C20
:104130008B43238161468C18DC49A278097804916D
:10414000DB494B7809781B020B43D9490193CB78A3
:1041500089781B020B4300931300FEF7D1FA13FE7C
:104160000BFDFCFBFA8DFEFEFEFEFEFEFEFEFEF9E2
:10417000F8F7FE0001280ED0A07909280AD00A28F5
:10418000FCD02946401E8140C6488F434771C44831
:10419000039901700DE2C348C64BC078E421844600
:1041A000187AA2794843C118C34B00201856BC4B5B
:1041B00002241B7823312343092A0CD00A2A27D052
:1041C000521E9540B7483D43457100E0E6E1B448D2
:1041D0000399017005E26246002A16D001987D23FA
:1041E000B34ADB016430984202D21070000A01E049
:1041F0001370180A507000986430984202D2907080
:10420000000A19E09370180A16E0AB49401C2FE031
:104210006246002A2AD00198A54A6438002802DDA7
:104220001070000A01E01670300A5070009864386F
:104230000028E4DC9670300AD070507813780002C1
:1042400018430870030A4B70D1789278994C090290
:104250001143227AE4235A431219213211710B0AB5
:10426000537101F089FA217A082023E09249401E17
:1042700008708B480370B4E1904FA279797802916D
:10428000491C049139780391491E1300FEF738FA4E
:10429000076505154BA0A795650001287ED10498F8
:1042A000884202DA0298401C01E00398401EC0B226
:1042B000787040E000F08EFF93E10128EED1029883
:1042C000401E002802DD0298401E00E00020C0B21F
:1042D000787006214843C219907951790002084349
:1042E000734C010A20706170D11C127A0B79110293
:1042F0001943A1700A0AE27001F03EFA6D48E42306
:10430000017A7A785943091820310A726178237842
:104310000A021A43017AE4235943091823310A7027
:10432000120A4A7038E00128B8D1207A401EC0B283
:10433000787088429FDC06214843C21990795179F0
:10434000000208435A4C010A207007E0E5E0CCE087
:10435000BDE0F5E004E154E013E128E16170D11C17
:10436000127A0B7911021943A1700A0AE27001F066
:1043700003FA5048E423017A7A7859430918203126
:104380000A726178227809021143027A5A4312189C
:1043900023321170090A5170E17800E0AAE0A27896
:1043A00009021143027AE4235A431218213211718F
:1043B000090A5171017A01207CE70128B4D10498DF
:1043C000C0B278700399884200D17E707878B2E7E5
:1043D0000128344801D0C670EBE0C57001E1012826
:1043E00004D00099019801F0C7F9E2E0207AA17A9F
:1043F00000020843217BA27B0902114301F0E4F98A
:10440000EFE02F4B012812D0A7790021BC461F46B0
:104410006246CA40D20732D0224B0C335A5C002A83
:1044200028D0521E1206120E5A5423D027E0A77924
:104430000021BC461F466246CA40D20709D0194B2C
:104440000C335A5C521C5A543B782A468A40134318
:104450003B70491CC9B20829EDD302213A46535C8E
:10446000002B04D0491CC9B20929F8D39FE0237A54
:104470007B540FE03B782A468A4093433B70491CAB
:10448000C9B20829C4D3237A02213A46545C9C421B
:1044900018D17E540249029A88E00000C900002029
:1044A00063000020000000208A0200201800002085
:1044B00084000020600F002062000020C80D002052
:1044C00004040020491CC9B20929DFD36FE0012888
:1044D0006FD10698FEF7D4F900281DD1A1791020DC
:1044E0000A02217AA37A0A4328E0012803D0069819
:1044F000FEF766FD5DE0A07911270502207A012410
:1045000005430698FEF7BCF900286AD123462A46DF
:1045100038460699FEF742F963E0012849D106982A
:10452000FEF7AEF9002803D00698FEF749FD58E0E3
:10453000A17911200A02217A0A4301230699E9E7A9
:10454000012807D0414902220A704E70404A2023B8
:1045500004990EE03D4902220A70A2794A70F5E7FB
:104560003A4901280D7007D04E708E70384A049970
:104570001023194311701AE0227A4A70A2798A70C6
:10458000F4E7012815D1A0792946401E8140314821
:104590004170217A49008170057022E0042B18D8FF
:1045A000012813D08F4367712B49039A0A700128A1
:1045B00017D02A492A4B0C780020292102464A4369
:1045C000284951184A7B052A29D039E039436171BD
:1045D000EAE72549012801D0CE705BE77322CA7053
:1045E00058E71E491F4D0C78204A1D4F00202921F5
:1045F000414349194B7B052B0BD1002C09D12823B2
:104600005B5C2231D6540E71330A4B71FF2143009B
:10461000F954401CC0B20328E9D307B0F0BD002C08
:104620000ED12822575C114A2231D5550E71320A1B
:104630004A714100CA185570FF225A540C490E5451
:10464000401CC0B20328B8D3E7E70000A80D002043
:10465000180000200000002063000020D20000208D
:10466000180100200D140020B80D00200F010020BB
:1046700012010020F8B57C4AE42497797A487B1E21
:10468000DAB262437A4C861D141940792246774982
:104690002032802856D028DC002851D004285FD052
:1046A00007284ED1704DA87AE97A8646287B6D7B23
:1046B0008446704600020843614609022943002FE0
:1046C00079D0DBB29C4673785372B378D371F778A4
:1046D0001772D71C3870000A7870501C0171090AD3
:1046E000417100201546F61D8DE081282CD08428CC
:1046F00032D0872825D1002F5ED0507A7070D079C3
:10470000B070107AF07020462330417803780902A7
:104710001943090A3171417803780802184370710E
:10472000204621304179037909021943090AB17100
:104730004179037908021843F0710020F61D36E034
:104740000F70F8BD087809E04A4801783170417867
:1047500071708078B070F8BD454880793070F8BDD0
:10476000434800218771082000F034FDF8BD062180
:1047700041436318194620314D7B0F7B2D023D4389
:104780002D0A75704D7B0F7B29023943B170194694
:1047900022314B7B0D7B1B022B431B0AF3704B7B9F
:1047A0000D7B19022943401C3171C0B2361DD179ED
:1047B0008142DCD8F8BD4AE02F4948780A780002E7
:1047C0001043020A32717071C87889780002084378
:1047D000010AB171F071EDE77178B2780F0206212C
:1047E0004143174361180A46203217733F0A577333
:1047F000F278377912023A4322310A73120A401CC6
:104800004A73C0B2361D9842E6D3194A107A604501
:1048100018D1E421484382181046213041790079AB
:10482000090201432332507812780002104300F04D
:10483000A3FF687A002801D0802100E000214220F7
:10484000FCF7C4FF0021082000F0C4FC08E00A4A7D
:10485000030A1070537091700B0AD37000F08CFF34
:104860000020FEF723F9A5E7E40E0020C900002090
:10487000600F0020AC5C000084000020F8B51A49ED
:104880000878012826D119484078002822D1184DEF
:10489000184E2878184C002820D01949194A097850
:1048A0001648C9061278637BC90E174F807B1143E7
:1048B000002B10D008433870082213490120FDF75F
:1048C0001FFA002806D128780121401E2870607B3D
:1048D00048406073F8BD32781043EBE70020607306
:1048E00008703070F8BD000000000020C1000020FA
:1048F0000200002001000020540000205A03002084
:104900000500002019000020980D0020F8B5394F4F
:10491000394B3846C27979791D46D000BC1D4A35DD
:10492000C018802937D00BDC3E46337AB67A00298E
:1049300040D001291AD0022928D0032906D14EE0FF
:10494000812906D082291ED0832942D005203870C3
:10495000F8BD407BA0706078C000C018807BE0701C
:104960006078C000C018C07B2071F8BD4373E17847
:104970008173C6731046FCF791FA08E00021082005
:1049800000F028FCF8BD807CA070F8BD837420780E
:104990000028F3D1F8BD007BA0700020E0706078A3
:1049A000C000C018007C20716078C000C018407C36
:1049B0006071F8BD11490B70590003735918104B01
:1049C000C91856540674617941741046FCF766FAAA
:1049D000D4E714222946A01CFBF7F0FBF8BD002603
:1049E0001422A11C2846FBF7E9FB761CF6B2032E25
:1049F000F6D3CCE7E40E0020600F0020DC0000209E
:104A0000EC130020F8B5624F3946CA798B79787972
:104A10001502CE7ABC1D1D43097B0091802878D0F9
:104A200007DC801E0300FDF76BFE052E151D486197
:104A3000140081380300FDF763FE0604210C1D33CA
:104A4000860CF878221D001FC3B268BAA11CFEF7BD
:104A50002DFCF8BD68BAFEF771FF0128F9D00320DC
:104A60003870F8BD207800F039FE0021202000F0D9
:104A7000B1FBF8BDFEF742FC2070F8BD68BAA11C7E
:104A8000FEF742FC09E0A01CFBF7F9FB00BA010AA3
:104A90000902314368BA00F027FE0028DFD0F8BDD4
:104AA000A01CFBF7ECFB00BA010A0902314368BA0B
:104AB000E21D009BFEF78AFBF8BDA01CFBF7DFFBA5
:104AC00000BA010A0902314368BAE21D009B00F0F6
:104AD000FDFC3049022803D00022002802D003E068
:104AE00001202EE0032038700A70F8BDA07800285D
:104AF000FBD1E078022600281ED001280AD0022827
:104B00000CD00328F1D168BAFDF7F0FE002816D0CA
:104B100012E01CE020490120087011E01F492048E4
:104B2000FBF7A9FB642403E0E1B2202000F052FB74
:104B3000641EF9D2FEF7F4FA1A480670F8BD032095
:104B400018490870F8BD17480078A070F8BDFEF746
:104B500015FC010A21706070FEF712FC010EA170B5
:104B6000010CE170010A21716071FEF72BFB010E4F
:104B7000A171010CE171010A21726072FEF704FC5F
:104B8000010EA172010CE172010A21736073F8BD7C
:104B9000E40E0020440000201E00002081050000DB
:104BA000200400201D000020F8B5484C20780007A4
:104BB0004ED54748407800284AD146484649807B30
:104BC0000978474A08434549127809780023C906FD
:104BD000C90E114308434349444A087042487E269F
:104BE0000078C8700020105E414AF643D35E8127EA
:104BF000C5B2DAB2B04201DA4F7005E07F2802DDBB
:104C00007F264E7004E04D70B04201DA8F7005E0EF
:104C10007F2B02DD7F268E7000E08A700D710012FE
:104C200048718A711812C871314D304E00202880A9
:104C30002949308008702C49082208702949012030
:104C4000FDF75EF8002803D12078F7210840207096
:104C50002078C00715D01E48C078002811D1254DF6
:104C60000721681CFEF7EAF903202870092229466B
:104C70000220FDF745F8002803D1207840084000C5
:104C800020702078400720D5114EB07800281CD124
:104C9000092219490220FDF733F8FB25002802D12B
:104CA000207828402070207841070ED5B17800295F
:104CB0000BD12840207009220F490220FDF720F86F
:104CC000002802D1207828402070F8BD180000206C
:104CD000C10000205A030020190000200500002018
:104CE00001000020480000201A00002020000020C1
:104CF00022000020B80D0020700D0020F8B5564F9E
:104D0000564CF87B400745D06078002842D1544883
:104D1000564A817B5348127800787E2601435248D8
:104D2000F6430078C006C00E104301435048797125
:104D30000170B97BC1702022BA5ED5B2B24201DAED
:104D4000812102E07F2A02DD7F21417000E0457071
:104D50002221795ECBB2B14201DA812602E07F29BD
:104D600002DD7F26867000E08370057112124271A9
:104D700083710912C1710020B873788438840822C5
:104D80003B490120FCF7BCFF002803D1F87BC00899
:104D9000C000F873F87B400619D5A078002816D11A
:104DA000FEF7D2F93249092210310220FCF7A8FFA0
:104DB00000280CD1F87BBF210840F87300202C4A52
:104DC000014610321154401CC0B21028FAD3F87BAF
:104DD00000071AD5E078002817D12648244D00781E
:104DE0002035002803D10721681CFEF727F903208E
:104DF0001F492870092220310220FCF781FF00287A
:104E000003D1F87BF7210840F8731B4D2878C006C2
:104E10000ED5A07800280BD11549092210310220A7
:104E2000FCF76EFF002803D12878EF210840287096
:104E3000287880060ED5A07800280BD10C490922CD
:104E400010310220FCF75CFF002803D12878DF2115
:104E500008402870F8BD000054000020C100002068
:104E60005A03002019000020050000200100002046
:104E7000980D0020C90000201800002070B5154DC5
:104E80002878002825D0144C0120207020790300B8
:104E9000FDF736FC05040D07100A1600FFF7EAFBC4
:104EA0000AE0FFF711F807E000F026F804E0FFF74A
:104EB0002DFD01E0FFF7A6FD2078012802D003E0D8
:104EC000052000E00220207004480078002800D16E
:104ED000287070BDD2000020E40E002044000020A5
:104EE00010B5FCF74BFAFFF709FFFFF75DFEFFF780
:104EF000C5FC00F059F810BDF8B5234A234E50798F
:104F0000941D234F234B244D802810D008DC1146DC
:104F1000897900280FD0012816D0022804D124E076
:104F200081280CD082281BD003201070F8BD307867
:104F30002070387817E0317060783870F8BD1878D4
:104F40002070164800780EE0A0781870134AE178B7
:104F50001170134A1378134A1278FBF757FCF8BD07
:104F6000A87A2070E87A6070F8BD0029FCD0A97298
:104F70001120FCF72BFC20780328F5D16178E97229
:104F80006320FCF723FCF8BDE40E0020CF000020D6
:104F9000CE0000205C000020800F00205D0000207B
:104FA0005E0000205B00002070B50B4C002560788F
:104FB000002806D02078002803D10721FFF772F8D7
:104FC0006570E078002806D0A078002803D1082179
:104FD000FFF768F8E57070BD8800002070B545499E
:104FE00000200870444D287800287DD04349098866
:104FF00000297ED1800717D51A214148FDF782FD8F
:105000003F493F4A8876000AC8761C200870002075
:1050100048700B2001210003FBF774FC002803D12A
:105020002878FD21084028702878000712D53549D6
:105030003548FDF767FD3549334A0877000A487758
:105040001721C802FBF75EFC002803D12878F7215E
:10505000084028702878C00613D558212C48FDF741
:1050600051FD2B492A4A40310876000A4876022130
:105070002848FBF747FC002803D12878EF21084097
:1050800028702878400722D50920234CC0012070C1
:10509000000A607021492046FDF734FD2049087759
:1050A000000A48776078217800020843810608D01A
:1050B0008109491C184A1B48FBF724FC002802D030
:1050C00005E08109F6E72878FB210840287016489A
:1050D000007803280DD116491448C863BFF34F8FD9
:1050E00015491448C86000E003E0BFF34F8F00BFCC
:1050F000FDE770BD94000020B4000020B600002041
:10510000440F00207F0500002004002083090020B8
:10511000500E0020C0BD0000600F00207E04000083
:10512000C213002080B00000C9000020AAAAAAAAC9
:10513000C04700200400FA0500ED00E0F8B5024683
:105140000120C007C4170E461546914201D23546CC
:1051500016460F4F721B02D117E040086408024246
:10516000FBD00C493868FBF7ADF80B4A51430B4AAA
:105170005043081A3860002802DC0949401838609A
:1051800020404019B042ECD8F8BD0846F8BD0000F8
:10519000500000201DF30100A7410000140B000087
:1051A000FFFFFF7F0B4610B501461846FBF706F8D8
:1051B00010BD0000044A11700449802208700448A0
:1051C000C17B1143C1737047D1000020D000002083
:1051D00054000020FCB52E4A8E4613780121194355
:1051E0002C4D8C46022829D0042829D0714601274D
:1051F0008F401646019736780427274C3E43009689
:105200002178019F0E463E43F6B208281CD00027A5
:1052100001281ED0102820D0202824D013461B7827
:105220001026334340282FD0802806D10420034382
:105230001F201370014321702F80FCBD117024E0EA
:10524000022003431370FCBD009810706420288076
:1052500007E0009810702670EEE7604604210843CE
:1052600010702670FCBD0820034313706420288052
:105270007046C00872460019530741785B0F01223F
:105280009A4011434170FCBD137064202880FCBD1E
:10529000B4000020B6000020FF0D0020FEB56348DA
:1052A000644C017862484029C678407901D3009067
:1052B00011E05F498B780D79F11A401BC0B2009064
:1052C000CEB200200121062242431219401CC0B276
:1052D00051710928F7D31E2E00D91C2600981E28CC
:1052E00001D91C2000905448016802688907C90F41
:1052F0001204D20F520011430268D207520F114319
:105300004E4A136812689B07DB0FDB001943D20774
:10531000D20E1143026800689206D20F5201114367
:105320000005C00F80010143002501912C46062095
:10533000404A4443135D980713D5A018817800298B
:105340000CD01746019A4378EA40D207D20F934215
:1053500016D0491E81700021C1705CE0FD20034021
:1053600013550198E840C00715D0A7187878002891
:1053700059D0D80737D0002010550120B8704AE026
:10538000C178491CC9B2C170B14244D3395DFD2016
:10539000014039553FE0A7187878012843D0D8B2AA
:1053A000C10718D0787901281AD00020B978491C93
:1053B000C9B2B97081422ED929460120FEF772FE8A
:1053C00001201C497870085D022210430855BE7008
:1053D000002078711FE0012108431055B9701AE0D0
:1053E00013488078E2E77879012819D00020B9784D
:1053F000491CC9B2B97081420DD929460020FEF777
:1054000051FE00220B4B7A70195D022001431955A1
:105410000098B8707A716D1CEDB2072D86D3FEBD71
:1054200003480079E3E70020A8E7000040020020DD
:10543000600F00205402002000800440004004401F
:1054400010B500F0AFFA1248426A20210A434262C6
:1054500000BF00BF00BF00BF00BF00BF826A0A4399
:1054600082625A213A20FCF7B1F93720FDF7DAFDC4
:105470000220FCF77BF90320FCF778F90420FCF705
:1054800075F90520FCF772F90620FCF76FF910BDDD
:105490000040044010B500F0F5F910BDF8B5012545
:1054A000094C471809E04105090E43075B0F625C90
:1054B0002E469E4032436254401C8742F3D800215E
:1054C0004020FFF787FEF8BD500E0020FFB50746CD
:1054D0007F4883B0016A049800261C4681427DD132
:1054E0003846FDF795FE05463846FDF7B9FE0746F6
:1054F00004980119B94202D90498381AC4B2E819BB
:1055000002226946FFF74EFE002D68D0002FFCD026
:10551000684600886F49884201D000285FD16C4EF0
:105520002146B2890598FDF707FBB081B0692118C3
:1055300040290AD26849224608180599FAF73EFE22
:10554000B0690019B061012645E040210A1A62499C
:105550005F4E08180599FAF731FEF0695E4A80013E
:1055600040191021FBF7E4F900284FD000265849D4
:105570004023C869401CC861019088690599181AC0
:10558000221A402A46D9411840225348FAF716FEFB
:105590000198514A800140191021FBF7C9F90028F0
:1055A00036D000264A484A49C069401CC8610846AE
:1055B00081694020401A0599221A41184648403115
:1055C000403AFAF7FBFD424881694020401A211A0F
:1055D0003F48403981610498001901E06EE034E0F1
:1055E0000190B84228D300BF00BF00BF3849886986
:1055F000821C402A2CD8384A0E461218317B117072
:10560000717B51703E21091A901C48E00126AEE7DB
:105610000126C7E741183048FAF7D0FD2C488169C8
:105620004020401A211A2A48D4E7002128484A1E5F
:10563000C161816182810162002E06D00198B84269
:1056400003D22348016A09190162304607B0F0BD50
:1056500040210A1A20491E4E081831460C31FAF72B
:10566000ADFDF0691C4A800140191021FBF760F97B
:10567000307E3E38C0B2F070F169491CF161022100
:105680000A1A314650000C3141181348FAF796FDBA
:10569000F0783E210222091A121A0F481018FAF760
:1056A000EAFDF0690C4A800140191021FBF740F92E
:1056B000002801D00026B8E70126B6E700210448FB
:1056C0004A1EC161816182810162C170BDE7000033
:1056D00018000020FFFF0000100E0020014988760E
:1056E0007047000080090020F3B581B001981F4980
:1056F0000027401E884213D80198FEF7E1F90028E0
:105700000ED11B4D288F64280AD21A4E00240E2079
:105710006043305A400405D0641CA4B2642CF6D314
:105720003846FEBD0298801CFEF724FB0200F7D02D
:1057300020460E214843315A019BC90B5B04C90323
:105740005B0C19433152811948784006400E48706D
:105750004A80091D0298FAF7A3FD288FE1B2401C88
:1057600028872020FFF736FD0127D9E7FE7F0000BC
:10577000600900202004002070B5054611480A4643
:105780000580418032211046FAF792FD0446010A55
:105790000F20FCF71BF8E1B20E20FCF717F83221BE
:1057A0002846FAF785FD0446010A2F20FCF70EF87B
:1057B000E1B22E20FCF70AF800210220FFF7FAFCE4
:1057C00070BD00008400002070B50A4605463221F5
:1057D0001046FAF76DFD0446010A0F20FBF7F6FFAD
:1057E000E1B20E20FBF7F2FF32212846FAF760FD06
:1057F0000446010A2F20FBF7E9FFE1B22E20FBF758
:10580000E5FF00210220FFF7D5FC70BD70B5002434
:105810002A20FBF7ABFF052811D015211320FBF739
:10582000D5FF0D20FDF7FEFB2620FBF79FFFBE28CE
:1058300005D12520FBF79AFFEF2800D10124802114
:105840003D20FBF7C3FF0E4D0020287200F0AAF8A0
:105850000120FDF7E7FB287A372800D900243D20F6
:10586000FBF784FFC02801D0002CEFD100213D20A0
:10587000FBF7ACFF04211020FBF7A8FF204670BD0A
:105880003E0200201FB50020184C009001900290AD
:105890000390607A002805D1FF215020FBF796FF86
:1058A0000120607269465020FBF70AFF69460878BC
:1058B00020704978617069468979A1706946C97913
:1058C000E1706946097A21716946497A61716946D0
:1058D000897AA1716946C97AE171000605D56846E1
:1058E0004088608168468088A0811FBD3E020020FC
:1058F00010B500211020FBF769FF1D211320FBF7D5
:1059000065FF0A20FDF78EFB18211320FBF75EFFD1
:10591000C820FDF75FFB0123044A0549E220FBF79D
:1059200077FFC820FDF756FB10BD0000FE0F0000FA
:105930004863000010B500246420FDF773FB00F0FD
:1059400031F8FFF77DFDFFF7D3FFFFF75FFF641C22
:10595000E4B2002801D1062CF1D30948E422017AEF
:1059600051430A1810462130417900790902014358
:1059700023325078127800021043FFF7FDFE10BD6D
:10598000600F0020054804490160054A002191602C
:105990000149FE31816070470000FA5A0000014061
:1059A00000E0054002490148C8607047AA55FA5A0C
:1059B0000000014070471201000200000040241066
:1059C000202101010102000105010902A1010901D3
:1059D000A100050919012905150025019505750185
:1059E00081029501750381010600FF0940094115F7
:1059F00081257F95027508810205010938158125E9
:105A00007F7508950181060501093009311600806E
:105A100026FF7F751095028106C0050C09001580D0
:105A2000257F95407508B102C0050C0901A10185CB
:105A30000119002A3C021500263C027510950181CF
:105A400000C005010980A101850219812983150083
:105A50002501950375018102750195058101C00538
:105A6000010906A1018503050719E029E7150025AD
:105A700001750195088102950175088101950575EB
:105A800001050819012905910295017503910195F8
:105A9000067508150026FF00050719002AFF00817A
:105AA00000C006A0FF0901A1018504090215002616
:105AB000FF00957F7508B102C006FFFF0901A10133
:105AC00085050901150026FF00950375088102C0B0
:105AD000050C0901A101850115002501952075011D
