:020000040000FA
:1000000050170020910100009501000097010000A9
:1000100000000000000000000000000000000000E0
:100020000000000000000000000000009901000036
:1000300000000000000000009B0100009D01000086
:100040009F010000291C00000000000000000000CB
:1000500000000000000000009F0100000000000000
:1000600000000000000000009F01000000000000F0
:100070009F0100009F0100009F0100009905000002
:10008000D506000000000000000000000000000095
:100090000000000000000000000000000000000060
:1000A0009F0100009F0100009F0100000000000070
:1000B0009F010000111200009F0100009F0100003D
:1000C00000F002F800F030F80CA030C8083824180E
:1000D0002D18A246671EAB4654465D46AC4201D180
:1000E00000F022F87E460F3E0FCCB6460126334282
:1000F00000D0FB1AA246AB46334318472C6D0000D4
:100100004C6D00000023002400250026103A01D386
:1001100078C1FBD8520700D330C100D50B607047BF
:100120001FB51FBD10B510BD00F072F91146FFF7E5
:10013000F7FF03F0E3FB00F08AF903B4FFF7F2FFE7
:1001400003BC00F091F9000001480160014800473C
:10015000240006400103FF1F70B505460C461646F5
:1001600002E00FCC0FC5103E102EFAD2082E02D39B
:1001700003CC03C5083E042E07D301CC01C5361FAE
:1001800003E021782970641C6D1C761EF9D270BDC5
:1001900006480047FEE7FEE7FEE7FEE7FEE7FEE76C
:1001A00003480449024A044B70470000C1000000A4
:1001B000501500205017002050150020F8B5042AD3
:1001C0002CD3830712D00B78491C0370401C521E9D
:1001D00083070BD00B78491C0370401C521E830709
:1001E00004D00B78491C0370401C521E8B079B0FD8
:1001F00005D0C91ADF002023DE1B08C90AE0FFF77B
:10020000ABFFF8BD1D4608C9FD401C46B4402C4359
:1002100010C0121F042AF5D2F308C91A521EF0D4D6
:100220000B78491C0370401C521EEAD40B78491C01
:100230000370401C012AE4D409780170F8BD01E084
:1002400004C0091F0429FBD28B0701D50280801C42
:10025000C90700D00270704700290BD0C30702D035
:100260000270401C491E022904D3830702D5028074
:10027000801C891EE3E70022EEE70022DFE7037817
:10028000C2781946437812061B0219438378C07856
:100290001B04194311430902090A00060843704769
:1002A000020A08704A70020C8A70020ECA70704707
:1002B000002203098B422CD3030A8B4211D3002363
:1002C0009C464EE003460B433CD4002243088B423D
:1002D00031D303098B421CD3030A8B4201D39446CA
:1002E0003FE0C3098B4201D3CB01C01A52418309BD
:1002F0008B4201D38B01C01A524143098B4201D377
:100300004B01C01A524103098B4201D30B01C01AA1
:100310005241C3088B4201D3CB00C01A524183081B
:100320008B4201D38B00C01A524143088B4201D348
:100330004B00C01A5241411A00D2014652411046A8
:1003400070475DE0CA0F00D04942031000D340421D
:10035000534000229C4603098B422DD3030A8B4253
:1003600012D3FC22890112BA030A8B420CD38901F1
:1003700092118B4208D3890192118B4204D38901D7
:100380003AD0921100E08909C3098B4201D3CB0115
:10039000C01A524183098B4201D38B01C01A5241CA
:1003A00043098B4201D34B01C01A524103098B42CE
:1003B00001D30B01C01A5241C3088B4201D3CB00B9
:1003C000C01A524183088B4201D38B00C01A52419C
:1003D000D9D243088B4201D34B00C01A5241411A73
:1003E00000D20146634652415B10104601D34042A1
:1003F000002B00D54942704763465B1000D3404252
:1004000001B50020C046C04602BD70477047704726
:10041000754600F025F8AE46050069465346C0080B
:10042000C000854618B020B5FFF7BAFE60BC0027B3
:100430004908B6460026C0C5C0C5C0C5C0C5C0C5B0
:10044000C0C5C0C5C0C5403D49008D46704710B508
:100450000446C046C0462046FFF76FFE10BD0000B0
:1004600000487047EC14002001491820ABBEFEE79D
:1004700026000200704770B58C180578401C6B0789
:100480005B0F01D10378401C2A1106D10278401C71
:1004900003E00678401C0E70491C5B1EF9D12B0747
:1004A00005D40023521E0DD40B70491CFAE70378C3
:1004B000401CCB1A921C03E01D780D70491C5B1C7C
:1004C000521EF9D5A142D8D3002070BDF8B52A4EEE
:1004D000307801281CD1294800250078284C0128B3
:1004E0001ED1284A1068284FC3072046408B274951
:1004F00007D11368DB0BDB0703D112685208D20760
:1005000007D02279012A0BD0B84201D20D70657054
:10051000F8BD62780123002A1BD0B8421CD30D70AD
:100520001B48002105705520A0704A2000F086FF6E
:100530000A201021A071E17102226271217265729C
:100540000B4600F051F9658365702079002805D0CD
:100550000FE0658363700D700B70F8BD03210A20F6
:1005600004F0D2FB0B4905200870A07B082108434A
:10057000A07335702571F8BDC5000020BF000020B4
:10058000540000200080044088130000E400002094
:10059000C4000020880D002010B5012080074069AC
:1005A000C00754D02A48416AC90750D0012181624E
:1005B00028490888401C088027490888401C088072
:1005C00026480178491C017025480178491C0170B2
:1005D00024490888002801D0401E08802249088844
:1005E000002801D0401E088020480168C9070BD1AF
:1005F0000168C90BC90707D100684008C00703D1CB
:100600001B490888401C08801A480078012803D13B
:1006100019490888401C08801849194A08689042FE
:1006200001D2401C086017488068C0070FD01648E8
:10063000007802280BD315490888401C088002F076
:10064000A5FE13490888002801D0401E088010BD6F
:1006500080000040C8000020E6000020E8000020E4
:1006600026020020C2000020B200002000800440CA
:100670006E00002069000020880000208C0000200F
:10068000FFFF0900980E0020C0000020E2000020BB
:100690002C02002010B50E48016840221143016071
:1006A0002F21100681607D21C90001620321416173
:1006B0000221016001688907FCD40168012211430D
:1006C00001600F2001F05CFE0F2001F071FE10BDF3
:1006D00000E0054000200249C043886270470000E6
:1006E000802000401C4801688022114301601B4AA1
:1006F0002F209060194BFF2080331860002010627B
:1007000050629062D0621063506314494031886136
:10071000C8610862486288628860C860C86208630D
:1007200048638863C8630E481862D861D069491469
:100730000843D061106802210843106010688007E8
:10074000FCD41068012108431060080405490860C2
:10075000054908607047000000E0054000200040A7
:100760003FCCFF0080E200E000E100E030B51C4B30
:100770001C49586A0978FF2442185A62187F997FE9
:100780000134802800D9201AC0B2802900D9611A0A
:10079000134DC9B22C352C88A408641C44436888C6
:1007A0008008401C4843996A201840189862197DB7
:1007B000491CC9B21975102911D11103090C1984EA
:1007C0000003000CFF223F3200211883904202D91F
:1007D0000120187000E0197019755962996230BDD6
:1007E000540000202002002010B50C4601462C20A9
:1007F00000F024FE21462B2000F020FE10BD00005A
:10080000F8B5394C206821688007C00F0904C90F6A
:10081000490008432168354FC907490F0843396823
:10082000C907090F084339688907C90F0901084337
:1008300021688906C90F4901084321680422090576
:10084000C90F890108432A4901262A4D272810D0BB
:1008500063280AD0652804D066280FD12E7008209E
:1008600001E002202870887108E0032028708A7156
:1008700004E02A708E7101E004F098FE206821687F
:100880008007C00F0904C90F490008432168C90740
:10089000490F08433968C907090F084339688907B0
:1008A000C90F0901084321688906C90F4901084396
:1008B00021680905C90F89010843C0434006DBD1FF
:1008C0002878002807D00021082004F02DFA0A49D2
:1008D00064200870F8BD09490320087008480168C1
:1008E00031430160F8BD0000008004400040044036
:1008F000080F0020B4000020CB000020D40000200E
:10090000D000002070B5044616460D4601200AE0CE
:1009100004F04CFE32461021204600F007F8C0B229
:100920004034002801D1AC42F2D370BD0B494A6873
:1009300004239A434A6002228A6008618868402240
:100940001043886000BF4868C007FBD14868400773
:1009500001D50120704700207047000000200640AC
:10096000F0B50746002416460D4601200BE0A00115
:100970008219C019102100F009F8641CC0B26D1E64
:10098000E4B2002801D1002DF1D1F0BD30B5114BFA
:100990005C680425AC435C6001249C60186100BF66
:1009A0005868C007FBD103E001CAD86000BF491EE8
:1009B0000029F9D1986840210843986000BF586821
:1009C000C007FBD15868400701D5012030BD002089
:1009D00030BD00000020064010B5104C2078A12842
:1009E00008D10F4841690122D202114341612079A7
:1009F000002803D0002001F01DF810BD0848803801
:100A0000017C002002F092F920690121C90308430A
:100A100020610121002000F089FF10BD980E002008
:100A2000CC03002010B5104C2078A12817D10F4816
:100A30004069C1040E4801D4012141742179012982
:100A40000DD8417C002002F071F920690121C90311
:100A5000084320610121002000F068FF10BD002044
:100A600000F0E8FF10BD0000980E0020CC0300202D
:100A70004C03002010B515480178A1291FD18168C9
:100A800001291CD10179C078002902D0012910D098
:100A900015E0012804D0022805D0032806D00EE076
:100AA00000F03AF810BD00F05FF810BD00F012F849
:100AB00010BD0749497C012901D1012803D000203C
:100AC00000F0B8FF10BD00F03BF810BD980E0020FC
:100AD0004C03002010B50C48C178032905D10179D9
:100AE000002902D18078002804D00021084600F0B7
:100AF0001DFF10BD054940200860064904480860F4
:100B000001F07EFB10BD0000980E00209C0000202C
:100B1000AC0E00209800002010B5074900200860A6
:100B2000064801690122D203114301610821002016
:100B300000F0FCFE10BD00009C000020980E00207C
:100B400010B5074900200860064801690122D20358
:100B5000114301610521002000F0E8FE10BD0000F6
:100B60009C000020980E002010B508480178002055
:100B700002F0DCF8064801690122D2031143016149
:100B80000121002000F0D2FE10BD00004C03002027
:100B9000980E002010B50F490878212816D1086951
:100BA00001221204104308610B4842690123DB0251
:100BB0001A4342610879012808D8C8780649803963
:100BC00008740021084600F0B1FE10BD002000F0BE
:100BD00031FF10BD980E0020CC03002010B5134A41
:100BE000107821281DD11248416901231B031943A4
:100BF00041611179012914D89178002904D1436900
:100C00000324A402A3434361094880384174106956
:100C100001210904084310610021084600F086FE06
:100C200010BD002000F006FF10BD0000980E00204F
:100C3000CC03002010B50D48017821290FD101798E
:100C4000C078002902D0012907D008E002280AD084
:100C5000032804D100F00CF810BD022803D00020B6
:100C600000F0E8FE10BD00F00FF810BD980E002057
:100C700010B50449012088740021084600F056FE92
:100C800010BD00004C03002010B508480169012286
:100C900012041143016106484169D21111434161B7
:100CA0000021084600F042FE10BD0000980E002012
:100CB000CC03002070B504780A4D002C02D02E78A9
:100CC000A41B04700878984203D02A788018087012
:100CD00070BD1078401CC0B210700328F8D10020FD
:100CE000107070BDCD000020084A10788C2809D201
:100CF0000749084B095C1970074B401C1970074BDA
:100D0000197000E00020107070470000D50000202E
:100D10009C5D0000D6000020D7000020D8000020F5
:100D200030B51B4C1B4D2078C00701D000220DE0D0
:100D30002878012806D0022807D0032809D00428E3
:100D40000FD109E00022114608E0FF220021002017
:100D500005E00022FF21FAE7FF221146FF2000F004
:100D6000F7F82078401CC0B2207018280FD300205C
:100D7000287020700848CE22017A5143081807498C
:100D8000007B08700648012201681143016030BDF4
:100D9000B5000020B4000020080F0020D40000207F
:100DA000D00000200848CE22017A51430818074994
:100DB000007C087006490020087006490870064942
:100DC0000870064908707047080F0020CB0000200B
:100DD000D5000020D8000020D7000020D600002039
:100DE00000B5FFF7DFFF00F047F800F08DF800BD19
:100DF00010B5A8B0A02219496846FFF7ADF9184907
:100E0000184A0868184B040608D58024A0430860D7
:100E1000012018704F20107028B010BD11780029E3
:100E2000FAD04C006846005B104C800A2070104CD1
:100E3000491E20700F4CC9B220700446044304437D
:100E400000201170002C06D02829E5D2197801293C
:100E5000E2D11870E0E71070F8E70000FC5C0000D9
:100E6000D0000020DD000020CC000020DE000020AB
:100E7000DF000020E00000200A48CE22017A514322
:100E800008180949007C087008480078002807D134
:100E90000749087007490870074908700749087032
:100EA00070470000080F0020CB000020CC0000207D
:100EB000DD000020E0000020DF000020DE00002038
:100EC00000B500F055F80C48007800280AD0012839
:100ED0000DD0022805D1FF23074A08490848FFF72B
:100EE000E9FE00BDFF23044A06490448F7E7FF2353
:100EF000014A03490348F2E7D9000020DA00002044
:100F0000DC000020DB0000200A49FF2008700A49AD
:100F1000002008700949CE23087009490A7A5A430B
:100F20005118084A097C1170074A052111700749B8
:100F300008707047DA000020DB000020DC00002091
:100F4000080F0020CB000020CD000020D900002099
:100F500030B5064D01235C001C19285564195B1C33
:100F60006170DBB2A270062BF5D330BD1A130020DE
:100F70001648CE22017A514308182030007A144ACC
:100F800081001448535C036289184A784262897868
:100F900081621149CA78C2620A7902634A7942635E
:100FA0000C488A7940304263CA7982630A7AC26304
:100FB0004A7AC260826142628A7AC262C261826295
:100FC000C97A01630162816070470000080F002048
:100FD000B8580000002000401A130020F8B56948F6
:100FE000002602886849097808318A427ED30021A8
:100FF000018066490868C20704D0400840000860C4
:10100000FFF7EEFE62480078002802D0FFF788FE66
:10101000B4E0FFF769FEFFF7EBFEFFF751FF012594
:101020005C48CE22017AF70051430918CC19217B84
:101030000B0001F097F9059478045C449C00607CF7
:10104000002811D0FF21002003F022FE694608701D
:10105000FF21002003F01CFE69464870FF2100209C
:1010600003F016FE694605E0607B69460870A07BC8
:101070004870E07B88704748CE22017A474B514345
:1010800008186A461178C019434A807C1278414397
:1010900051430A0C690069185A546A46404C527808
:1010A000247842436243120CC9184A706A46927807
:1010B00050433C4A12785043000C887057E03A4A3B
:1010C000A07C617B1278414351430A0C6900334B89
:1010D00069185A54354FA27B3F7842437A43120C29
:1010E000C9184A70E27B5043314AE3E748E031488F
:1010F000A47C0078FF216043FFF7DAF869006F18DD
:101100002649C8552C48FF2100786043FFF7D0F8E6
:1011100022497F1878702948FF2100786043FFF743
:10112000C7F8B87023E0607BA77CFF217843FFF706
:10113000BFF869006918194A00915054A07BFF213B
:101140007843FFF7B5F8154A00998918009148705F
:10115000E07BFF217843FFF7ABF80099ADE768002B
:101160000E4A002128181154801841708170761C95
:101170006D1CF6B2EDB2032E00D251E7FFF7F8FE78
:10118000F8BD0000C8000020CB000020D0000020E7
:10119000B4000020080F0020D60000201A13002001
:1011A000D7000020D8000020DE000020DF00002053
:1011B000E0000020DA000020DB000020DC0000203E
:1011C00010B5B6213B2000F039F9322001F09EF82D
:1011D0000B48416A2022114341620004016849081A
:1011E0004900016007480168490849000160054954
:1011F0002A208031486105490348086010BD00007D
:1012000000400440002000400000FA5A0000014065
:1012100010B51D2001F0C0F80B4801698A070B4981
:101220000DD50B4A0A62026901239B041A4302612D
:10123000084A88031060BFF34F8FBFF36F8F1820E9
:10124000086203F0A7FE10BD980E00200080044045
:101250002380000080E100E002480168024A114357
:1012600001607047002004403FC007000548016846
:1012700049084900016004480168012212039143B2
:101280000160704700C0014000E005400748016868
:101290000122120311430160054801680122114334
:1012A00001600168C02211430160704700E0054001
:1012B00000C0014010B51B48016801221203114310
:1012C0000160194801680F2212029143072212029D
:1012D00089180160016808229143016001680222B7
:1012E0009143016001680422914301608168090A09
:1012F00009020B318160062141600168120411432B
:1013000001600A494B6A202213434B620368C024E0
:10131000234303604B6813434B6001680122114370
:10132000016010BD00E0054000C0014000400440E5
:10133000F8B5284D0C462968C02739432960264E48
:10134000B16A20221143B162E861E868C006FCD4AA
:10135000E869694608700C2000F0F8FFFF20E8619A
:10136000E861E861E861E861E861E861E861E9682D
:10137000C906FCD4E9684907FCD4E9692170E96928
:101380006170E969A170E969E170E9692171E96950
:101390006171E969A171E969E171296839432960DD
:1013A000E861E861E861E861E868C006FCD4E868E3
:1013B0004007FCD4E8692072E8696072E869A072AD
:1013C000E869E072706A202108437062042000F02E
:1013D000ADFFF8BD00C0014000400440F8B5154C19
:1013E0002168C02211432160134DA96A2026314390
:1013F000A962E061E068C006FCD4E0696946087053
:10140000142000F093FFFF20E061E068C006FCD4E8
:10141000E0684007FCD4E06969460870032000F0EA
:101420008FFF686A30436862162000F07FFF6946CC
:101430000878F8BD00C001400040044038B50E4CAB
:10144000A26A20252A43A262802210430B4AD0615F
:10145000D161D068C006FCD4D06969460870D069F3
:101460000870032000F06CFF606A28436062162059
:1014700000F05CFF38BD00000040044000C00140A7
:10148000FFB581B004992027224E002904D00129FC
:1014900013D0022905D102E0B16A3943B1620221B9
:1014A000B16280211C4D0843E861E868C006FCD4A5
:1014B0001E2000F045FF00240DE0B16A3943EFE73C
:1014C0000298005DE861E868C006FCD41E2000F0C8
:1014D00037FF641CA4B203988442F1D3E868C006C5
:1014E000FCD41E2000F02CFF0498002804D0012812
:1014F0000CD0022805D102E0706A384370620220E5
:101500007062162000F012FF05B0F0BD706A38431B
:10151000F6E700000040044000C0014010B5214A39
:10152000D068214CC006C00F04D0002807D07D2011
:10153000000203E01068012801D11C4820601069F6
:101540004007400F030000F00DFF080507090B0DD1
:101550000F11131401210CE002210AE0042108E01C
:10156000082106E0102104E0202102E0402100E0F3
:1015700080212068FEF79CFE0D4A0E4920609042B3
:1015800006D90D480860401C08600B48093007E088
:101590000A4A904202D90848401E01E00648001F4E
:1015A000086010BD0000064030020020006CDC0224
:1015B00000366E01002006400400FA5A001BB700F6
:1015C0000D480C490160491C01600A49093101605C
:1015D0000A48012101608168C907FCD00021C1606F
:1015E000C1684906490FFBD10169C908C9000161F9
:1015F000704700000400FA5A002006400000064030
:1016000010B5FFF747F8FFF76DF810BD70B51A4D2C
:1016100028784406640E000602D5002000F00AFA7D
:10162000002C1AD0022C17D1A878002814D12879C0
:1016300000224006400E114BE103002817D002287B
:101640000AD8AC68012C07D11A54286908432861CC
:101650000021084600F06AF970BDA8780128FBD186
:10166000286980218843286128690549EEE72869AF
:101670008006F1D51A70E8E7980E0020910000204E
:10168000000101000349CA6B012383409A43CA63E6
:101690007047000000C005401B06120413430902F6
:1016A0000B43184370470000034801690348C840D2
:1016B000401EFDD27047000000000640DC0500001F
:1016C000034801690348C840401EFDD2704700002E
:1016D000000006408038010070B501201D4E8005D5
:1016E000B0601D4DA87C022815D10020A87468693F
:1016F0001A4988420DD1A8691949884209D10024A4
:10170000A000002101F012FB641C402CF8D3FEF76E
:101710001BFD0420A874134C2069134D400609D505
:101720002069402188432061207BF060002000F088
:1017300081F907E0E088002808D02069C00305D4BB
:1017400000F05EFD2069A843206170BD002000F01C
:1017500071F970BD00C005404C030020AA55A55A80
:10176000FF0033CC980E002000000100F8B50121E5
:101770003F48490581603F4EB07C3F4F01281CD057
:1017800034468034606980050ED56069091388434A
:101790006061002001F0B8FA3868000A30706069B2
:1017A0000121490308436061344C2069000450D48E
:1017B0000021084600F0BAF854E00024A5002846AD
:1017C00001F0A2FA2E4A1078402807D32B49C98885
:1017D000402903D93968AB19596502E03968AB195A
:1017E00059612649CB78032B0DD10B79002B0AD1F7
:1017F0008B78002B07D10B78212B04D1497809294C
:1018000001D1001D1070641C102CD7D30220B074BD
:1018100070691C490124884203D1B0691A49884281
:1018200003D01A48017821430170194E30780028FE
:10183000BAD1134D28784028B6D30E49402214312E
:101840001448FEF7BBFC3470002028701148047067
:10185000AAE707484168C90104D481690122D20678
:101860001143816120690121C90388432061F8BDCA
:1018700000C005404C030020AC000020980E002062
:10188000B6000020AA55A55AFF0033CC1400002052
:10189000CA000020AC0E00207CB53320204CC004D0
:1018A000A060002000F0BCF86068400330D41D4CFC
:1018B00020690321C90388432061002001F024FA34
:1018C000194D28680090042001F01EFA2868019044
:1018D0000098C0B220700099090A61700099090C43
:1018E000A1700099090EE170019921710199090A0D
:1018F00061710199090CE1806021084002D0202823
:1019000003D008E000F0A2FB7CBD00F05BF97CBDD9
:1019100001208004A060002000F08CF87CBD000055
:1019200000C00540980E0020AC000020042806D816
:10193000034A800080180522520789180160704709
:1019400018C00540421E032A04D8034A80008018AC
:101950008038C1677047000048C00540042804D89B
:1019600002498000401800210160704718C00540FE
:10197000F7B5054624498000164641180A6882B02A
:10198000002A02DB022005B0F0BD002D03D0042D9B
:1019900001D8402E01D90420F5E70968490F042930
:1019A00001D00120EFE71949495D002904D02846FC
:1019B00000F040F80320E6E7154941180968B142F4
:1019C00001D20520DFE7134940188038C06F00902E
:1019D000B007B708002800D07F1C002407E0039957
:1019E000A000009A0958801801F0AEF9641CBC42AE
:1019F000F5D3F1B22846FFF799FF07490020485573
:101A000006494855BFE7000018C005409100002076
:101A1000840E0020740E0020B7000020BB000020C0
:101A2000042804D802498000401809070160704763
:101A300018C0054004280CD8064A810089180028DF
:101A400004D1044818384068C00102D40720400778
:101A50000860704718C0054070B50E4DA968002099
:101A600001F064F9A868012806D101242046FFF797
:101A7000D7FF641C022CF9D90749002008602869A7
:101A8000032189030843286101210020FFF74EFF4D
:101A900070BD0000980E00209C000020F8B5184F83
:101AA0000020FA783D79174BBC7884460C26014615
:101AB00071435E5CB24210D1C9184E78B5420CD168
:101AC0008E78B44209D10C225043C0180E4A808847
:101AD000106088680D49086005E0401C1028E5D3B7
:101AE0006046002807D038690121C90308433861DE
:101AF00000F086FBF8BD0020FFF79CFFF8BD00005A
:101B0000980E0020005800009C0000209800002043
:101B100010B50E4CA068012814D12078812811D16D
:101B2000207901280ED80A49095C002001F0FEF84E
:101B300020690121C9030843206101210020FFF72A
:101B4000F5FE10BD0020FFF775FF10BD980E0020B8
:101B5000A000002070B5194D28784406640EC00915
:101B600001D1FFF767FF0126F603002C15D0012CE9
:101B70001AD0022C10D128794006400E02280BD82A
:101B80000F49095C002001F0D1F828693043286131
:101B900002210020FFF7CAFE70BD2869000601D5AA
:101BA0000221EFE70021EDE7A8680128F4D1687968
:101BB0000028F1D128790128F4D970BD980E0020B1
:101BC0009100002010B511484078030000F0CAFBD6
:101BD0000C19070A0D191919191910131619FEF7FE
:101BE00049FF10BDFEF7F8FE10BDFEF71BFF10BD4C
:101BF000FFF720F810BDFEF7CDFF10BDFEF7EEFF9A
:101C000010BD0020FFF716FF10BD0000980E002049
:101C100004487D21017401214174002181748030C8
:101C2000416170474C03002070B5414D6C684148DC
:101C3000A860002C08D0600F15D0002C07DA00F047
:101C400011F900F0E7F853E000F00CF970BD600006
:101C500002D500F0ABFA4BE0A00049D500F002F944
:101C600000F0F2F844E02002C00E18D0200202D5A5
:101C7000FFF712FE3CE0600202D5FFF72DFD37E0D2
:101C8000A00202D5FFF772FD32E0E002800F2FD0F4
:101C90000320C004A8600020FFF7CCFE28E0200548
:101CA000000F13D0E00502D5FF200130A860A00589
:101CB00002D501204002A860600502D50120800203
:101CC000A860200514D50120C00210E020070FD025
:101CD000E00701D00120A860A00701D50220A8607C
:101CE000600701D50420A860200701D50820A8605E
:101CF0006001ABD528684000A8D500F0BBF80E49BC
:101D0000002348780D4A002802D0401E487003E0A6
:101D10005078002800D053708878002802D0401EE8
:101D2000887070BD90780028FBD0937070BD000063
:101D300000C00540FFFFFBFEBB000020B7000020F5
:101D400070B500F0B1F9FFF763FFFFF739FCFFF75B
:101D5000E5FB214801681022114301604021012068
:101D6000FFF7F0FD80210220FFF7ECFDC0210320EA
:101D7000FFF7E8FDE0210420FFF7E4FD17484021CC
:101D8000016080224260C0228260E022C26014486A
:101D900001600821416009228260C1600161124C2A
:101DA000104820602068C906084320600220606156
:101DB0001F25ED06322000F0A9FA25610A486104CA
:101DC000403041620949C162012000F0E5FA01207A
:101DD00000F0FAFA70BD000000E00540740E00202B
:101DE000840E0020100000B000C005400440000038
:101DF00000B5074A06205061FFF756FC05205061E8
:101E0000FFF75EFC506904218843506100BD00006B
:101E100000C0054010B500200949C043886009484A
:101E20000122026100228260CA601046FFF702FEB2
:101E300001242046FFF792FD641C042CF9D910BD43
:101E400000C00540980E0020044801690422114397
:101E500001610349D006886070470000980E002099
:101E600000C0054010B5FFF7ABFBFFF757FB00F0D4
:101E700019FA10BD10B501200B49800688600B4887
:101E80008068C0070FD00A48007802280BD30948A1
:101E90000078002801D101F079FA07480178491C3F
:101EA000017002F0A5FF10BD00C00540980E002093
:101EB000C0000020E90000206300002010B50D489C
:101EC00001692023994301610169402211430161A5
:101ED0008178002902D002691A4302610173016905
:101EE000012212041143016100210846FFF71EFD83
:101EF00010BD0000980E0020F8B5214E1F4D30692E
:101F0000800607D5B078102101240027002805D0CD
:101F1000012810D00020FFF78DFDF8BDB7603069B3
:101F2000084330610127EC553846FFF717FD7F1C49
:101F3000042FF8D917E0B460306988433061002479
:101F40002F55002C0CD02046FFF76AFD0D48006984
:101F5000611EC840C00703D000212046FFF7E6FC01
:101F6000641C022CECD9306901210904084330615A
:101F700000210846FFF7DAFCF8BD000091000020C0
:101F8000980E002000C0054070B5184D2878440612
:101F9000640E000602D50020FFF74CFD002C05D092
:101FA000022C09D00020FFF745FD70BDA87801285C
:101FB000FBD128690E4912E0A8780028F5D12879CC
:101FC0004006400E411E0129EFD8A9680129ECD135
:101FD000084A1154FFF72EFD28690121090408431E
:101FE000286100210846FFF7A1FC70BD980E002073
:101FF000800101009100002010B5114CA06801285B
:102000000CD1104A002001461154401C0428FBD971
:102010002079012802D8A278002A03D00020FFF7F7
:1020200009FD10BD084A1154FFF72CFB206901215E
:1020300009040843206100210846FFF777FC10BD22
:10204000980E002091000020A000002010B5154837
:102050004078030000F086F90C070A220D221013C5
:102060002216191C1F22FFF775FD10BDFFF7CEFACF
:1020700010BDFFF789FF10BDFFF720FF10BDFFF770
:102080000DFD10BDFFF7E8FC10BDFFF735FF10BDDB
:10209000FFF73EFD10BDFFF7AFFF10BD0020FFF7BB
:1020A000C9FC10BD980E002000200E4A01461154B4
:1020B000401C0528FBD30C4A00201154401C042866
:1020C000FBD30A48017041708170C1700171417188
:1020D000C1808160017301690122520411430161D1
:1020E0007047000091000020A0000020980E002002
:1020F000F8B5264E306902218843306124480078C3
:1021000001283FD02349244A244B254D0020D1608B
:102110006F687F0036D5401C9842F8D3686840004D
:1021200030D528690921C9068843286130691D4FC7
:1021300000060CD50020B86078681B49084078601C
:102140000A2000F0F3F83C681748C04304400A2016
:1021500000F0ECF800F032F86868400013D512493E
:10216000C943686840000ED530690006F9D5386863
:102170000840A042F5D0B0680128F2D1FFF772FE06
:10218000FFF736FEF8BDFFF76DFEF8BD980E002094
:10219000A4000020AA55FA5A00000140E075090089
:1021A00000C0054000800440DC7FFFFF0248016959
:1021B0000222114301617047980E002010B50B4AAE
:1021C000002313600A480121C160C168C906FCD51B
:1021D00002210161084C0749216003600748106033
:1021E000106849070843106010BD000000C005409A
:1021F000000006400200FA5A00200640100000B01D
:10220000F8B52348244E046822483168C0888842C3
:1022100000D230603068214F00281FD00025E378BD
:10222000A27861782078FFF737FA0146A80000F01D
:102230007DFD6D1CEDB2241D102DF0D3306838608B
:10224000306840281BD340210020FFF76FFB104867
:102250000168403101603068403816E000210846CE
:10226000FFF764FB3868402806D00D4881690122D9
:10227000120711438161F8BD00203860F8BD306855
:10228000C1B20020FFF752FB00203060F8BD000013
:1022900098000020980E00209C000020A80000203C
:1022A00000C00540044801690922D20611430161BA
:1022B000012149068160704700C0054010B50F4CF0
:1022C0002069800719D5FEF77BFFFFF711FFA06893
:1022D000C00712D0FEF7DEF9FEF704FA00F0FEFEAA
:1022E00007481821C16041610022D2430262816126
:1022F0000449800308600449086010BD980E00205E
:102300000080044080E200E000E100E030B50346D8
:10231000044C054D03E0EC60642000F007F85B1E00
:10232000F9D230BDAA55FA5A0000014003490A69A2
:102330003C21D1404143491EFDD270470000064078
:1023400006214843401EFDD27047000004490A6937
:102350003C21D14041434808401EFDD27047000057
:102360000000064030B47446641E2578641CAB42FD
:1023700000D21D46635D5B00E31830BC18470000C7
:10238000002805DBC106C90E01208840014908600C
:102390007047000080E200E0002805DBC106C90E9E
:1023A00001208840014908607047000080E200E099
:1023B000002805DBC106C90E0120884001490860DC
:1023C0007047000000E100E0002805DBC106C90EEF
:1023D00001208840014908607047000000E100E0EA
:1023E000F8B507461E460C461546104601F05EF944
:1023F00000284CD0284600F075F8002847D12C2042
:102400004443234824182570280A6070E670A7709A
:10241000A11D0020FDF744FF21460E310020FDF7ED
:102420003FFF214612310020FDF73AFF21461631C9
:102430000020FDF735FF21461A310020FDF730FF5F
:10244000002020711248214621380A31807E0E4634
:10245000FDF726FF010000D101203146FDF720FFE6
:1024600001266671284600F0F5FC21462331FDF770
:1024700017FF284600F016FD21462731FDF710FF13
:1024800021461E310020FDF70BFF2034E672F8BD17
:102490008109002070B52C214843094944181234A1
:1024A0002046FDF7ECFE05463F2805D0681C214676
:1024B000FDF7F6FE284670BD21460020F8E7000033
:1024C0008109002001462C225143044A002089182A
:1024D0004979012900D101207047000081090020BD
:1024E00070470000F0B50022104D15239B010646F1
:1024F000EB18104611461C8F14E00E234B43EB5A89
:102500005F047F0CB74207D10E2251434919497825
:10251000C90900D00120F0BD5B0401D1521C92B268
:10252000491C89B2A3188B42E7D8F0BD00040020F3
:10253000F8B500212C4B1522920106469A180D463B
:102540000846148F4BE00E2242439A5A57047F0CE0
:10255000B7423ED10E214843C4186688002E17D0DA
:10256000201DFDF78CFE81B2B00100F0EDF80646AB
:10257000201DFDF784FE61886A46890140180178B4
:102580001170407850701088864201D1012501E019
:10259000002D27D02689002E24D020460A3005465B
:1025A000FDF76DFE81B2B00100F0CEF80646284678
:1025B000FDF765FE21896A4689014018017811708E
:1025C000407850701088864201D101250AE000252C
:1025D00008E0520401D1491C89B2401C80B2621843
:1025E0008242B0D82846F8BD0004002070B51A4CCD
:1025F000A079012828D1608A1849401C80B26082E5
:10260000098F0026164D884202D91EE0401C208208
:10261000208A0E214143695A490401D16428F5D327
:1026200080B20E214843285A4004400CFFF780FF37
:10263000002809D1208A0E214843285A4004400C22
:10264000A082A6710320607170BDA671A682668209
:1026500026820220F7E70000180000204009002031
:1026600000040020F8B500252C46124E1CE0204640
:102670000E21484310490746C85B420410D040046D
:10268000400CFFF755FF00280CD10B48802238186A
:10269000417811434170E1B2202002F045FB01E096
:1026A0006D1CADB2641CA4B2308F4019A042DED8BC
:1026B000F8BD0000400900200004002070B50B4D5B
:1026C0000024E88900280FD1687203E002F038FF87
:1026D000641CE4B22A20FEF781FE052801D0032CF9
:1026E000F4D37D204001E88170BD00001E0200206F
:1026F00070B5124C0146207ACE2250430519284667
:10270000273001290DD000290AD1014621220C4889
:10271000FDF754FD2946233104220A48FDF74EFDFA
:1027200070BD21220649FDF749FD207ACE2148439C
:102730000019042203492330F0E70000080F0020AD
:10274000A80D00208000002010B503460A480CE0C8
:102750001C78020A544022096240000214036040BF
:1027600054016040504080B25B1C0A46491E89B249
:10277000002AEDD110BD0000FFFF000010B5034698
:1027800010460CE01C78020A544022096240000204
:102790001403604054016040504080B25B1C0A4604
:1027A000491E89B2002AEDD110BD0000F1B584B0F8
:1027B0000020029004982C214843FE4940180090C4
:1027C0001E300546FDF75BFD074600981A300646A9
:1027D000FDF755FD0146009812300190009804461F
:1027E00020348F4270D00498FFF754FE0499F34FC1
:1027F0008A01F1495618315C07297CD007DC0B00AF
:10280000FFF7B0FD0713FBF9286395AC13002129EE
:1028100072D006DC082970D010296FD0202904D18D
:102820003DE122296BD023296AD00098002444710D
:102830000098417802780802104300F04DFE08210C
:10284000DF48FDF718FDDF4801220178447011438D
:102850000822B1E002270198FDF711FD815DD848FB
:102860000838C219127A914201D1012102917F1CCC
:10287000FFB2082FEFD3022709E0D1480838C0196A
:10288000007A002812D07F1CFFB2082F02D20298D3
:102890000028F2D00498FFF7FDFDA078801EA070FC
:1028A0002846FDF7ECFC2946801CA8E10198FDF7BD
:1028B000E6FC815DC24801220838C0190172C14896
:1028C000017811430170E5E761E102270198FDF706
:1028D000D6FC815DBA480838C019007A814210D10F
:1028E000B74900200839C9190872B6480122017891
:1028F0001143017009E046E0E0E060E092E0F9E0B9
:102900001BE17F1CFFB2082FE0D30498FFF7C2FD44
:10291000A078801EA0702846FDF7B1FC2946801CD7
:10292000FDF7BEFCE07A401EE07205B0F0BD02206B
:1029300038700498FFF7AEFD305C7870A078801E88
:10294000A0702846FDF79BFC2946801CFDF7A8FCDB
:102950009C490222087810430870E6E7022038708C
:102960000498FFF797FD305C7870A078801EA07007
:102970002846FDF784FC2946801CFDF791FC914810
:102980000222017834E0012038700498FFF782FDBC
:10299000305C78700498FFF77DFD305CB870A078EB
:1029A000C01EA0702846FDF76AFC2946C01CFDF732
:1029B00077FC84480422017811430170B5E70120B7
:1029C00038700498FFF766FD305C78700498FFF764
:1029D00061FD305CB870A078C01EA0702846FDF77D
:1029E0004EFC2946C01CFDF75BFC764804220178AA
:1029F0001143017096E72AE0FFE70498FFF74AFDCC
:102A0000305C704E7070A078801EA0702846FDF774
:102A100036FC2946801CFDF743FC3078082108432A
:102A200030707FE70498FFF735FD305C654EB0707D
:102A3000A078801EA0702846FDF721FC2946801C46
:102A4000FDF72EFC31780820014331706AE70498C5
:102A5000FFF720FD5B4F305C38810498FFF71AFDCB
:102A6000397A305C0902084338810498FFF712FD77
:102A7000305C78810498FFF70DFDB97A305C09026B
:102A8000084378813878082108433870A078401FBF
:102A9000A0702846FDF7F3FB2946401D40E700984B
:102AA000801DFDF7ECFB07460498FFF7F3FC305C54
:102AB00000993818891DFDF7F3FBEEE60498FFF73F
:102AC000E9FC375C0498FFF7E5FC365C3802064306
:102AD0000098801DFDF7D3FB00998019891DFDF733
:102AE000DFFBA078C01EA0702846FDF7C8FB294672
:102AF000C01C84E00498FFF7CDFC375C0498FFF716
:102B0000C9FC305C3902084307460498FFF7C2FC51
:102B1000365C380206430098801DFDF7B0FB009933
:102B20008019891DFDF7BCFBA078001FA070284606
:102B3000FDF7A5FB2946001D61E00498FFF7AAFCFC
:102B4000375C0498FFF7A6FC315C380201430F465E
:102B50000498FFF79FFC305C39020843074604984D
:102B6000FFF798FC365C380206430098801DFDF79D
:102B700086FB00998019891DFDF792FBA078401F04
:102B8000A0702846FDF77BFB2946401D37E00098E2
:102B900000990079401C087100990020891DFDF7FB
:102BA0007FFB0448009921380A31807E0F46FDF7EB
:102BB00077FB09E0810900200D0B0020500D00205B
:102BC000EC03002018000020010000D1012039464C
:102BD000FDF766FB0020A07000990E31FDF760FB49
:102BE00000200199FDF75CFB009900201631FDF7EC
:102BF00057FB31460020FDF753FB29460020FDF727
:102C00004FFB92E62C225043024A00218018C170EB
:102C10007047000081090020002121E000BF00BFB3
:102C200000BF00BF00BF00BF00BF00BF00BF00BFAC
:102C300000BF00BF00BF00BF00BF00BF00BF00BF9C
:102C400000BF00BF00BF00BF00BF00BF00BF00BF8C
:102C500000BF00BF00BF00BF00BF00BF491C89B25A
:102C60008142DBD97047000010B5044C208001E0A0
:102C700002F09CFC20880028FAD110BDC200002080
:102C800070B50E46054602240821FDF7F4FA1D4AE8
:102C9000F0070ED028781178084328700220115CC4
:102CA000002902D02955641CE4B2401CC0B2082897
:102CB000F5D3B00711D52878117A0843287002207F
:102CC0001118097A002904D0082C06D22955641C51
:102CD000E4B2401CC0B20828F2D3700711D528789E
:102CE000117C0843287002201118097C002904D0A7
:102CF000082C06D22955641CE4B2401CC0B2082836
:102D0000F2D370BDE4030020064A90630548022117
:102D10004030016001688907FCD4D06B024908602B
:102D20007047000040C00540AC000020054A906399
:102D3000D16304480121403001600168C907FCD11A
:102D40007047000040C00540044A50609160012077
:102D5000D060D068C007FCD17047000080C005403B
:102D60007047000010B50F210320002209038003E3
:102D7000FDF7C8FD18210448FDF77FFA0021402027
:102D800001F0D2FF10BD0000180E002010490120F4
:102D90000A78042A1AD10F4A537C002B02D0212032
:102DA00048700220D27A002A02D020220A54401C05
:102DB000084A203AD37C002B02D022230B54401C1B
:102DC000527E002A02D023220A54401C7047000081
:102DD000880D00205402002030B50022094C114615
:102DE000635C00201D46C540ED0700D1521C401C0D
:102DF000C0B20828F6D3491C89B21829F0D3900133
:102E000030BD0000180E002000B5FFF7E5FF00BD43
:102E1000FFB581B01F460C460026019800F01AF855
:102E20000546019800F03EF8002D0FD000280DD087
:102E3000E119814202D828193A4603E0A04204D998
:102E4000021B2819039901F057FF0126304605B0EF
:102E5000F0BD0000F0B50022114D15239B01064680
:102E6000EB18104611461C8F16E00E234B43EB5A0D
:102E70005F047F0CB74209D10E20414348194088B6
:102E8000010401D50003F0BD8001F0BD5B0401D158
:102E9000521C92B2491C89B2A3188B42E5D8F0BDEE
:102EA00000040020F8B506460020104D15239B01B4
:102EB000EB18024601461C8F13E00E234B43EB5ADE
:102EC0005F047F0CB74206D10E2041434819001D14
:102ED000FDF7D5F9F8BD5B0401D1521C92B2491C33
:102EE00089B2A3188B42E8D8F8BD00000004002086
:102EF000F0B5114D00242E8F360A0E702E8F4E70B5
:102F0000C1180E4E8C460FE00E214143735A5F04E8
:102F100006D05B045B0E1370715C5170921C01E073
:102F2000641CA4B2401C80B2298F0919814201D9C6
:102F30008445E9D8F0BD00004009002000040020CD
:102F40000148807E7047000060090020F3B5002230
:102F50001A4D15239B010646EB1881B01046114609
:102F60001C8F26E00E234B43EB5A5F047F0CB742C5
:102F700019D10E2041434C19201DFDF780F9010E97
:102F800002980170201D029DFDF779F9000C687010
:102F9000201DFDF774F9000AA870201DFDF76FF9D8
:102FA000E8700120FEBD5B0401D1521C92B2491CA5
:102FB00089B2A3188B42D5D8FEBD000000040020C2
:102FC00064207047C12080017047000010B502489E
:102FD000FDF755F910BD00007B0900201B4A0020B9
:102FE000506090601A49486088601A49486088605B
:102FF000506820231843506017484368C214134395
:1030000043600368934303604368021513434360BE
:1030100003689343036043684215134343600368A6
:1030200093430360436882151343436003689343EB
:1030300003601820086148610022D2430A62886157
:10304000880306490860064908607047004004404C
:10305000006004400080044000A0044080E200E0E2
:1030600000E100E010B50E48002444710D48CE2266
:10307000017A5143091890220B484831FDF79EF818
:10308000094A0020363A06214143545489184C70AD
:103090008C70401CCC70C0B24C710928F3D310BDA9
:1030A00000000020080F00206A02002010B5FEF783
:1030B00087FAFEF733FAFEF7CFF8FFF78FFF02200B
:1030C00002F064FA044802F079FAFEF7F3F8FEF72A
:1030D000CDF8FEF795FA10BD80841E0070B5FEF79E
:1030E000D5F8164C00252573E583A5836573144830
:1030F000E5730580134814490580257525842570DE
:103100006575E5751020A0750A46002010320B4643
:1031100020330D5415541D54401CC0B21028F8D350
:1031200050210A48FDF7A7F8044805636574257423
:10313000E574A57402F004FA70BD0000540000208C
:103140002A02002028020020780D0020FA02002028
:10315000F8B56F48002404806E48022504706E485C
:10316000FC2104706D4804806D4804706D48047043
:103170006D4805706D48FDF77EF87B216C48FDF7C2
:103180007AF848216B48FDF776F80E216A48FDF77A
:1031900072F808216948FDF76EF810216848FDF7BC
:1031A0006AF809216748FDF766F819216648FDF7B6
:1031B00062F86648664944704C7084708C70C470C4
:1031C000CC700B211C2209036248FCF7F7FF614811
:1031D00041780278080210431C2804D01C225E4962
:1031E0005C48FCF7EBFF5D4E5D4932465D48FCF7FD
:1031F000E5FF5C484178027808021043B0420AD1EA
:10320000811E5848FFF7A0FA57494A7C0B7C1102EF
:10321000194388420DD0324654495248FCF7CEFF3C
:103220000524641EE4B22146012001F07DFD002C3E
:10323000F7D14F4F17213A46C9024E48FCF7BEFF5F
:10324000B91E4C48FFF780FA4B494A7F0B7F1102A9
:10325000194388420ED0FFF785FD39464548FDF7F2
:103260000AF86424641EE4B22146202001F05CFDCB
:10327000002CF7D15A2241494148FCF79FFF5821C1
:103280003F48FFF761FA3E4940314A7E0B7E11020A
:103290001943884220D05A213948FCF7ECFF3946BF
:1032A0003448FCF7E8FF324630492E48FCF786FFE9
:1032B000FFF758FD0524641EE4B22146012001F009
:1032C00033FD002CF7D16424641EE4B22146202093
:1032D00001F02AFD002CF7D1FFF7C4F9FFF700F940
:1032E0000A212848FCF7C7FF64210A2001F0D0FC1E
:1032F0000146012001F0CCFCFFF732FD0020FFF772
:10330000F7F9FFF7EBFEFFF7ADFE1F480570F8BDBC
:10331000C2000020CA000020B0000020B20000203F
:10332000C1000020BF000020C4000020A71300201F
:103330002C130020A3140020C90D002048000020F9
:10334000500D00206C0D0020E4030020B700002089
:10335000BB000020EC0E0020CC580000120400003E
:1033600080B00000080F002008130020E85800007B
:10337000810500000004002063090020C0BD00009A
:10338000180E0020600D0020C0000020F8B54D4B45
:10339000002029214143CA18114622314C790D7968
:1033A00024022C43641C0C71240A4C71917C547CC3
:1033B00009022143491C5174090A401CC0B291748E
:1033C0000328E6D3404F00213E4609360D4629200A
:1033D0000A4642433B481018C27B052A07D12030D9
:1033E000007A3A5C012A0FD0374AD21C1554491C86
:1033F000C9B20329EBD3354E00242C206043851934
:10340000687901281DD025E02F4BDB1C1A5CDC1CE1
:10341000521CD2B21A54245CA242E8D342001D547A
:1034200094196378012B05D1B35C002B02D05B1E8D
:10343000B354DCE7244B01225B1F5A5465703D54A2
:10344000D5E7A81DFCF71BFF002803D0A91D401ECF
:10345000FCF726FF641CE4B2092CCED31C4B187871
:1034600000280ED000204100C9180A7DCC7C120231
:103470002243521CCA74120A401CC0B20A750928A1
:10348000F1D313482030007A00280FD000204100EB
:10349000C91823314A7E0C7E12022243521C0A763E
:1034A000120A401CC0B24A760928F0D309490878AC
:1034B000002801D0401E08708878002801D0401EE6
:1034C0008870F8BD2C130020EF0000208109002037
:1034D000FA0200208400002070B50022114C152350
:1034E0009B01E31811461D8F18E00E234B43E35A4E
:1034F0005E04760C86420BD10E20484300194278B8
:1035000080231A434270C9B2202001F00DFC70BD27
:103510005B0401D1521C92B2491C89B2AB188B4298
:10352000E3D870BD00040020F0B5034685B000204C
:1035300058490191064604460A8FA1E021460E250E
:103540006943554D0291695A4D046D0C9D427DD1E0
:103550000E202146414350480D184E4968883B31A2
:1035600002040091002A22DA4C4E317801291CD045
:103570004104490C30464170090A8170281DFCF74E
:103580007EFE811C080B0F463146401CC870000AA5
:103590000871012030700098FCF771FE3A0B012190
:1035A00012030903511840180FE002266EE00028AC
:1035B0000ED00846FCF763FE0646281DFCF75FFEAA
:1035C000801C80098001403030180099FCF768FEAB
:1035D0002889012601041CD5304F79790129E4D0CE
:1035E0004004400CF88028460A30FCF748FE801C56
:1035F0000390000B401C3881012078710098FCF783
:103600003EFE01460398020B1203300310180818FF
:103610000EE000280FD00098FCF731FE0746284640
:103620000A30FCF72CFE801C8009800140303818DD
:103630000099FCF735FE184802990027415ACA0B39
:103640000299D20342526F80291D00E012E03846F1
:10365000FCF726FE29462F810A310020FCF720FEC8
:1036600001980199008F401E0887E1B2202001F0E7
:103670005BFB0BE0490401D1401C80B2641CA4B286
:103680001118A14202D9642C00D257E7304605B088
:10369000F0BD00004009002000040020600D002063
:1036A00010B500F023F8FEF7A1FF10BDF0B50646F7
:1036B00000200D4D15239B01EB18024601461C8F7F
:1036C0000EE00E234B43EB5A5F047F0CB74201D14F
:1036D0000120F0BD5B0401D1521C92B2491C89B299
:1036E000A3188B42EDD8F0BD00040020F8B50025EA
:1036F000244F2E462C206843C419607901283BD101
:10370000A078102804D011281BD0122834D118E03A
:103710002079E178884212D2A01DFCF7B0FD002884
:103720002AD120460A30FCF7AAFDA11DFCF7B8FDFE
:10373000284600F029F82846FFF738F81CE06671A3
:103740001AE0A01DFCF79BFD00280CD120460A3092
:10375000FCF795FDA11DFCF7A3FD284600F014F829
:103760002846FFF723F8E078002805D120460E30E0
:10377000FCF785FD0028E2D06D1CEDB2092DB9D310
:10378000F8BD000081090020F0B504462C20214638
:103790004143584889B00D1828462330FCF76FFD87
:1037A000049028462730FCF76AFD1A35064628465D
:1037B0000695FCF764FDB04272D22C214D4A61435C
:1037C0008D18A1014C482F462C46081820370E347E
:1037D00016350590402E65D9B9784020411A0291DE
:1037E00020460191FCF74BFD03900199301A884265
:1037F00000D30846019007902846FCF740FD402181
:103800000A1A029B05999A4215D34118049A039803
:103810008018019A01F070FA2846FCF730FD0199F2
:1038200040182946FCF73CFD2046FCF728FD01998D
:103830004018214626E04118049B0398C01801F067
:103840005BFA2046FCF71BFD06462846FCF717FDF1
:103850004021081A009030182146FCF721FD01464E
:10386000019A0098161A049832460818059901F032
:1038700043FA2046FCF703FD80192146FCF710FDB2
:1038800029463046FCF70CFD0698FCF7F8FC079932
:1038900040180699FCF704FDB97807980818B87025
:1038A00009B0F0BD2846FCF7EAFC059940180090E5
:1038B0002046FCF7E4FC049932464018009901F0D8
:1038C0001BFA2846FCF7DBFC80192946FCF7E8FCCC
:1038D0002046FCF7D4FC80192146FCF7E1FCB878BF
:1038E0008019B8700698FCF7CAFC80190699FCF795
:1038F000D7FCD5E7810900200D0B0020FFF7D6FB90
:10390000FFF726FCFCF77CFFFEF71AFA124C01F0D9
:103910004DFEFEF7D3FCA068C007F8D00F4D01F0B4
:1039200045FEFEF7CBFCA068C007F8D028785528E4
:1039300003D1FEF7C3FE00F085F800F045F8FCF770
:10394000C5FD01F0F5F801F095F801F061F8FFF719
:10395000A7FEFDF743FBE2E7980E0020560000208B
:10396000FEB50026751E8009401C374600900024D5
:10397000F80001901348C05DE040C0071AD000264F
:10398000751E009886420BD181B2284601F08CFB4F
:103990000320000228180F2180B28901884208D92B
:1039A000641CE4B2082CE5D37F1CBFB2182FDED311
:1039B0000020FEBD761C681CE3D10198001905B2F9
:1039C000DFE70000180E002070B51B4800780128C2
:1039D0002FD11A4D287802282BD280214A20FDF7BA
:1039E0002DFD4A20FDF7FAFC4407640F01F0DEFDCF
:1039F0000120FFF739F9022CF3D3042C1AD002204E
:103A0000287000214A20FDF719FD0220FFF72CF94C
:103A10006520FDF7E3FC4006094C400EA0714120F3
:103A2000FDF7DCFCE0710146237A6279A079FCF7AE
:103A3000DBFE70BD0320E3E7C5000020C4000020CA
:103A40005400002070B51748174D8179E87B8142FA
:103A500026D80024EC7301F023FBA87D1349144AF7
:103A6000002801D0102807D1A88B0B88C018A88384
:103A7000E88B1388C018E88314800C80FCF776FE6E
:103A8000E87D012802D1EC83AC83EC751C201E215B
:103A9000285E695E084303D0687B0421084368738D
:103AA00070BD0000080F00205400002028020020F4
:103AB0002A020020F8B5734C00226379A01D724ED3
:103AC0000321724D012B63D0802B51D0812B0CD15F
:103AD00002E0521CD2B200E0437817017F19403750
:103AE0003F7A9F4202D0092AF3D3C9E0092AFCD2C7
:103AF00001780A23002922D0491E8678C9B2002EF7
:103B000000D00126CE277943491912018A1811469F
:103B100040310D7A4570497A8170911940318A7A25
:103B2000C2700A7B02718A7B42710A7C82718A7C34
:103B3000C2710A7D0272897D4172E370F8BD81789D
:103B4000002900D001211201B55C92194570557809
:103B5000857051188A78C2700A7902718A79427127
:103B60000A7A82718A7AC2710A7B0272897BE3E7E0
:103B70000921017001210A0152192032127E42549A
:103B8000491CC9B20929F6D9F8BD521CD2B200E0CD
:103B9000437817017F1940373F7A9F4202D0092AA4
:103BA000F3D36DE0092A6BD20178002909D0EC79B2
:103BB000A14241D1491ECCB2817800291AD00127F7
:103BC00019E08178002900D001211201B354921923
:103BD00083785370C37851188B7002790A714279D7
:103BE0008A7182790A72C2798A72027A0A73407A79
:103BF0008873F8BD0027CE21614349191201891845
:103C00000D4640352B7283786B72CD19C3784035E1
:103C1000AB7203792B734379AB7383792B74C379BC
:103C2000AB74037A2B75407AA8759019102248312D
:103C3000FCF7C4FA21461FE0491E8478C9B2002C63
:103C400000D00124CE264E4375191201AD182A4624
:103C500040321372837853722A19C37840329372B8
:103C6000037913734379937383791374C3799374CA
:103C7000037A1375407A9075082001F055F8F8BD65
:103C80002170F8BDAC0E00206A020020080F002051
:103C9000F3B5FC49FD4C0A78FB4985B0097801254C
:103CA000677929430291069B294699400026012AFB
:103CB0007ED0F74A1B019A1894465278012A04D103
:103CC0002279002A01D0012200E00022002A08D037
:103CD000EE4B0128DB8802D08B43E38009E00B43E5
:103CE000FBE7002A05D1E94B01281B890AD08B4349
:103CF0002381E64B5B89002B0ED0002A0CD00028D4
:103D000002D009E00B43F3E7E04B1B89194203D0D3
:103D10000022DE4C8B43238161468C18DD49A2785A
:103D200009780391DC494B7809781B020B43DA4987
:103D30000193CB7889781B020B4300931300FEF7A5
:103D400011FB13FE0BFDFCFBFA8DFEFEFEFEFEFEDC
:103D5000FEFEFEF9F8F7FE0001280ED0A079092832
:103D60000AD00A28FCD02946401E8140C7488F430C
:103D70004771C54802990170FBE1C448C74BC07840
:103D8000CE218446187AA2794843C118C44B00203A
:103D90001856BD4B02241B7823312343092A0CD02B
:103DA0000A2A27D0521E9540B8483D43457100E08D
:103DB00001E2B54802990170F0E16246002A16D08E
:103DC00001987D23B44ADB016430984202D210701E
:103DD000000A01E01370180A50700098643098428D
:103DE00002D29070000A19E09370180A16E0AC49EC
:103DF000401C2FE06246002A2AD00198A64A643867
:103E0000002802DD1070000A01E01670300A5070C0
:103E1000009864380028E4DC9670300AD07050783E
:103E20001378000218430870030A4B70D178927817
:103E30009A4C09021143227ACE235A431219213295
:103E400011710B0A537101F09DFA217A08204CE0A0
:103E50009349401E08708C4803709FE1914FA279EE
:103E600079780291491C049139780391491E130015
:103E7000FEF778FA0765053E4BA0A7956500012877
:103E80007ED10498884202DA0298401C01E003982F
:103E9000401EC0B2787006214843C2191079D1780B
:103EA000000208437C4C010A20706170511C927919
:103EB0000B7911021943A1700A0AE27001F062FA4B
:103EC0007648CE23017A7A785943091820310A724C
:103ED000617823780A021A43017ACE2359430918DC
:103EE00023310A70120A4A7048E000F01DFF55E1C4
:103EF0000128C5D10298401E002802DD0298401E0C
:103F000000E00020C0B2787007E00128B8D1207A24
:103F1000401EC0B2787088429FDC06214843C21917
:103F20001079D178000208435B4C010A207007E049
:103F3000E7E0CEE0BFE0F7E006E154E017E10EE194
:103F40006170511C92790B7911021943A1700A0A10
:103F5000E27001F017FA5148CE23017A7A7859437A
:103F6000091820310A726178227809021143027A15
:103F70005A43121823321170090A5170E17800E097
:103F80001CE0A27809021143027ACE235A43121888
:103F900021321171090A5171017A0120A5E7012826
:103FA0000CD10498C0B278700399884200D17E7019
:103FB0007878B2E70128354801D0C670D9E0C570DD
:103FC000ECE0012804D00099019801F0DBF9D0E081
:103FD000207AA17A00020843217BA27B09021143C7
:103FE00001F0F8F9DAE02849082209782E4B11434C
:103FF0008C46012811D0A77900210097009ACA4069
:10400000D20730D0214F0C377A5C002A26D0521EBE
:104010001206120E7A5421D025E0A77900210097CC
:10402000009ACA40D20709D0184F0C377A5C521C4C
:104030007A541F782A468A4017431F70491CC9B218
:104040000829EDD302215A5C002A04D0491CC9B2C8
:104050000929F8D383E0227A5A540EE01F782A46C1
:104060008A4097431F70491CC9B20829C6D3227AD7
:1040700002215C5C944219D15E54034962460A7085
:104080006DE00000BF000020610000200000002063
:104090006A0200201800002080000020080F002085
:1040A00060000020A80D0020E4030020491CC9B2D4
:1040B0000929DED353E001285BD10698FEF702FA06
:1040C00000286BD1A17910200A02217AA37A0A4331
:1040D00028E0012803D00698FEF794FD49E0A07976
:1040E00011270502207A012405430698FEF7EAF914
:1040F000002853D123462A4638460699FEF770F920
:104100004CE0012835D10698FEF7DCF9002803D0F1
:104110000698FEF777FD41E0A17911200A02217A85
:104120000A4301230699E9E7012807D03B49022207
:104130000A704E703A4A202303990EE03749022252
:104140000A70A2794A70F5E7344901280D7009D048
:104150004E708E70324A0399102319431170012852
:104160001CD006E0227A4A70A2798A70F2E7012810
:104170000AD02C492C4F0B78002029214143C91922
:104180004A7B052A33D044E0A0792946401E81406D
:1041900026484170217A4900817005702149224DDD
:1041A0000C78234A234F00202921414349194B7B96
:1041B000052B0AD015E0012804D08F4367711E49F2
:1041C000029A5CE739436171F9E7002C09D1282391
:1041D0005B5C2231D6540E71330A4B71FF214300D0
:1041E000F954401CC0B20328DED307B0F0BD002B49
:1041F0000FD12822545C0E4A223115550E71320A15
:104200004A710C4A41008C186570FF2454540B49C4
:104210000E54401CC0B20328AFD3E6E7880D00203F
:1042200018000020CA0000202C13002000000020ED
:10423000EF000020F800002061000020F2000020C4
:10424000F8B5794ACE24977977487B1EDAB2624373
:10425000774C861D141940792246744920328028F3
:1042600056D028DC002851D004285FD007284ED132
:104270006D4DA87AE97A8646287B6D7B8446704628
:1042800000020843614609022943002F75D0DBB2C2
:104290009C4673785372B378D371F7781772D71C32
:1042A0003870000A7870501C0171090A41710020B1
:1042B0001546F61D89E081282CD0842832D0872825
:1042C00025D1002F5AD0507A7070D079B070107A02
:1042D000F070204623304178037809021943090A17
:1042E00031714178037808021843707120462130FB
:1042F0004179037909021943090AB17141790379B6
:1043000008021843F0710020F61D32E00F70F8BD6E
:10431000087809E0474801783170417871708078F9
:10432000B070F8BD424880793070F8BD4048877160
:104330006AE0062141436318194622314D7A0F7A0B
:104340002D023D432D0A75704D7A0F7A29023943AB
:10435000B170194620314B7B0D7B1B022B431B0A8E
:10436000F3704B7B0D7B19022943401C3171C0B2A5
:10437000361DD1798142DCD8F8BD4AE02E49487813
:104380000A7800021043020A32717071C878897885
:1043900000020843010AB171F071EDE77178B2785B
:1043A0000F0206214143174361180A462232177251
:1043B0003F0A5772F278377912023A4320310A7372
:1043C000120A401C4A73C0B2361D9842E6D3184AFE
:1043D000107A604518D1CE2148438218104621300A
:1043E00041790079090201432332507812780002A2
:1043F000104300F0C7FF687A002801D0802100E058
:1044000000214220FDF71AF80021022000F08CFC68
:10441000B2E7094A030A1070537091700B0AD37007
:1044200000F0B0FFA8E70000AC0E0020BF000020A5
:10443000080F0020B458000080000020F8B51A4989
:104440000878012826D119484078002822D1184D33
:10445000184E2878184C002820D01949194A097894
:104460001648C9061278E37AC90E174F807B1143AC
:10447000002B10D008433870082213490120FDF7A3
:1044800077FA002806D128780121401E2870E07AAA
:104490004840E072F8BD32781043EBE70020E0724C
:1044A00008703070F8BD000000000020B700002048
:1044B0000200002001000020540000203A030020E8
:1044C0000500002019000020780D002070B5314E45
:1044D000314A3046C0797179C000B41D80188129F5
:1044E00011D009DC35462B7AAD7A012918D0022982
:1044F00041D0032904D122E082292DD083291BD069
:104500000520307070BD407BA0706078C0008018BE
:10451000807BE0706078C0008018C07B207170BD27
:104520004373E1788173C573FCF75AFC10E00021F6
:10453000022000F0F9FB70BD907CA07070BD0020DF
:10454000C3009B18401CA178C0B299740328F7D30C
:1045500020780028EBD170BD007BA0700020E070B7
:104560006078C0008018007C20716078C0008018DE
:10457000407C607170BD09490B70094903730A687A
:1045800001231A430A6007490D700574617941746B
:10459000CDE70000AC0E0020080F0020D400002062
:1045A000D0000020CB000020F8B5624F3946CA7910
:1045B0008B7978791502CE7ABC1D1D43097B009159
:1045C000802878D007DC801E0300FDF7CBFE052E87
:1045D000151D4861140081380300FDF7C3FE060471
:1045E000210C1D33860CF878221D001FC3B268BA57
:1045F000A11CFEF77DFCF8BD68BAFEF795FF012807
:10460000F9D003203870F8BD207800F06DFE00214D
:10461000202000F089FBF8BDFEF792FC2070F8BD69
:1046200068BAA11CFEF792FC09E0A01CFBF727FE6C
:1046300000BA010A0902314368BA00F05BFE0028A3
:10464000DFD0F8BDA01CFBF71AFE00BA010A090270
:10465000314368BAE21D009BFEF7DAFBF8BDA01CEF
:10466000FBF70DFE00BA010A0902314368BAE21DE8
:10467000009B00F031FD3049022803D000220028C1
:1046800002D003E001202EE0032038700A70F8BD4C
:10469000A0780028FBD1E078022600281ED001284F
:1046A0000AD002280CD00328F1D168BAFDF740FFE8
:1046B000002816D012E01CE020490120087011E00B
:1046C0001F492048FBF7D7FD642403E0E1B2202016
:1046D00000F02AFB641EF9D2FEF744FB1A4806706C
:1046E000F8BD032018490870F8BD17480078A0707D
:1046F000F8BDFEF765FC010A21706070FEF762FCF0
:10470000010EA170010CE170010A21716071FEF7C8
:104710007BFB010EA171010CE171010A2172607233
:10472000FEF754FC010EA172010CE172010A217323
:104730006073F8BDAC0E0020440000201E00002075
:1047400081050000000400201D000020F8B5484C41
:10475000207800074ED54748407800284AD146487F
:104760004649807B0978474A0843454912780978C9
:104770000023C906C90E114308434349444A08703F
:1047800042487E260078C8700020105E414AF643F9
:10479000D35E8127C5B2DAB2B04201DA4F7005E0CC
:1047A0007F2802DD7F264E7004E04D70B04201DAB2
:1047B0008F7005E07F2B02DD7F268E7000E08A700F
:1047C0000D71001248718A711812C871314D304E46
:1047D000002028802949308008702C490822087060
:1047E00029490120FDF7C4F8002803D12078F721DA
:1047F000084020702078C00715D01E48C0780028D7
:1048000011D1254D0721681CFEF73AFA03202870C4
:10481000092229460220FDF7ABF8002803D12078B1
:104820004008400020702078400720D5114EB07815
:1048300000281CD1092219490220FDF799F8FB250F
:10484000002802D1207828402070207841070ED51A
:10485000B17800290BD12840207009220F4902208D
:10486000FDF786F8002802D1207828402070F8BD96
:1048700018000020B70000203A0300201900002093
:104880000500002001000020480000201A00002040
:104890002000002022000020980D0020500D002054
:1048A000F8B5534F534C787B400745D060780028CB
:1048B00042D15148534A817B5048127800787E2675
:1048C00001434F48F6430078C006C00E1043014331
:1048D0004D48F9700170397BC1701C22BA5ED5B2A7
:1048E000B24201DA812102E07F2A02DD7F2141709C
:1048F00000E045701E21795ECBB2B14201DA81261B
:1049000002E07F2902DD7F26867000E0837005715A
:104910001212427183710912C17100203873F88339
:10492000B883082238490120FDF722F8002803D176
:10493000787BC008C0007873787B400619D5A078D2
:10494000002816D1FEF722FA2F4909221031022041
:10495000FDF70EF800280CD1787BBF210840787352
:104960000020294A014610321154401CC0B21028C0
:10497000FAD3787B000715D5E078002812D1224DB4
:1049800007212035681CFEF77BF9032028700922D7
:1049900029460220FCF7ECFF002803D1787BF721A1
:1049A00008407873194D2878C0060ED5A0780028E5
:1049B0000BD11549092210310220FCF7D9FF00283C
:1049C00003D12878EF2108402870287880060ED57A
:1049D000A07800280BD10C49092210310220FCF7E5
:1049E000C7FF002803D12878DF2108402870F8BDD0
:1049F00054000020B70000203A03002019000020D6
:104A00000500002001000020780D00201800002083
:104A100070B5154D2878002825D0144C0120207041
:104A200020790300FDF79EFC05040D07100A16000F
:104A3000FFF706FC0AE0FFF73DF807E000F024F876
:104A400004E0FFF743FD01E0FFF7AEFD2078012809
:104A500002D003E0052000E0022020700448007826
:104A6000002800D1287070BDCA000020AC0E0020C4
:104A70004400002010B5FFF713FFFFF767FEFFF7B4
:104A8000DDFC00F03BF810BD70B5154A154D5079AE
:104A9000911D154E00280ED0144C154B012814D032
:104AA000802804D081280BD00320107070BD287896
:104AB0000870307807E0087828704878307070BD4A
:104AC000207808701878487070BD88782070C97890
:104AD000084A19701378084A1278FBF785FE70BDF2
:104AE000AC0E0020C5000020C40000205A000020A9
:104AF0005B0000205C0000205900002070B50B4CCA
:104B000000256078002806D02078002803D10721EE
:104B1000FFF7BEF86570E078002806D0A07800287E
:104B200003D10821FFF7B4F8E57070BD84000020C0
:104B300070B5454900200870444D287800287DD084
:104B40004349098800297ED1800717D51A21414899
:104B5000FDF7FAFD3F493F4A8876000AC8761C20D7
:104B60000870002048700B2001210003FBF7F8FEBD
:104B7000002803D12878FD210840287028780007F4
:104B800012D535493548FDF7DFFD3549334A0877F9
:104B9000000A48771721C802FBF7E2FE002803D17C
:104BA0002878F721084028702878C00613D55821A6
:104BB0002C48FDF7C9FD2B492A4A40310876000AE6
:104BC000487602212848FBF7CBFE002803D128783D
:104BD000EF21084028702878400722D5244C23482C
:104BE0002070000A6070412109012046FDF7ACFDEC
:104BF00020490874000A487460782178000208434C
:104C0000810608D08109491C194A1B48FBF7A8FEF8
:104C1000002802D005E08109F6E72878FB2108404A
:104C200028701648007803280DD116491448C86327
:104C3000BFF34F8F15491448C86000E003E0BFF38D
:104C40004F8F00BFFDE770BD90000020B000002036
:104C5000B2000020EC0E00207F05000000040020C0
:104C600063090020180E0020C0BD000012040000DF
:104C7000080F00200813002080B00000BF000020B3
:104C8000AAAAAAAAC04700200400FA0500ED00E085
:104C9000F8B502460120C007C4170E4615469142DA
:104CA00001D2354616460F4F721B02D117E040085D
:104CB00064080242FBD00C493868FBF703FB0B4A3F
:104CC00051430B4A5043081A3860002802DC094956
:104CD0004018386020404019B042ECD8F8BD084672
:104CE000F8BD0000500000201DF30100A7410000A6
:104CF000140B0000FFFFFF7F0B4610B5014618465E
:104D0000FBF75CFA10BD0000044A117004498022D0
:104D100008700448417B114341737047C70000206D
:104D2000C600002054000020FCB52E4A8E461378A1
:104D3000012119432C4D8C46022829D0042829D062
:104D4000714601278F401646019736780427274C75
:104D50003E4300962178019F0E463E43F6B2082856
:104D60001CD0002701281ED0102820D0202824D0B5
:104D700013461B781026334340282FD0802806D1B5
:104D8000042003431F201370014321702F80FCBDBA
:104D9000117024E0022003431370FCBD00981070D2
:104DA0006420288007E0009810702670EEE76046C7
:104DB0000421084310702670FCBD082003431370C3
:104DC000642028807046C008724600195307417855
:104DD0005B0F01229A4011434170FCBD13706420A7
:104DE0002880FCBDB0000020B2000020C90D0020CA
:104DF000FEB56348644C017862484029C678407922
:104E000001D3009011E05F498B780D79F11A401BB6
:104E1000C0B20090CEB200200121062242431219F6
:104E2000401CC0B251710928F7D31E2E00D91C2690
:104E300000981E2801D91C2000905448016802687F
:104E40008907C90F1204D20F520011430268D2071A
:104E5000520F11434E4A13681268DB071B0F1943A8
:104E60009207D20F12011143026800689206D20F16
:104E7000520111430005C00F80010143002501913B
:104E80002C460620404A4443135D980713D5A018CA
:104E9000817800290CD01746019A4378EA40D2075E
:104EA000D20F934216D0491E81700021C1705CE080
:104EB000FD20034013550198E840C00715D0A718FE
:104EC0007878002859D0D80737D000201055012015
:104ED000B8704AE0C178491CC9B2C170B14244D32C
:104EE000395DFD20014039553FE0A7187878012849
:104EF00043D0D8B2C10718D0787901281AD0002041
:104F0000B978491CC9B2B97081422ED9294601200D
:104F1000FEF7BEFE01201C4A7870105D0221084396
:104F20001055BE70002078711FE001210843105514
:104F3000B9701AE013488078E2E77879012819D02F
:104F40000020B978491CC9B2B97081420DD92946EF
:104F50000020FEF79DFE00220B4B7A70195D0220A7
:104F6000014319550098B8707A716D1CEDB2072D88
:104F700086D3FEBD03480079E3E70020A8E70000E0
:104F800020020020080F002034020020008004408E
:104F900000400440F0B526A00FC885B06C460FC491
:104FA000274908680968C006C00F40000907C90FF3
:104FB000244C08436074217C6A4689000143515C9B
:104FC0002074002931D0E174A07CA1740818000677
:104FD000000E2AD0C10728D11B4922460B780C218C
:104FE0005156527B02252646012730362A43FA289D
:104FF00002D006280BD016E0012B06D00821012094
:10500000FEF746FEB570F7700DE0491E09E0012B72
:1050100006D007210120FEF73BFE3570777002E0D5
:10502000491C217362730020A07405B0F0BD00001C
:1050300000FD0300030000FDFD0000030003FD0070
:105040000080044054000020BF00002010B500F094
:10505000ADFA1248426A20210A43426200BF00BFF3
:1050600000BF00BF00BF00BF826A0A4382625A21AC
:105070003A20FCF7E3F93720FDF7F6FD0220FCF7B4
:10508000ADF90320FCF7AAF90420FCF7A7F90520E5
:10509000FCF7A4F90620FCF7A1F910BD004004407C
:1050A00010B500F0F5F910BDF8B50125094C471809
:1050B00009E04105090E43075B0F625C2E469E40E6
:1050C00032436254401C8742F3D800214020FFF74E
:1050D0002BFEF8BD180E0020FFB507467F4883B0B1
:1050E000016A049800261C4681427DD13846FDF7AE
:1050F000B1FE05463846FDF7D5FE0746049801196E
:10510000B94202D90498381AC4B2E8190222694691
:10511000FFF7F2FD002D68D0002FFCD06846008814
:105120006F49884201D000285FD16C4E2146B28978
:105130000598FDF723FBB081B069211840290AD2F8
:105140006849224608180599FBF738F8B069001934
:10515000B061012645E040210A1A62495F4E0818F5
:105160000599FBF72BF8F0695E4A80014019102180
:10517000FBF70CFC00284FD0002658494023C86993
:10518000401CC861019088690599181A221A402AA2
:1051900046D9411840225348FBF710F80198514A6C
:1051A000800140191021FBF7F1FB002836D00026C2
:1051B0004A484A49C069401CC86108468169402084
:1051C000401A0599221A411846484031403AFAF7E8
:1051D000F5FF424881694020401A211A3F48403972
:1051E00081610498001901E06EE034E00190B8425A
:1051F00028D300BF00BF00BF38498869821C402AFD
:105200002CD8384A0E461218317B1170717B5170C0
:105210003E21091A901C48E00126AEE70126C7E7A7
:1052200041183048FAF7CAFF2C4881694020401ADB
:10523000211A2A48D4E7002128484A1EC161816109
:1052400082810162002E06D00198B84203D2234821
:10525000016A09190162304607B0F0BD40210A1AFF
:1052600020491E4E081831460C31FAF7A7FFF069A5
:105270001C4A800140191021FBF788FB307E3E3824
:10528000C0B2F070F169491CF16102210A1A31467D
:1052900050000C3141181348FAF790FFF0783E2186
:1052A0000222091A121A0F481018FAF7E4FFF069DF
:1052B0000C4A800140191021FBF768FB002801D03F
:1052C0000026B8E70126B6E7002104484A1EC1615E
:1052D000816182810162C170BDE700001800002079
:1052E000FFFF0000D80D00200149887670470000BC
:1052F00060090020F3B581B001981F490027401EC6
:10530000884213D80198FEF7D1F900280ED11B4D21
:10531000288F64280AD21A4E00240E206043305A87
:10532000400405D0641CA4B2642CF6D33846FEBDFC
:105330000298801CFEF714FB0200F7D020460E21D5
:105340004843315A019BC90B5B04C9035B0C1943E9
:105350003152811948784006400E48704A80091D34
:105360000298FAF79DFF288FE1B2401C2887202081
:10537000FFF7DAFC0127D9E7FE7F00004009002093
:105380000004002070B5054611480A46058041809A
:1053900032211046FAF78CFF0446010A0F20FCF771
:1053A0004DF8E1B20E20FCF749F832212846FAF711
:1053B0007FFF0446010A2F20FCF740F8E1B22E20BF
:1053C000FCF73CF800210220FFF79EFC70BD0000B6
:1053D0008000002070B50A46054632211046FAF7D3
:1053E00067FF0446010A0F20FCF728F8E1B20E20FF
:1053F000FCF724F832212846FAF75AFF0446010A3E
:105400002F20FCF71BF8E1B22E20FCF717F8002143
:105410000220FFF779FC70BD70B500242A20FBF74D
:10542000DDFF002811D015211320FCF707F80D200F
:10543000FDF71AFC2620FBF7D1FFBE2805D1252059
:10544000FBF7CCFFEF2800D1012480213D20FBF7A2
:10545000F5FF0E4D0020287200F0A8F80120FDF79E
:1054600003FC287A372800D900243D20FBF7B6FF3B
:10547000C02801D0002CEFD100213D20FBF7DEFF3A
:1054800020211020FBF7DAFF204670BD1E0200200D
:105490001FB50020184C0090019002900390607A94
:1054A000002805D1FF215020FBF7C8FF01206072C2
:1054B00069465020FBF73CFF694608782070497820
:1054C000617069468979A1706946C979E170694658
:1054D000097A21716946497A61716946897AA171AF
:1054E0006946C97AE171000605D568464088608141
:1054F00068468088A0811FBD1E02002010B50021D3
:105500001020FBF79BFF1D211320FBF797FF0A20BC
:10551000FDF7AAFB18211320FBF790FFC820FDF729
:105520007BFB0123044A0549E220FBF7A9FFC820C1
:10553000FDF772FB10BD0000FE0F0000285E0000AA
:1055400010B5002400F032F8FFF780FDFFF7D6FF1A
:10555000FFF762FF641CE4B2002801D1062CF1D3EE
:105560000948CE22017A51430A1810462130417968
:105570000079090201432332507812780002104367
:10558000FFF700FF10BD0000080F00200548044988
:105590000160054A002191600149FE318160704738
:1055A0000000FA5A0000014000E0054002490148AD
:1055B000C8607047AA55FA5A0000014070471201AE
:1055C000000200000040241020210101010200011E
:1055D00005010902A1010901A10005091901290517
:1055E000150025019505750181029501750381015D
:1055F0000600FF094009411581267F0095087502C4
:105600008102050109381581257F750895018106FC
:1056100005010930093116018026FF7F75109502BA
:105620008106C0050C09001580257F95407508B1DD
:1056300002C0050C0901A101850119002A3C0215CF
:1056400000263C02751095018100C005010980A16A
:1056500001850219812983150025019503750181B2
:1056600002750195058101C005010906A1018503A7
:10567000050719E029E71500250175019508810244
:105680009501750881019505750105081901290520
:10569000910295017503910195067508150026FF85
:1056A00000050719002AFF008100C006A0FF0901BC
:1056B000A10185040902150026FF0095407508B177
:1056C00002C006FFFF0901A1018505090115002699
:1056D000FF00950375088102C0050C0901A1018531
:1056E00001150025019520750109B509B609B7090D
:1056F000CD09E009E209E309E409E509E909EA0A53
:1057000052010A53010A54010A55010A8A010A2169
:10571000020A23020A24020A25020A26020A270292
:105720000A2A020A92010A94010A83010A02020A61
:1057300003020A07020A18020A1A0209B88102C003
:1057400005010980A1018502198129831500250120
:10575000750195038102750595018101C00600FF61
:105760000901A10185031AF1002AF800150025019D
:10577000750895028102C009023B00020100A04B9E
:1057800009040000010301020009211101000122A6
:1057900062000705810308000109040100010301FB
:1057A000010009211101000122A700070582030958
:1057B0000001040309040E03580041004E004F008D
:1057C000560041003C03580041004E004F00560077
:1057D0004100200058004D00330038003000200008
:1057E000500072006F002000470061006D006900EA
:1057F0006E00670020004D006F00750073006500AB
:105800000100000012000000BE5500000200000070
:105810003B00000077570000030000000400000078
:10582000B25700000309000004000000B257000056
:10583000030001000E000000B6570000030901003C
:105840000E000000B6570000030002003C000000FC
:10585000C4570000030902003C000000C4570000C8
:10586000050000000700000092570000050000003E
:10587000070000009257000021000000090000000E
:10588000895700002101000009000000A257000014
:105890002200000062000000D0550000220100003C
:1058A000A700000032560000220200009E00000007
:1058B000D956000000050000FF000000FFFF0000B7
:1058C00000FF000000FFFF000000FF001C000000C0
:1058D000FFFFFFFFFFFFFFFFFFFFFFFFFFFFFFFFD8
:1058E000FFFFFFFFFFFF00001204081C081C01015E
:1058F0000005010203FFFFFF3700FF0103FFFFFF69
:105900003700FF0303FFFFFF3700FF400640060597
:105910000200900190019001200320032003400623
:1059200040064006800C800C800CC012C012C012D1
:105930000100010001000100000000000000000063
:105940000200010001000200000000000000000051
:10595000030001000100030000000000000000003F
:10596000040001000100040000000000000000002D
:10597000050001000100050000000000000000001B
:105980000800020001000100030000000000000008
:105990000B000600010006000000000000000000EF
:1059A00009000100010009000000000000000000E3
:1059B0000A00010001000A000000000000000000D1
:1059C000020203FFFFFF3700FF0103FFFFFF370065
:1059D000FF0303FFFFFF3700FF40064006050200FC
:1059E000900190019001200320032003400640060F
:1059F0004006800C800C800CC012C012C012010046
:105A00000100010001000000000000000000020091
:105A1000010001000200000000000000000003007F
:105A2000010001000300000000000000000004006D
:105A3000010001000400000000000000000005005B
:105A40000100010005000000000000000000080047
:105A500002000100010003000000000000000B0034
:105A60000600010006000000000000000000090020
:105A700001000100090000000000000000000A0011
:105A8000010001000A000000000000000000030205
:105A900003FFFFFF3700FF0103FFFFFF3700FF0396
:105AA00003FFFFFF3700FF4006400605020090019C
:105AB0009001900120032003200340064006400689
:105AC000800C800C800CC012C012C01201000100BA
:105AD00001000100000000000000000002000100C1
