:020000040000FA
:100000006817002091010000950100009701000091
:1000100000000000000000000000000000000000E0
:100020000000000000000000000000009901000036
:1000300000000000000000009B0100009D01000086
:100040009F010000F51C00000000000000000000FF
:1000500000000000000000009F0100000000000000
:1000600000000000000000009F01000000000000F0
:100070009F0100009F0100009F0100009905000002
:10008000E106000000000000000000000000000089
:100090000000000000000000000000000000000060
:1000A0009F0100009F0100009F0100000000000070
:1000B0009F010000E91200009F010000BD12000036
:1000C00000F002F800F030F80CA030C8083824180E
:1000D0002D18A246671EAB4654465D46AC4201D180
:1000E00000F022F87E460F3E0FCCB6460126334282
:1000F00000D0FB1AA246AB46334318478C6E000073
:10010000AC6E00000023002400250026103A01D325
:1001100078C1FBD8520700D330C100D50B607047BF
:100120001FB51FBD10B510BD00F072F91146FFF7E5
:10013000F7FF03F05FFC00F08AF903B4FFF7F2FF6A
:1001400003BC00F091F9000001480160014800473C
:10015000240006400103FF1F70B505460C461646F5
:1001600002E00FCC0FC5103E102EFAD2082E02D39B
:1001700003CC03C5083E042E07D301CC01C5361FAE
:1001800003E021782970641C6D1C761EF9D270BDC5
:1001900006480047FEE7FEE7FEE7FEE7FEE7FEE76C
:1001A00003480449024A044B70470000C1000000A4
:1001B000681500206817002068150020F8B5042A8B
:1001C0002CD3830712D00B78491C0370401C521E9D
:1001D00083070BD00B78491C0370401C521E830709
:1001E00004D00B78491C0370401C521E8B079B0FD8
:1001F00005D0C91ADF002023DE1B08C90AE0FFF77B
:10020000ABFFF8BD1D4608C9FD401C46B4402C4359
:1002100010C0121F042AF5D2F308C91A521EF0D4D6
:100220000B78491C0370401C521EEAD40B78491C01
:100230000370401C012AE4D409780170F8BD01E084
:1002400004C0091F0429FBD28B0701D50280801C42
:10025000C90700D00270704700290BD0C30702D035
:100260000270401C491E022904D3830702D5028074
:10027000801C891EE3E70022EEE70022DFE7037817
:10028000C2781946437812061B0219438378C07856
:100290001B04194311430902090A00060843704769
:1002A000020A08704A70020C8A70020ECA70704707
:1002B000002203098B422CD3030A8B4211D3002363
:1002C0009C464EE003460B433CD4002243088B423D
:1002D00031D303098B421CD3030A8B4201D39446CA
:1002E0003FE0C3098B4201D3CB01C01A52418309BD
:1002F0008B4201D38B01C01A524143098B4201D377
:100300004B01C01A524103098B4201D30B01C01AA1
:100310005241C3088B4201D3CB00C01A524183081B
:100320008B4201D38B00C01A524143088B4201D348
:100330004B00C01A5241411A00D2014652411046A8
:1003400070475DE0CA0F00D04942031000D340421D
:10035000534000229C4603098B422DD3030A8B4253
:1003600012D3FC22890112BA030A8B420CD38901F1
:1003700092118B4208D3890192118B4204D38901D7
:100380003AD0921100E08909C3098B4201D3CB0115
:10039000C01A524183098B4201D38B01C01A5241CA
:1003A00043098B4201D34B01C01A524103098B42CE
:1003B00001D30B01C01A5241C3088B4201D3CB00B9
:1003C000C01A524183088B4201D38B00C01A52419C
:1003D000D9D243088B4201D34B00C01A5241411A73
:1003E00000D20146634652415B10104601D34042A1
:1003F000002B00D54942704763465B1000D3404252
:1004000001B50020C046C04602BD70477047704726
:10041000754600F025F8AE46050069465346C0080B
:10042000C000854618B020B5FFF7BAFE60BC0027B3
:100430004908B6460026C0C5C0C5C0C5C0C5C0C5B0
:10044000C0C5C0C5C0C5403D49008D46704710B508
:100450000446C046C0462046FFF76FFE10BD0000B0
:10046000004870470815002001491820ABBEFEE780
:1004700026000200704770B58C180578401C6B0789
:100480005B0F01D10378401C2A1106D10278401C71
:1004900003E00678401C0E70491C5B1EF9D12B0747
:1004A00005D40023521E0DD40B70491CFAE70378C3
:1004B000401CCB1A921C03E01D780D70491C5B1C7C
:1004C000521EF9D5A142D8D3002070BDF8B52A4EEE
:1004D000307801281CD1294800250078284C0128B3
:1004E0001ED1284A1068284FC3072046408B274951
:1004F00007D11368DB0BDB0703D112685208D20760
:1005000007D02279012A0BD0B84201D20D70657054
:10051000F8BD62780123002A1BD0B8421CD30D70AD
:100520001B48002105705520A0704A2000F0ECFF08
:100530000A201021A071E17102226271217265729C
:100540000B4600F059F9658365702079002805D0C5
:100550000FE0658363700D700B70F8BD03210A20F6
:1005600004F07CFC0B4905200870A07B082108439F
:10057000A07335702571F8BDC5000020BF000020B4
:10058000540000200080044088130000E400002094
:10059000C4000020880D002010B5012080074069AC
:1005A000C0075AD02D48416AC90756D0012181623F
:1005B0002B4A00204100535A5B1C5352401CC0B2CE
:1005C0000528F7D327490888401C08802648017869
:1005D000491C017025480178491C0170244908888C
:1005E000002801D0401E088022490888002801D038
:1005F000401E088020480168C9070BD10168C90B5B
:10060000C90707D100684008C00703D11B4801880B
:10061000491C01801A480078012803D1194908882B
:10062000401C08801849194A0868904201D2401CB1
:10063000086017488068C0070FD016480078022865
:100640000BD315490888401C088002F01BFF134992
:100650000888002801D0401E088010BD800000409E
:10066000F00E0020E6000020E80000202602002016
:10067000C2000020B2000020008004406E00002074
:1006800069000020880000208C000020FFFF090086
:100690009C0E0020C0000020E20000202C02002060
:1006A00010B50E4801684022114301602F21100649
:1006B00081607D21C9000162032141610221016045
:1006C00001688907FCD401680122114301600F20F1
:1006D00001F0C2FE0F2001F0E7FE10BD00E0054072
:1006E00000200249C043886270470000802000401B
:1006F0001D4908688022104308601C4A2F20906022
:100700001A4BFF2080331860002010625062906204
:10071000D06210635063154940318861C861086236
:10072000486288628860C860C862086348638863FA
:10073000C8630F491962D96158619861D069511431
:100740000843D061106802210843106010688007D8
:10075000FCD41068012108431060080405490860B2
:10076000054908607047000000E005400020004097
:100770003FCCFF0080E200E000E100E030B51C4B20
:100780001C49586A0978FF2442185A62187F997FD9
:100790000134802800D9201AC0B2802900D9611AFA
:1007A000134DC9B22C352C88A408641C44436888B6
:1007B0008008401C4843996A201840189862197DA7
:1007C000491CC9B21975102911D11103090C1984DA
:1007D0000003000CFF223F3200211883904202D90F
:1007E0000120187000E0197019755962996230BDC6
:1007F000540000202002002010B50C4601462C2099
:1008000000F082FE21462B2000F07EFE10BD00008D
:10081000F8B5394C206821688007C00F0904C90F5A
:10082000490008432168354FC907490F0843396813
:100830008907C90FC90008433968C907C90E0843A9
:1008400021688906C90F4901084321680422090566
:10085000C90F890108432A4901262A4D272810D0AB
:1008600063280AD0652804D066280FD12E7008208E
:1008700001E002202870887108E0032028708A7146
:1008800004E02A708E7101E004F03CFF20682168CA
:100890008007C00F0904C90F490008432168C90730
:1008A000490F084339688907C90FC90008433968E7
:1008B000C907C90E084321688906C90F49010843C1
:1008C00021680905C90F89010843C0434006DBD1EF
:1008D0002878002807D00021082004F0CFFA0A4920
:1008E00064200870F8BD09490320087008480168B1
:1008F00031430160F8BD0000008004400040044026
:10090000180F0020B4000020C9000020D4000020EF
:10091000D000002070B5044616460D4601200AE0BE
:1009200004F0F0FE32461021204600F007F8C0B275
:100930004034002801D1AC42F2D370BD0B494A6863
:1009400004239A434A6002228A6008618868402230
:100950001043886000BF4868C007FBD14868400763
:1009600001D501207047002070470000002006409C
:10097000F0B50746002416460D4601200BE0A00105
:100980008219C019102100F009F8641CC0B26D1E54
:10099000E4B2002801D1002DF1D1F0BD30B5114BEA
:1009A0005C680425AC435C6001249C60186100BF56
:1009B0005868C007FBD103E001CAD86000BF491ED8
:1009C0000029F9D1986840210843986000BF586811
:1009D000C007FBD15868400701D5012030BD002079
:1009E00030BD00000020064010B5104C2078A12832
:1009F00008D10F4841690122D20211434161207997
:100A0000002803D0002001F07BF810BD0848803892
:100A1000017C002002F006FA20690121C903084385
:100A200020610121002000F0E7FF10BD9C0E002096
:100A3000CC03002010B5104C2078A12817D10F4806
:100A40004069C1040E4801D4012141742179012972
:100A50000DD8417C002002F0E5F920690121C9038D
:100A6000084320610121002000F0C6FF10BD0020D6
:100A700001F046F810BD00009C0E0020CC030020C1
:100A80004C03002010B515480178A1291FD18168B9
:100A900001291CD10179C078002902D0012910D088
:100AA00015E0012804D0022805D0032806D00EE066
:100AB00000F03AF810BD00F05FF810BD00F012F839
:100AC00010BD0749497C012901D1012803D000202C
:100AD00001F016F810BD00F03BF810BD9C0E002090
:100AE0004C03002010B50C48C178032905D10179C9
:100AF000002902D18078002804D00021084600F0A7
:100B00007BFF10BD05494020086006490448086085
:100B100001F0F6FB10BD00009C0E00209C000020A0
:100B2000B00E00209800002010B507490020086092
:100B3000064801690122D203114301610821002006
:100B400000F05AFF10BD00009C0000209C0E002009
:100B500010B5074900200860064801690122D20348
:100B6000114301610521002000F046FF10BD000087
:100B70009C0000209C0E002010B508480178002041
:100B800002F050F9064801690122D20311430161C4
:100B90000121002000F030FF10BD00004C030020B8
:100BA0009C0E002010B50F490878212816D108693D
:100BB00001221204104308610B4842690123DB0241
:100BC0001A4342610879012808D8C8780649803953
:100BD00008740021084600F00FFF10BD002000F04F
:100BE0008FFF10BD9C0E0020CC03002010B5134ACF
:100BF000107821281DD11248416901231B03194394
:100C000041611179012914D89178002904D14369EF
:100C10000324A402A3434361094880384174106946
:100C200001210904084310610021084600F0E4FE98
:100C300010BD002000F064FF10BD00009C0E0020DD
:100C4000CC03002010B50D48017821290FD101797E
:100C5000C078002902D0012907D008E002280AD074
:100C6000032804D100F00CF810BD022803D00020A6
:100C700000F046FF10BD00F00FF810BD9C0E0020E4
:100C800010B50449012088740021084600F0B4FE24
:100C900010BD00004C03002010B508480169012276
:100CA00012041143016106484169D21111434161A7
:100CB0000021084600F0A0FE10BD00009C0E0020A0
:100CC000CC03002070B504780A4D002C02D02E7899
:100CD000A41B04700878984203D02A788018087002
:100CE00070BD1078401CC0B210700328F8D10020ED
:100CF000107070BDCF000020084A10788C2809D2EF
:100D00000749084B095C1970074B401C1970074BC9
:100D1000197000E00020107070470000D50000201E
:100D2000FC5E0000D6000020D7000020D800002084
:100D300070B51F4802881F49097808318A4236D3A6
:100D4000002505801C4C1D4E2078C00701D00022D4
:100D50000DE03078012806D0022807D0032809D0FA
:100D600004280FD109E00022114608E0FF220021EB
:100D7000002005E00022FF21FAE7FF221146FF20B4
:100D800000F026F92078401CC0B2207018280ED33D
:100D900035700B482570017AD02251430818094953
:100DA000007B08700848012201681143016070BD92
:100DB000F00E0020C9000020B5000020B400002083
:100DC000180F0020D4000020D000002000B50648F5
:100DD00082880649897808318A4203D300218180BC
:100DE000FFF78AFF00BD0000F00E0020C9000020C0
:100DF0000848D022017A514308180749007C8870BE
:100E0000064900200870064908700649087006491E
:100E100008707047180F0020C9000020D50000207E
:100E2000D8000020D7000020D600002010B5FFF722
:100E3000DFFF00F051F800F0A3F810BD30B5A9B005
:100E4000A0221C496846FFF787F91B4802891B4905
:100E5000097908318A420ED3002202811849194CBF
:100E60000868194D030608D58022904308600120C8
:100E700028704F20207029B030BD21780029FAD089
:100E80004B006846C05A114B800A1870104B491E1F
:100E90001870104BC9B21870034603432170034306
:100EA00006D02829E7D228780128E4D12A70E2E781
:100EB0002270F8E75C5E0000F00E0020C900002000
:100EC000D0000020DD000020CE000020DE00002049
:100ED000DF000020E00000200A48D022017A5143C0
:100EE00008180949007C087108480078002807D1D3
:100EF00007490870074908700749087007490870D2
:100F000070470000180F0020C9000020CE0000200C
:100F1000DD000020E0000020DF000020DE000020D7
:100F200000B51148C2881149C97808318A420FD3E7
:100F30000021C1800E48007800280AD001280DD079
:100F4000022805D1FF230A4A0A490B48FFF7BAFED7
:100F500000BDFF23064A09490648F7E7FF23044A74
:100F600005490648F2E70000F00E0020C900002005
:100F7000D9000020DA000020DC000020DB00002087
:100F800010B50C49FF2008700B48002404700B4872
:100F9000D02204700A48017A51430818007C0521C8
:100FA000FFF786F90749C87007490120087007480C
:100FB000047010BDDA000020DB000020DC000020FF
:100FC000180F0020C9000020CF000020D900002009
:100FD00030B5064D01235C001C19285564195B1CB3
:100FE0006170DBB2A270062BF5D330BD3413002044
:100FF0001648D022017A514308182030007A144A4A
:1010000081001448535C036289184A7842628978E7
:1010100081621149CA78C2620A7902634A794263DD
:101020000C488A7940304263CA7982630A7AC26383
:101030004A7AC260826142628A7AC262C261826214
:10104000C97A01630162816070470000180F0020B7
:10105000105A00000020004034130020F8B5644905
:1010600000260868C20704D0400840000860FFF767
:10107000DDFE60480078002802D0FFF759FEB3E09B
:10108000FFF7A4FEFFF7DAFEFFF74AFF01255A48F3
:10109000D022017AF70051430918CC19217B0B00AB
:1010A00001F0CCF9059377045B449B00607C002839
:1010B00011D0FF21002003F095FE69460870FF2142
:1010C000002003F08FFE69464870FF21002003F0E6
:1010D00089FE694605E0607B69460870A07B487020
:1010E000E07B88704448D022017A454B5143081870
:1010F0006A461178C019414A807C127841435143B5
:101100000A0C690069185A546A463E4C5278247891
:1011100042436243120CC9184A706A46927850439F
:10112000394A12785043000C887056E0374AA07C48
:10113000617B1278414351430A0C6900304B6918B6
:101140005A54334FA27B3F7842437A43120CC9185A
:101150004A70E27B50432F4AE3E72F48A47C007893
:10116000FF216043FFF7A4F869006F182449C855B0
:101170002A48FF2100786043FFF79AF820497F183A
:1011800078702748FF2100786043FFF791F8B87026
:1011900023E0607BA77CFF217843FFF789F8690093
:1011A0006918174A00915054A07BFF217843FFF73C
:1011B0007FF8134A0099891800914870E07BFF215D
:1011C0007843FFF775F80099AEE768000C4A0021F4
:1011D00028181154801841708170761C6D1CF6B26D
:1011E000EDB2032E00D252E7FFF702FFF8BD000078
:1011F000D0000020B4000020180F0020D6000020EE
:1012000034130020D7000020D8000020DE0000208A
:10121000DF000020E0000020DA000020DB000020DA
:10122000DC00002010B51F484268C1140A43426028
:1012300002680A430260426801150A43426002687C
:101240000A430260426841150A43426002680A4349
:101250000260426881150A43426002680A430260E4
:10126000B6213B2000F050F9322001F0BBF80E48C7
:10127000416A202211434162000401684908490083
:1012800001600A48016849084900016007480849A7
:10129000803041618161322001F0A4F8064905489F
:1012A000086010BD00A00440004004400020004041
:1012B000AAAAAAAA0000FA5A0000014010B51F20ED
:1012C00001F0D6F8064903200862064801690122A8
:1012D0009204114301611F2001F0D6F810BD0000F7
:1012E000004004409C0E002010B51D2001F0C0F805
:1012F00009480169094C890709D509492162016931
:1013000001229204114301611D2001F0BDF8182053
:10131000206203F0E9FE10BD9C0E00200080044016
:101320003B88000002480168024A1143016070478F
:10133000002004403FC007000548016849084900F3
:101340000160044801680122120391430160704763
:1013500000C0014000E00540074801680122120377
:1013600011430160054801680122114301600168D1
:10137000C02211430160704700E0054000C00140F9
:1013800010B51B480168012212031143016019487E
:1013900001680F221202914307221202891801608C
:1013A00001680822914301600168022291430160B3
:1013B00001680422914301608168090A09020B3126
:1013C00081600621416001681204114301600A49ED
:1013D0004B6A202213434B620368C02423430360FB
:1013E0004B6813434B60016801221143016010BD3B
:1013F00000E0054000C0014000400440F8B5284D21
:101400000C462968C02739432960264EB16A20223C
:101410001143B162E861E868C006FCD4E869694636
:1014200008700C2000F0FEFFFF20E861E861E86131
:10143000E861E861E861E861E861E968C906FCD44F
:10144000E9684907FCD4E9692170E9696170E969D3
:10145000A170E969E170E9692171E9696171E9697E
:10146000A171E969E171296839432960E861E8619E
:10147000E861E861E868C006FCD4E8684007FCD48D
:10148000E8692072E8696072E869A072E869E07250
:10149000706A202108437062042000F0B3FFF8BD99
:1014A00000C0014000400440F8B5154C2168C0223E
:1014B00011432160134DA96A20263143A962E061DE
:1014C000E068C006FCD4E06969460870142000F0AA
:1014D00099FFFF20E061E068C006FCD4E0684007A7
:1014E000FCD4E06969460870032000F095FF686A43
:1014F00030436862162000F085FF69460878F8BD21
:1015000000C001400040044038B50E4CA26A2025BE
:101510002A43A262802210430B4AD061D161D06875
:10152000C006FCD4D06969460870D06908700320F1
:1015300000F072FF606A28436062162000F062FFCC
:1015400038BD00000040044000C00140FFB581B03C
:1015500004992027224E002904D0012913D0022902
:1015600005D102E0B16A3943B1620221B162802142
:101570001C4D0843E861E868C006FCD41E2000F05A
:101580004BFF00240DE0B16A3943EFE70298005D9C
:10159000E861E868C006FCD41E2000F03DFF641C32
:1015A000A4B203988442F1D3E868C006FCD41E209C
:1015B00000F032FF0498002804D001280CD0022843
:1015C00005D102E0706A3843706202207062162012
:1015D00000F018FF05B0F0BD706A3843F6E7000070
:1015E0000040044000C0014010B5214AD068214CA1
:1015F000C006C00F04D0002807D07D20000203E001
:101600001068012801D11C48206010694007400F74
:10161000030000F013FF080507090B0D0F11131449
:1016200001210CE002210AE0042108E0082106E083
:10163000102104E0202102E0402100E08021206808
:10164000FEF736FE0D4A0E492060904206D90D483D
:101650000860401C08600B48093007E00A4A9042C5
:1016600002D90848401E01E00648001F086010BD6E
:101670000000064030020020006CDC0200366E01E3
:10168000002006400400FA5A001BB7000D480C4920
:101690000160491C01600A49093101600A480121C1
:1016A00001608168C907FCD00021C160C16849069A
:1016B000490FFBD10169C908C900016170470000E9
:1016C0000400FA5A002006400000064010B5FEF75C
:1016D000E7FFFFF70DF810BD70B51A4D28784406E6
:1016E000640E000602D5002000F00AFA002C1AD081
:1016F000022C17D1A878002814D12879002240069E
:10170000400E114BE103002817D002280AD8AC681C
:10171000012C07D11A542869084328610021084682
:1017200000F06AF970BDA8780128FBD128698021F2
:101730008843286128690549EEE728698006F1D5C4
:101740001A70E8E79C0E00209100002000010100C3
:101750000349CA6B012383409A43CA637047000060
:1017600000C005401B061204134309020B43184333
:1017700070470000034801690348C840401EFDD27D
:101780007047000000000640DC05000003480169C6
:101790000348C840401EFDD27047000000000640CC
:1017A0008038010070B501201D4E8005B0601D4DD0
:1017B000A87C022815D10020A87468691A498842BB
:1017C0000DD1A8691949884209D10024A00000213F
:1017D00001F028FB641C402CF8D3FEF7B5FC042074
:1017E000A874134C2069134D400609D52069402187
:1017F00088432061207BF060002000F081F907E041
:10180000E088002808D02069C00305D400F078FDE6
:101810002069A843206170BD002000F071F970BDFF
:1018200000C005404C030020AA55A55AFF0033CC48
:101830009C0E002000000100F8B501213F48490539
:1018400081603F4EB07C3F4F01281CD0344680342D
:10185000606980050ED560690913884360610020C6
:1018600001F0CEFA3868000A30706069012149033E
:1018700008436061344C2069000450D400210846BC
:1018800000F0BAF854E00024A500284601F0B8FAA8
:101890002E4A1078402807D32B49C988402903D9FC
:1018A0003968AB19596502E03968AB1959612649A5
:1018B000CB78032B0DD10B79002B0AD18B78002B21
:1018C00007D10B78212B04D14978092901D1001DBA
:1018D0001070641C102CD7D30220B07470691C499E
:1018E0000124884203D1B0691A49884203D01A48BA
:1018F000017821430170194E30780028BAD1134D78
:1019000028784028B6D30E49402214311448FEF7F7
:1019100055FC34700020287011480470AAE707486D
:101920004168C90104D481690122D2061143816151
:1019300020690121C90388432061F8BD00C005402A
:101940004C030020AC0000209C0E0020B6000020BC
:10195000AA55A55AFF0033CC14000020C80000206F
:10196000B00E00207CB53320204CC004A0600020C5
:1019700000F0BCF86068400330D41D4C206903219E
:10198000C90388432061002001F03AFA194D286804
:101990000090042001F034FA286801900098C0B249
:1019A00020700099090A61700099090CA1700099D2
:1019B000090EE170019921710199090A617101997A
:1019C000090CE1806021084002D0202803D008E003
:1019D00000F0A2FB7CBD00F05BF97CBD012080041F
:1019E000A060002000F08CF87CBD000000C0054025
:1019F0009C0E0020AC000020042806D8034A80007A
:101A000080180522520789180160704718C00540E8
:101A1000421E032A04D8034A800080188038C16718
:101A20007047000048C00540042804D802498000DF
:101A3000401800210160704718C00540F7B5054601
:101A400024498000164641180A6882B0002A02DB49
:101A5000022005B0F0BD002D03D0042D01D8402E8A
:101A600001D90420F5E70968490F042901D00120B4
:101A7000EFE71949495D002904D0284600F040F8F5
:101A80000320E6E7154941180968B14201D2052053
:101A9000DFE7134940188038C06F0090B007B708DF
:101AA000002800D07F1C002407E00399A000009AC2
:101AB0000958801801F0C4F9641CBC42F5D3F1B296
:101AC0002846FFF799FF0749002048550649485521
:101AD000BFE7000018C0054091000020880E0020DC
:101AE000780E0020B7000020BB000020042804D896
:101AF00002498000401809070160704718C005407E
:101B000004280CD8064A81008918002804D104480A
:101B100018384068C00102D40720400708607047A9
:101B200018C0054070B50E4DA968002001F07AF983
:101B3000A868012806D101242046FFF7D7FF641CBE
:101B4000022CF9D90749002008602869032189037C
:101B50000843286101210020FFF74EFF70BD0000FF
:101B60009C0E00209C000020F8B5184F0020FA7849
:101B70003D79174BBC7884460C26014671435E5C68
:101B8000B24210D1C9184E78B5420CD18E78B44209
:101B900009D10C225043C0180E4A80881060886812
:101BA0000D49086005E0401C1028E5D36046002878
:101BB00007D038690121C9030843386100F0A0FB50
:101BC000F8BD0020FFF79CFFF8BD00009C0E002030
:101BD000585900009C0000209800002010B50E4CC1
:101BE000A068012814D12078812811D120790128FA
:101BF0000ED80A49095C002001F014F9206901217E
:101C0000C9030843206101210020FFF7F5FE10BD44
:101C10000020FFF775FF10BD9C0E0020A0000020E3
:101C200070B5194D28784406640EC00901D1FFF73C
:101C300067FF0126F603002C15D0012C1AD0022CC8
:101C400010D128794006400E02280BD80F49095CB4
:101C5000002001F0E7F828693043286102210020C4
:101C6000FFF7CAFE70BD2869000601D50221EFE723
:101C70000021EDE7A8680128F4D168790028F1D1A6
:101C800028790128F4D970BD9C0E00209100002015
:101C900010B511484078030000F0D0FB0C19070A7A
:101CA0000D191919191910131619FEF7EBFE10BDAD
:101CB000FEF79AFE10BDFEF7BDFE10BDFEF7C2FF97
:101CC00010BDFEF76FFF10BDFEF790FF10BD0020A6
:101CD000FFF716FF10BD00009C0E002004487D2178
:101CE0000174012141740021817480304161704789
:101CF0004C03002070B5414D6C684148A860002C31
:101D000008D0600F15D0002C07DA00F011F900F0B0
:101D1000E7F853E000F00CF970BD600002D500F068
:101D2000C5FA4BE0A00049D500F002F900F0F2F846
:101D300044E02002C00E18D0200202D5FFF712FEA8
:101D40003CE0600202D5FFF72DFD37E0A00202D58E
:101D5000FFF772FD32E0E002800F2FD00320C004B5
:101D6000A8600020FFF7CCFE28E02005000F13D06C
:101D7000E00502D5FF200130A860A00502D50120B2
:101D80004002A860600502D501208002A8602005FD
:101D900014D50120C00210E020070FD0E00701D0C9
:101DA0000120A860A00701D50220A860600701D526
:101DB0000420A860200701D50820A8606001ABD5E9
:101DC00028684000A8D500F0BBF80E4900234878E9
:101DD0000D4A002802D0401E487003E050780028C9
:101DE00000D053708878002802D0401E887070BDE3
:101DF00090780028FBD0937070BD000000C00540B3
:101E0000FFFFFBFEBB000020B700002070B500F014
:101E1000B1F9FFF763FFFFF739FCFFF7E5FB214856
:101E2000016810221143016040210120FFF7F0FDFD
:101E300080210220FFF7ECFDC0210320FFF7E8FD21
:101E4000E0210420FFF7E4FD1748402101608022D3
:101E50004260C0228260E022C26014480160082112
:101E6000416009228260C1600161124C104820600B
:101E70002068C90608432060022060611F25ED0626
:101E8000322000F0AFFA25610A4861044030416217
:101E90000949C162012000F0EBFA012000F010FBBB
:101EA00070BD000000E00540780E0020880E002084
:101EB000100000B000C005400440000000B5074A13
:101EC00006205061FFF756FC05205061FFF75EFCCD
:101ED000506904218843506100BD000000C00540E6
:101EE00010B500200949C0438860094801220261F9
:101EF00000228260CA601046FFF702FE01242046DD
:101F0000FFF792FD641C042CF9D910BD00C00540F8
:101F10009C0E002004480169042211430161034919
:101F2000D0068860704700009C0E002000C005406D
:101F300010B5FFF7ABFBFFF757FB00F033FA10BD0E
:101F400010B501200B49800688600B488068C007E7
:101F50000FD00A48007802280BD3094800780028DF
:101F600001D101F08FFA07480178491C017002F095
:101F7000E9FF10BD00C005409C0E0020C0000020FD
:101F8000E90000206300002010B50D4801692023FE
:101F9000994301610169402211430161817800295F
:101FA00002D002691A43026101730169012212041D
:101FB0001143016100210846FFF71EFD10BD00001E
:101FC0009C0E0020F8B5214E1F4D3069800607D5C4
:101FD000B078102101240027002805D0012810D056
:101FE0000020FFF78DFDF8BDB76030690843306110
:101FF0000127EC553846FFF717FD7F1C042FF8D951
:1020000017E0B46030698843306100242F55002CFC
:102010000CD02046FFF76AFD0D480069611EC840DC
:10202000C00703D000212046FFF7E6FC641C022C09
:10203000ECD93069012109040843306100210846C8
:10204000FFF7DAFCF8BD0000910000209C0E002094
:1020500000C0054070B5184D28784406640E00068F
:1020600002D50020FFF74CFD002C05D0022C09D032
:102070000020FFF745FD70BDA8780128FBD1286935
:102080000E4912E0A8780028F5D128794006400EC4
:10209000411E0129EFD8A9680129ECD1084A115441
:1020A000FFF72EFD2869012109040843286100215A
:1020B0000846FFF7A1FC70BD9C0E002080010100C6
:1020C0009100002010B5114CA06801280CD1104AD5
:1020D000002001461154401C0428FBD92079012816
:1020E00002D8A278002A03D00020FFF709FD10BD16
:1020F000084A1154FFF72CFB206901210904084309
:10210000206100210846FFF777FC10BD9C0E0020DF
:1021100091000020A000002010B515484078030071
:1021200000F08CF90C070A220D2210132216191C3C
:102130001F22FFF775FD10BDFFF7CEFA10BDFFF7A8
:1021400089FF10BDFFF720FF10BDFFF70DFD10BD8B
:10215000FFF7E8FC10BDFFF735FF10BDFFF73EFDB0
:1021600010BDFFF7AFFF10BD0020FFF7C9FC10BD89
:102170009C0E002000200E4A01461154401C0528E8
:10218000FBD30C4A00201154401C0428FBD30A48FE
:10219000017041708170C17001714171C1808160B5
:1021A000017301690122520411430161704700006B
:1021B00091000020A00000209C0E0020F8B5324CB9
:1021C000206902218843206130480078012856D0D8
:1021D0002F49304A304F0020D1607B685B004ED5DC
:1021E0002E4B401C9842F7D37868400047D5386999
:1021F0000921C90688433861206900061AD5284D8F
:102200000020A86068688008800068600A2000F0EC
:10221000F9F82868234D8607B60F0020A860686883
:102220002149084068600A2000F0ECF82D681E483B
:10223000C04305400A2000F0E5F800F03FF8786858
:1022400040001DD5184A1649164BD2437868400005
:1022500016D520690006F9D508688007800FB042BE
:1022600002D0A068012806D018681040A842EDD01E
:10227000A0680128EAD1FFF75BFEFFF71FFEF8BD5B
:10228000FFF756FEF8BD00009C0E0020A4000020C1
:10229000AA55FA5A0000014000C00540E075090047
:1022A0000040044000800440C477FFFF02480169F9
:1022B00002221143016170479C0E002010B50B4AA9
:1022C000002313600A480121C160C168C906FCD51A
:1022D00002210161084C0749216003600748106032
:1022E000106849070843106010BD000000C0054099
:1022F000000006400200FA5A00200640100000B01C
:10230000F8B52348244E046822483168C0888842C2
:1023100000D230603068214F00281FD00025E378BC
:10232000A27861782078FFF71DFA0146A80000F036
:1023300079FD6D1CEDB2241D102DF0D3306838608E
:10234000306840281BD340210020FFF755FB104880
:102350000168403101603068403816E000210846CD
:10236000FFF74AFB3868402806D00D4881690122F2
:10237000120711438161F8BD00203860F8BD306854
:10238000C1B20020FFF738FB00203060F8BD00002C
:10239000980000209C0E00209C000020A800002037
:1023A00000C00540044801690922D20611430161B9
:1023B000012149068160704700C0054010B50848FA
:1023C000006980070BD5FEF72DFFFFF7F7FE00F041
:1023D00081FEFEF765F9FEF78BF900F0FBFE10BDFC
:1023E0009C0E002030B50346044C054D03E0EC6024
:1023F000642000F007F85B1EF9D230BDAA55FA5AE6
:102400000000014003490A693C21D1404143491E73
:10241000FDD270470000064006214843401EFDD211
:102420007047000004490A693C21D14041434808F3
:10243000401EFDD2704700000000064030B47446D4
:10244000641E2578641CAB4200D21D46635D5B00B0
:10245000E31830BC18470000002805DBC106C90E90
:1024600001208840014908607047000080E200E0D8
:10247000002805DBC106C90E01208840014908601B
:102480007047000080E200E0002809DBC106C90EA9
:102490000120884003490860BFF34F8FBFF36F8F5F
:1024A0007047000080E100E0002805DBC106C90E8E
:1024B00001208840014908607047000000E100E009
:1024C000002805DBC106C90E0120884001490860CB
:1024D0007047000000E100E0F8B507461E460C46D4
:1024E0001546104601F05EF900284CD0284600F051
:1024F00075F8002847D12C20444323482418257020
:10250000280A6070E670A770A11D0020FDF7C8FEC4
:1025100021460E310020FDF7C3FE21461231002076
:10252000FDF7BEFE214616310020FDF7B9FE21461B
:102530001A310020FDF7B4FE002020711248214618
:1025400021380A31807E0E46FDF7AAFE010000D137
:1025500001203146FDF7A4FE01266671284600F0F1
:10256000F5FC21462331FDF79BFE284600F016FDC1
:1025700021462731FDF794FE21461E310020FDF74C
:102580008FFE2034E672F8BD8109002070B52C2141
:1025900048430949441812342046FDF770FE0546A9
:1025A0003F2805D0681C2146FDF77AFE284670BDFD
:1025B00021460020F8E700008109002001462C2276
:1025C0005143044A002089184979012900D101208A
:1025D000704700008109002070470000F0B500221C
:1025E000104D15239B010646EB18104611461C8F13
:1025F00014E00E234B43EB5A5F047F0CB74207D124
:102600000E22514349194978C90900D00120F0BD73
:102610005B0401D1521C92B2491C89B2A3188B42AF
:10262000E7D8F0BD00040020F8B500212C4B15229E
:10263000920106469A180D460846148F4BE00E226A
:1026400042439A5A57047F0CB7423ED10E21484369
:10265000C4186688002E17D0201DFDF710FE81B229
:10266000B00100F0EDF80646201DFDF708FE618878
:102670006A468901401801781170407850701088BE
:10268000864201D1012501E0002D27D02689002EA8
:1026900024D020460A300546FDF7F1FD81B2B00195
:1026A00000F0CEF806462846FDF7E9FD21896A4686
:1026B0008901401801781170407850701088864266
:1026C00001D101250AE0002508E0520401D1491C8E
:1026D00089B2401C80B262188242B0D82846F8BD48
:1026E0000004002070B51A4CA079012828D1608A16
:1026F0001849401C80B26082098F0026164D88421E
:1027000002D91EE0401C2082208A0E214143695AD2
:10271000490401D16428F5D380B20E214843285AD8
:102720004004400CFFF780FF002809D1208A0E21C9
:102730004843285A4004400CA082A67103206071CF
:1027400070BDA671A682668226820220F7E700008D
:10275000180000204009002000040020F8B50025E2
:102760002C46124E1CE020460E21484310490746D5
:10277000C85B420410D04004400CFFF755FF00280E
:102780000CD10B4880223818417811434170E1B2D6
:10279000202002F073FB01E06D1CADB2641CA4B2FA
:1027A000308F4019A042DED8F8BD0000400900205B
:1027B0000004002070B50B4D0024E88900280FD1DB
:1027C000687203E002F066FF641CE4B22A20FEF7A0
:1027D0006BFE052801D0032CF4D37D204001E88155
:1027E00070BD00001E02002070B5124C0146207A18
:1027F000D022504305192846273001290DD0002941
:102800000AD1014623220C48FDF7D8FC2946233182
:1028100004220A48FDF7D2FC70BD23220649FDF7C9
:10282000CDFC207AD02148430019042203492330EB
:10283000F0E70000180F0020A80D00208000002005
:1028400010B503460A480CE01C78020A54402209DD
:10285000624000021403604054016040504080B266
:102860005B1C0A46491E89B2002AEDD110BD00004A
:10287000FFFF000010B5034610460CE01C78020A6A
:102880005440220962400002140360405401604039
:10289000504080B25B1C0A46491E89B2002AEDD125
:1028A00010BD0000F1B584B00020029004982C21E6
:1028B0004843FE49401800901E300546FDF7DFFCF6
:1028C000074600981A300646FDF7D9FC01460098E5
:1028D000123001900098044620348F4270D0049842
:1028E000FFF754FE0499F34F8A01F1495618315C01
:1028F00007297CD007DC0B00FFF7A0FD0713FBF9CD
:10290000286395AC1300212972D006DC082970D009
:1029100010296FD0202904D13DE122296BD0232931
:102920006AD0009800244471009841780278080227
:10293000104300F04DFE0821DF48FDF79CFCDF4806
:1029400001220178447011430822B1E00227019866
:10295000FDF795FC815DD8480838C219127A91427A
:1029600001D1012102917F1CFFB2082FEFD3022772
:1029700009E0D1480838C019007A002812D07F1C1D
:10298000FFB2082F02D202980028F2D00498FFF775
:10299000FDFDA078801EA0702846FDF770FC29463A
:1029A000801CA8E10198FDF76AFC815DC248012204
:1029B0000838C0190172C148017811430170E5E778
:1029C00061E102270198FDF75AFC815DBA48083899
:1029D000C019007A814210D1B74900200839C919BD
:1029E0000872B648012201781143017009E046E0FF
:1029F000E0E060E092E0F9E01BE17F1CFFB2082F0D
:102A0000E0D30498FFF7C2FDA078801EA07028468E
:102A1000FDF735FC2946801CFDF742FCE07A401E9C
:102A2000E07205B0F0BD022038700498FFF7AEFDEB
:102A3000305C7870A078801EA0702846FDF71FFCDF
:102A40002946801CFDF72CFC9C4902220878104383
:102A50000870E6E7022038700498FFF797FD305CB5
:102A60007870A078801EA0702846FDF708FC2946E3
:102A7000801CFDF715FC91480222017834E001200A
:102A800038700498FFF782FD305C78700498FFF787
:102A90007DFD305CB870A078C01EA0702846FDF7A0
:102AA000EEFB2946C01CFDF7FBFB8448042201789D
:102AB00011430170B5E7012038700498FFF766FDF7
:102AC000305C78700498FFF761FD305CB870A078D6
:102AD000C01EA0702846FDF7D2FB2946C01CFDF79A
:102AE000DFFB7648042201781143017096E72AE063
:102AF000FFE70498FFF74AFD305C704E7070A078D5
:102B0000801EA0702846FDF7BAFB2946801CFDF701
:102B1000C7FB30780821084330707FE70498FFF73F
:102B200035FD305C654EB070A078801EA0702846E0
:102B3000FDF7A5FB2946801CFDF7B2FB3178082084
:102B4000014331706AE70498FFF720FD5B4F305C6A
:102B500038810498FFF71AFD397A305C090208437E
:102B600038810498FFF712FD305C78810498FFF7F4
:102B70000DFDB97A305C0902084378813878082164
:102B800008433870A078401FA0702846FDF777FBF7
:102B90002946401D40E70098801DFDF770FB074661
:102BA0000498FFF7F3FC305C00993818891DFDF795
:102BB00077FBEEE60498FFF7E9FC375C0498FFF733
:102BC000E5FC365C380206430098801DFDF757FB94
:102BD00000998019891DFDF763FBA078C01EA070C5
:102BE0002846FDF74CFB2946C01C84E00498FFF7FB
:102BF000CDFC375C0498FFF7C9FC305C3902084310
:102C000007460498FFF7C2FC365C3802064300987A
:102C1000801DFDF734FB00998019891DFDF740FBED
:102C2000A078001FA0702846FDF729FB2946001D4B
:102C300061E00498FFF7AAFC375C0498FFF7A6FC54
:102C4000315C380201430F460498FFF79FFC305C6B
:102C50003902084307460498FFF798FC365C3802AF
:102C600006430098801DFDF70AFB00998019891D15
:102C7000FDF716FBA078401FA0702846FDF7FFFA6D
:102C80002946401D37E0009800990079401C0871E2
:102C900000990020891DFDF703FB044800992138A5
:102CA0000A31807E0F46FDF7FBFA09E0810900201A
:102CB0000D0B0020500D0020EC0300201800002018
:102CC000010000D101203946FDF7EAFA0020A0708A
:102CD00000990E31FDF7E4FA00200199FDF7E0FAC2
:102CE000009900201631FDF7DBFA31460020FDF790
:102CF000D7FA29460020FDF7D3FA92E62C2250435A
:102D0000024A00218018C17070470000810900202C
:102D1000002121E000BF00BF00BF00BF00BF00BF17
:102D200000BF00BF00BF00BF00BF00BF00BF00BFAB
:102D300000BF00BF00BF00BF00BF00BF00BF00BF9B
:102D400000BF00BF00BF00BF00BF00BF00BF00BF8B
:102D500000BF00BF491C89B28142DBD97047000027
:102D600010B5044C208001E002F0CCFC2088002843
:102D7000FAD110BDC200002070B50E4605460224EF
:102D80000821FDF778FA1D4AF0070ED0287811784F
:102D9000084328700220115C002902D02955641CC8
:102DA000E4B2401CC0B20828F5D3B00711D528788A
:102DB000117A0843287002201118097A002904D0DA
:102DC000082C06D22955641CE4B2401CC0B2082865
:102DD000F2D3700711D52878117C0843287002209F
:102DE0001118097C002904D0082C06D22955641C2E
:102DF000E4B2401CC0B20828F2D370BDE403002046
:102E0000064A906305480221403001600168890745
:102E1000FCD4D06B024908607047000040C00540F8
:102E2000AC000020054A9063D16304480121403082
:102E300001600168C907FCD17047000040C005402F
:102E4000044A506091600120D060D068C007FCD176
:102E50007047000080C005407047000010B50F218A
:102E60000320002209038003FDF754FD18210448C4
:102E7000FDF703FA0021402002F000F810BD000029
:102E80001C0E0020104901200A78042A1AD10F4A8A
:102E9000537C002B02D0212048700220D27A002AD5
:102EA00002D020220A54401C084A203AD37C002B2E
:102EB00002D022230B54401C527E002A02D023222F
:102EC0000A54401C70470000880D00205402002066
:102ED00030B50022094C1146635C00201D46C540F8
:102EE000ED0700D1521C401CC0B20828F6D3491C83
:102EF00089B21829F0D3900130BD00001C0E0020CB
:102F000000B5FFF7E5FF00BDFFB581B01F460C46D9
:102F10000026019800F01AF80546019800F03EF8E6
:102F2000002D0FD000280DD0E119814202D82819B8
:102F30003A4603E0A04204D9021B2819039901F084
:102F400085FF0126304605B0F0BD0000F0B5002237
:102F5000114D15239B010646EB18104611461C8F98
:102F600016E00E234B43EB5A5F047F0CB74209D1A6
:102F70000E20414348194088010401D50003F0BDEB
:102F80008001F0BD5B0401D1521C92B2491C89B290
:102F9000A3188B42E5D8F0BD00040020F8B5064622
:102FA0000020104D15239B01EB18024601461C8F93
:102FB00013E00E234B43EB5A5F047F0CB74206D15C
:102FC0000E2041434819001DFDF759F9F8BD5B0477
:102FD00001D1521C92B2491C89B2A3188B42E8D885
:102FE000F8BD000000040020F0B5114D00242E8F24
:102FF000360A0E702E8F4E70C1180E4E8C460FE0A2
:103000000E214143735A5F0406D05B045B0E1370BC
:10301000715C5170921C01E0641CA4B2401C80B22F
:10302000298F0919814201D98445E9D8F0BD0000F2
:1030300040090020000400200148807E7047000005
:1030400060090020F3B500221A4D15239B010646A6
:10305000EB1881B0104611461C8F26E00E234B431F
:10306000EB5A5F047F0CB74219D10E2041434C1933
:10307000201DFDF704F9010E02980170201D029D2C
:10308000FDF7FDF8000C6870201DFDF7F8F8000A48
:10309000A870201DFDF7F3F8E8700120FEBD5B0469
:1030A00001D1521C92B2491C89B2A3188B42D5D8C7
:1030B000FEBD00000004002064207047C120800194
:1030C0007047000010B50248FDF7D9F810BD0000A8
:1030D0007B0900201B4A0020506090601A4948601C
:1030E00088601A49486088605068202318435060FF
:1030F00017484368C2141343436003689343036053
:1031000043680215134343600368934303604368B5
:103110004215134343600368934303604368821579
:1031200013434360036893430360182008614861B8
:103130000022D2430A628861880306490860064972
:103140000860704700400440006004400080044074
:1031500000A0044080E200E000E100E010B50E486D
:10316000002444710D48D022017A5143091890225D
:103170000B484A31FDF722F8094A0020363A062169
:103180004143545489184C708C70401CCC70C0B2B0
:103190004C710928F3D310BD00000020180F002047
:1031A0006A02002010B5FEF771FAFEF71DFAFEF76D
:1031B000B9F8FFF78FFF022002F094FA044802F0FA
:1031C000A9FAFEF7DDF8FEF7B7F8FEF77FFA10BDB3
:1031D00080841E0070B5FEF7BFF8164C00252573DD
:1031E000E583A58365731448E57305801348144986
:1031F00005802575258425706575E5751020A075F9
:103200000A46002010320B4620330D5415541D542D
:10321000401CC0B21028F8D350210A48FDF72BF803
:103220000448056365742574E574A57402F032FAE8
:1032300070BD0000540000202A0200202802002057
:10324000780D0020FA020020F8B56F4800240480B1
:103250006E48022504706E48FC2104706D4804809D
:103260006D4804706D4804706D4805706D48FDF739
:1032700002F87B216C48FCF7FEFF48216B48FCF705
:10328000FAFF0E216A48FCF7F6FF08216948FCF7AF
:10329000F2FF10216848FCF7EEFF09216748FCF7B0
:1032A000EAFF19216648FCF7E6FF66486649447064
:1032B0004C7084708C70C470CC700B211C2209037C
:1032C0006248FCF77BFF61484178027808021043AE
:1032D0001C2804D01C225E495C48FCF76FFF5D4E41
:1032E0005D4932465D48FCF769FF5C4841780278E9
:1032F00008021043B0420AD1811E5848FFF7A0FAD5
:1033000057494A7E0B7E1102194388420DD032463E
:1033100054495248FCF752FF0524641EE4B221468A
:10332000012001F0ABFD002CF7D14F4F17213A4699
:10333000C9024E48FCF742FFB91E4C48FFF780FA1D
:103340004B494A7F0B7F1102194388420ED0FFF789
:1033500085FD39464548FCF78EFF6424641EE4B2BF
:103360002146202001F08AFD002CF7D15A22414944
:103370004148FCF723FF58213F48FFF761FA3E49D7
:1033800040314A7E0B7E11021943884220D05A21D7
:103390003948FCF770FF39463448FCF76CFF324679
:1033A00030492E48FCF70AFFFFF758FD0524641E3C
:1033B000E4B22146012001F061FD002CF7D1642424
:1033C000641EE4B22146202001F058FD002CF7D104
:1033D000FFF7C4F9FFF700F90A212848FCF74BFF73
:1033E00064210A2001F0FEFC0146012001F0FAFCF4
:1033F000FFF732FD0020FFF7F7F9FFF7EBFEFFF7CD
:10340000ADFE1F480570F8BDC2000020C8000020B6
:10341000B0000020B2000020C1000020BF0000204A
:10342000C4000020C113002046130020BD1400205A
:10343000CB0D002048000020500D00206C0D002016
:10344000E4030020B7000020BB000020FC0E002099
:10345000245A00001C04000080B00000180F002057
:103460001A130020405A00008105000000040020CB
:1034700063090020C0BD00001C0E0020600D00206C
:10348000C0000020F8B54D4B002029214143CA1847
:10349000114622314C790D7924022C43641C0C71A5
:1034A000240A4C71917C547C09022143491C5174BB
:1034B000090A401CC0B291740328E6D3404F002192
:1034C0003E4609360D4629200A4642433B4810181D
:1034D000C27B052A07D12030007A3A5C012A0FD03E
:1034E000374AD21C1554491CC9B20329EBD3354EB7
:1034F00000242C2060438519687901281DD025E01F
:103500002F4BDB1C1A5CDC1C521CD2B21A54245CFC
:10351000A242E8D342001D5494196378012B05D1CF
:10352000B35C002B02D05B1EB354DCE7244B0122BA
:103530005B1F5A5465703D54D5E7A81DFCF79FFEEC
:10354000002803D0A91D401EFCF7AAFE641CE4B2AB
:10355000092CCED31C4B187800280ED00020410037
:10356000C9180A7DCC7C12022243521CCA74120A6A
:10357000401CC0B20A750928F1D313482030007AE4
:1035800000280FD000204100C91823314A7E0C7E4C
:1035900012022243521C0A76120A401CC0B24A761A
:1035A0000928F0D309490878002801D0401E087086
:1035B0008878002801D0401E8870F8BD461300208E
:1035C000EF00002081090020FA0200208400002082
:1035D00070B50022114C15239B01E31811461D8F75
:1035E00018E00E234B43E35A5E04760C86420BD15F
:1035F0000E2048430019427880231A434270C9B212
:10360000202001F03BFC70BD5B0401D1521C92B242
:10361000491C89B2AB188B42E3D870BD000400206E
:10362000F0B5034685B0002058490191064604468E
:103630000A8FA1E021460E256943554D0291695A32
:103640004D046D0C9D427DD10E20214641435048D2
:103650000D184E4968883B3102040091002A22DA95
:103660004C4E317801291CD04104490C3046417040
:10367000090A8170281DFCF702FE811C080B0F4609
:103680003146401CC870000A087101203070009853
:10369000FCF7F5FD3A0B01211203090351184018FC
:1036A0000FE002266EE000280ED00846FCF7E7FD8A
:1036B0000646281DFCF7E3FD801C80098001403090
:1036C00030180099FCF7ECFD2889012601041CD56F
:1036D000304F79790129E4D04004400CF880284625
:1036E0000A30FCF7CCFD801C0390000B401C388195
:1036F000012078710098FCF7C2FD01460398020B87
:1037000012033003101808180EE000280FD000989C
:10371000FCF7B5FD074628460A30FCF7B0FD801CD3
:1037200080098001403038180099FCF7B9FD18482D
:1037300002990027415ACA0B0299D20342526F8064
:10374000291D00E012E03846FCF7AAFD29462F812A
:103750000A310020FCF7A4FD01980199008F401E5A
:103760000887E1B2202001F089FB0BE0490401D178
:10377000401C80B2641CA4B21118A14202D9642C6E
:1037800000D257E7304605B0F0BD000040090020E8
:1037900000040020600D002010B500F023F8FEF7B3
:1037A000A1FF10BDF0B5064600200D4D15239B016D
:1037B000EB18024601461C8F0EE00E234B43EB5ADA
:1037C0005F047F0CB74201D10120F0BD5B0401D141
:1037D000521C92B2491C89B2A3188B42EDD8F0BD9D
:1037E00000040020F8B50025244F2E462C20684305
:1037F000C419607901283BD1A078102804D0112881
:103800001BD0122834D118E02079E178884212D2F6
:10381000A01DFCF734FD00282AD120460A30FCF711
:103820002EFDA11DFCF73CFD284600F029F8284696
:10383000FFF738F81CE066711AE0A01DFCF71FFDC9
:1038400000280CD120460A30FCF719FDA11DFCF719
:1038500027FD284600F014F82846FFF723F8E07803
:10386000002805D120460E30FCF709FD0028E2D0E3
:103870006D1CEDB2092DB9D3F8BD000081090020FF
:10388000F0B504462C2021464143584889B00D1814
:1038900028462330FCF7F3FC049028462730FCF739
:1038A000EEFC1A35064628460695FCF7E8FCB042C1
:1038B00072D22C214D4A61438D18A1014C482F46EC
:1038C0002C46081820370E3416350590402E65D941
:1038D000B9784020411A029120460191FCF7CFFCB3
:1038E00003900199301A884200D30846019007904E
:1038F0002846FCF7C4FC40210A1A029B05999A420B
:1039000015D34118049A03988018019A01F09EFA81
:103910002846FCF7B4FC019940182946FCF7C0FC86
:103920002046FCF7ACFC01994018214626E04118DE
:10393000049B0398C01801F089FA2046FCF79FFC0D
:1039400006462846FCF79BFC4021081A00903018D8
:103950002146FCF7A5FC0146019A0098161A049826
:1039600032460818059901F071FA2046FCF787FCE9
:1039700080192146FCF794FC29463046FCF790FC60
:103980000698FCF77CFC079940180699FCF788FC20
:10399000B97807980818B87009B0F0BD2846FCF748
:1039A0006EFC0599401800902046FCF768FC0499CD
:1039B00032464018009901F049FA2846FCF75FFCAE
:1039C00080192946FCF76CFC2046FCF758FC80194E
:1039D0002146FCF765FCB8788019B8700698FCF7AA
:1039E0004EFC80190699FCF75BFCD5E781090020A5
:1039F0000D0B0020FFF7D6FBFFF726FCFCF708FFB6
:103A0000FEF704FA124C01F07DFEFEF7D7FCA06829
:103A1000C007F8D00F4D01F075FEFEF7CFFCA0688F
:103A2000C007F8D02878552803D1FEF7C3FE00F070
:103A300085F800F045F8FCF749FD01F023F901F0A5
:103A4000A5F801F071F8FFF7A7FEFDF707FBE2E725
:103A50009C0E002056000020FEB50026751E800931
:103A6000401C374600900024F80001901348C05DC8
:103A7000E040C0071AD00026751E009886420BD180
:103A800081B2284601F0BAFB0320000228180F215A
:103A900080B28901884208D9641CE4B2082CE5D3BD
:103AA0007F1CBFB2182FDED30020FEBD761C681C21
:103AB000E3D10198001905B2DFE700001C0E0020D9
:103AC00070B51B48007801282FD11A4D287802289C
:103AD0002BD280214A20FDF717FD4A20FDF7E4FC98
:103AE0004407640F01F00EFE0120FFF739F9022CA4
:103AF000F3D3042C1AD00220287000214A20FDF7AD
:103B000003FD0220FFF72CF96520FDF7CDFC4006F0
:103B1000094C400EA0714120FDF7C6FCE071014642
:103B2000237A6279A079FCF767FE70BD0320E3E792
:103B3000C5000020C40000205400002070B51748C4
:103B4000174D8179E87B814226D80024EC7301F07F
:103B500051FBA87D1349144A002801D0102807D131
:103B6000A88B0B88C018A883E88B1388C018E8833B
:103B700014800C80FCF702FEE87D012802D1EC8362
:103B8000AC83EC751C201E21285E695E084303D0BF
:103B9000687B04210843687370BD0000180F002083
:103BA00054000020280200202A020020F8B5734C9F
:103BB00000226379A01D724E0321724D012B63D048
:103BC000802B51D0812B0CD102E0521CD2B200E0EC
:103BD000437817017F194037BF7A9F4202D0092AE4
:103BE000F3D3C9E0092AFCD201780A23002922D0A4
:103BF000491E8678C9B2002E00D00126D02779430D
:103C0000491912018A18114640318D7A4570C97AD6
:103C10008170911940310A7BC2708A7B02710A7CE3
:103C200042718A7C82710A7DC2718A7D0272097E2C
:103C30004172E370F8BD8178002900D001211201A2
:103C4000B55C921945705578857051188A78C270A4
:103C50000A7902718A7942710A7A82718A7AC2710A
:103C60000A7B0272897BE3E70921017001210A01C5
:103C700052192032927E4254491CC9B20929F6D900
:103C8000F8BD521CD2B200E0437817017F194037CB
:103C9000BF7A9F4202D0092AF3D36DE0092A6BD282
:103CA0000178002909D0EC79A14241D1491ECCB25A
:103CB000817800291AD0012719E08178002900D0E5
:103CC00001211201B354921983785370C3785118AB
:103CD0008B7002790A7142798A7182790A72C2798B
:103CE0008A72027A0A73407A8873F8BD0027D0215D
:103CF00061434919120189180D464035AB7283782A
:103D0000EB72CD19C37840352B730379AB734379CC
:103D10002B748379AB74C3792B75037AAB75407AB6
:103D20002876901910224A31FCF748FA21461FE004
:103D3000491E8478C9B2002C00D00124D0264E43FD
:103D400075191201AD182A46403293728378D372E6
:103D50002A19C37840321373037993734379137428
:103D600083799374C3791375037A9375407A1076C7
:103D7000082001F083F8F8BD2170F8BDB00E0020D6
:103D80006A020020180F0020F3B5FD49FE4C0A78A6
:103D9000FC4985B0097808230E4667790125194347
:103DA0002E430291069B0396294699400026012A3C
:103DB0007ED0F64A1B019A1894465278012A04D103
:103DC0002279002A01D0012200E00022002A08D036
:103DD000ED4B0128DB8802D08B43E38009E00B43E5
:103DE000FBE7002A05D1E84B01281B890AD08B4349
:103DF0002381E54B5B89002B0ED0002A0CD00028D4
:103E000002D009E00B43F3E7DF4B1B89194203D0D3
:103E10000022DD4C8B43238161468C18DC49A2785B
:103E200009780491DB494B7809781B020B43D94987
:103E30000193CB7889781B020B4300931300FEF7A4
:103E4000FDFA13FE0BFDFCFBFA8DFEFEFEFEFEFEF0
:103E5000FEFEFEF9F8F7FE0001280ED0A079092831
:103E60000AD00A28FCD02946401E8140C6488F430C
:103E70004771C448039901700DE2C348C64BC0782E
:103E8000D0218446187AA2794843C118C34B002038
:103E90001856BC4B02241B7823312343092A0CD02B
:103EA0000A2A27D0521E9540B7483D43457100E08D
:103EB000E6E1B4480399017005E26246002A16D093
:103EC00001987D23B34ADB016430984202D210701E
:103ED000000A01E01370180A50700098643098428C
:103EE00002D29070000A19E09370180A16E0AB49EC
:103EF000401C2FE06246002A2AD00198A54A643867
:103F0000002802DD1070000A01E01670300A5070BF
:103F1000009864380028E4DC9670300AD07050783D
:103F20001378000218430870030A4B70D178927816
:103F3000994C09021143227AD0235A431219213293
:103F400011710B0A537101F0C7FA217A082023E09E
:103F50009249401E08708B480370B4E1904FA279DB
:103F600079780291491C049139780391491E130014
:103F7000FEF764FA076505154BA0A79565000128B3
:103F80007ED10498884202DA0298401C01E003982E
:103F9000401EC0B2787040E000F070FF93E101284D
:103FA000EED10298401E002802DD0298401E00E07B
:103FB0000020C0B2787006214843C2199079517927
:103FC00000020843734C010A20706170D11C127A00
:103FD0000B7911021943A1700A0AE27001F07CFA10
:103FE0006D48D023017A7A785943091820310A7232
:103FF000617823780A021A43017AD02359430918B9
:1040000023310A70120A4A7038E00128B8D1207AA8
:10401000401EC0B2787088429FDC06214843C21916
:1040200090795179000208435A4C010A207007E048
:10403000E5E0CCE0BDE0F5E004E154E013E128E187
:104040006170D11C127A0B7911021943A1700A0A0E
:10405000E27001F041FA5048D023017A7A7859434E
:10406000091820310A726178227809021143027A14
:104070005A43121823321170090A5170E17800E096
:10408000AAE0A27809021143027AD0235A431218F7
:1040900021321171090A5171017A01207CE701284E
:1040A000B4D10498C0B278700399884200D17E7070
:1040B0007878B2E70128344801D0C670EBE0C570CB
:1040C00001E1012804D00099019801F005FAE2E02D
:1040D000207AA17A00020843217BA27B09021143C6
:1040E00001F022FAEFE02F4B012812D0A77900212E
:1040F000BC461F466246CA40D20732D0224B0C3320
:104100005A5C002A28D0521E1206120E5A5423D08E
:1041100027E0A7790021BC461F466246CA40D20765
:1041200009D0194B0C335A5C521C5A543B782A461E
:104130008A4013433B70491CC9B20829EDD30221C0
:104140003A46535C002B04D0491CC9B20929F8D364
:104150009FE0237A7B540FE03B782A468A409343C2
:104160003B70491CC9B20829C4D3237A02213A46BC
:10417000545C9C4218D17E540249029A88E00000A7
:10418000BF00002061000020000000206A02002023
:104190001800002080000020180F00206000002080
:1041A000A80D0020E4030020491CC9B20929DFD36F
:1041B0006FE001286FD10698FEF700FA00281DD1A4
:1041C000A17910200A02217AA37A0A4328E0012863
:1041D00003D00698FEF792FD5DE0A0791127050255
:1041E000207A012405430698FEF7E8F900286AD1F1
:1041F00023462A4638460699FEF76EF963E0012801
:1042000049D10698FEF7DAF9002803D00698FEF7A0
:1042100075FD58E0A17911200A02217A0A43012391
:104220000699E9E7012807D0414902220A704E7039
:10423000404A202304990EE03D4902220A70A279E7
:104240004A70F5E73A4901280D7007D04E708E701C
:10425000384A04991023194311701AE0227A4A70DF
:10426000A2798A70F4E7012815D1A0792946401E69
:10427000814031484170217A49008170057022E007
:10428000042B18D8012813D08F4367712B49039A48
:104290000A70012817D02A492A4B0C7800202921BE
:1042A00002464A43284951184A7B052A29D039E059
:1042B00039436171EAE72549012801D08E705BE737
:1042C00073228A7058E71E491F4D0C78204A1D4FF3
:1042D00000202921414349194B7B052B0BD1002C90
:1042E00009D128235B5C2231D6540E71330A4B71FD
:1042F000FF214300F954401CC0B20328E9D307B0A2
:10430000F0BD002C0ED12822575C114A2231D55520
:104310000E71320A4A714100CA185570FF225A5470
:104320000C490E54401CC0B20328B8D3E7E7000084
:10433000880D0020180000200000002061000020EF
:10434000C8000020F800002046130020980D00202F
:10435000EF000020F2000020F8B5794AD0249779C8
:1043600077487B1EDAB26243774C861D1419407978
:10437000224674492032802856D028DC002851D0AB
:1043800004285FD007284ED16D4DA87AE97A864679
:10439000287B6D7B84467046000208436146090213
:1043A0002943002F75D0DBB29C4673785372B378E3
:1043B000D371F7781772D71C3870000A7870501CC8
:1043C0000171090A417100201546F61D89E0812816
:1043D0002CD0842832D0872825D1002F5AD0507A6B
:1043E0007070D079B070107AF07020462330417828
:1043F000037809021943090A3171417803780802E8
:10440000184370712046213041790379090219431C
:10441000090AB1714179037908021843F07100204B
:10442000F61D32E00F70F8BD087809E047480178C2
:104430003170417871708078B070F8BD42488079F1
:104440003070F8BD404887716AE006214143631827
:10445000194620314D7B0F7B2D023D432D0A75708F
:104460004D7B0F7B29023943B170194622314B7BBA
:104470000D7B1B022B431B0AF3704B7B0D7B190238
:104480002943401C3171C0B2361DD1798142DCD83C
:10449000F8BD4AE02E4948780A7800021043020A23
:1044A00032717071C878897800020843010AB171CD
:1044B000F071EDE77178B2780F020621414317439E
:1044C00061180A46203217733F0A5773F27837791A
:1044D00012023A4322310A73120A401C4A73C0B2D4
:1044E000361D9842E6D3184A107A604518D1D0217B
:1044F000484382181046213041790079090201436E
:104500002332507812780002104300F0E5FF687AF9
:10451000002801D0802100E000214220FCF7F4FFB8
:104520000021022000F0AAFCB2E7094A030A107039
:10453000537091700B0AD37000F0CEFFA8E7000013
:10454000B00E0020BF000020180F00200C5A000001
:1045500080000020F8B51A490878012826D11948AA
:104560004078002822D1184D184E2878184C002881
:1045700020D01949194A09781648C9061278E37AF1
:10458000C90E174F807B1143002B10D008433870A1
:10459000082213490120FDF751FA002806D1287896
:1045A0000121401E2870E07A4840E072F8BD327860
:1045B0001043EBE70020E07208703070F8BD000097
:1045C00000000020B70000200200002001000020B1
:1045D000540000203A0300200500002019000020AC
:1045E000780D002070B5314E314B3046C07971796D
:1045F000C000B41DC018812911D009DC35462A7AC3
:10460000AD7A012918D0022941D0032904D122E032
:1046100082292DD083291BD00520307070BD407BAE
:10462000A0706078C000C018807BE0706078C00027
:10463000C018C07B207170BD4273E1788173C5736F
:10464000FCF7F4FB10E00021022000F017FC70BD25
:10465000987CA07070BD0020C200D218401CA178C8
:10466000C0B291740328F7D320780028EBD170BD35
:10467000007BA0700020E0706078C000C018007C53
:1046800020716078C000C018407C607170BD09491D
:1046900001260A70084902730B6833430B6007490F
:1046A0008D54057461794174CDE70000B00E00208F
:1046B000180F0020D4000020D0000020C9000020E6
:1046C000F8B5624F3946CA798B7978791502CE7A76
:1046D000BC1D1D43097B0091802878D007DC801E1B
:1046E0000300FDF7ABFE052E151D4861140081384F
:1046F0000300FDF7A3FE0604210C1D33860CF87899
:10470000221D001FC3B268BAA11CFEF76DFCF8BDE4
:1047100068BAFEF785FF0128F9D003203870F8BD8C
:10472000207800F08BFE0021202000F0A7FBF8BDD0
:10473000FEF782FC2070F8BD68BAA11CFEF782FC6F
:1047400009E0A01CFBF79BFD00BA010A09023143F6
:1047500068BA00F079FE0028DFD0F8BDA01CFBF796
:104760008EFD00BA010A0902314368BAE21D009BBE
:10477000FEF7CAFBF8BDA01CFBF781FD00BA010AD9
:104780000902314368BAE21D009B00F04FFD304939
:10479000022803D00022002802D003E001202EE0EE
:1047A000032038700A70F8BDA0780028FBD1E078AB
:1047B000022600281ED001280AD002280CD0032887
:1047C000F1D168BAFDF730FF002816D012E01CE0E6
:1047D00020490120087011E01F492048FBF74BFDDC
:1047E000642403E0E1B2202000F048FB641EF9D20B
:1047F000FEF734FB1A480670F8BD0320184908700C
:10480000F8BD17480078A070F8BDFEF755FC010A06
:1048100021706070FEF752FC010EA170010CE17076
:10482000010A21716071FEF76BFB010EA171010C91
:10483000E171010A21726072FEF744FC010EA1725F
:10484000010CE172010A21736073F8BDB00E002003
:10485000440000201E00002081050000000400200C
:104860001D000020F8B5484C207800074ED5474879
:10487000407800284AD146484649807B0978474A13
:1048800008434549127809780023C906C90E114327
:1048900008434349444A087042487E260078C8705D
:1048A0000020105E414AF643D35E8127C5B2DAB2DA
:1048B000B04201DA4F7005E07F2802DD7F264E709E
:1048C00004E04D70B04201DA8F7005E07F2B02DD0D
:1048D0007F268E7000E08A700D71001248718A7117
:1048E0001812C871314D304E00202880294930807F
:1048F00008702C490822087029490120FDF79EF80C
:10490000002803D12078F721084020702078C007C4
:1049100015D01E48C078002811D1254D0721681CEC
:10492000FEF72AFA03202870092229460220FDF703
:1049300085F8002803D120784008400020702078B6
:10494000400720D5114EB07800281CD10922194902
:104950000220FDF773F8FB25002802D120782840BB
:104960002070207841070ED5B17800290BD128405E
:10497000207009220F490220FDF760F8002802D1BB
:10498000207828402070F8BD18000020B7000020D3
:104990003A0300201900002005000020010000203B
:1049A000480000201A0000202000002022000020E3
:1049B000980D0020500D0020F8B5534F534C787BD4
:1049C000400745D06078002842D15148534A817B46
:1049D0005048127800787E2601434F48F64300780D
:1049E000C006C00E104301434D48F9700170397B79
:1049F000C1701C22BA5ED5B2B24201DA812102E056
:104A00007F2A02DD7F21417000E045701E21795E22
:104A1000CBB2B14201DA812602E07F2902DD7F2696
:104A2000867000E083700571121242718371091261
:104A3000C17100203873F883B883082238490120F7
:104A4000FCF7FCFF002803D1787BC008C000787316
:104A5000787B400619D5A078002816D1FEF712FA07
:104A60002F49092210310220FCF7E8FF00280CD161
:104A7000787BBF21084078730020294A0146103214
:104A80001154401CC0B21028FAD3787B000715D50A
:104A9000E078002812D1224D07212035681CFEF74E
:104AA0006BF903202870092229460220FCF7C6FF73
:104AB000002803D1787BF72108407873194D2878B6
:104AC000C0060ED5A07800280BD115490922103157
:104AD0000220FCF7B3FF002803D12878EF2108401B
:104AE0002870287880060ED5A07800280BD10C49B4
:104AF000092210310220FCF7A1FF002803D12878F9
:104B0000DF2108402870F8BD54000020B7000020C5
:104B10003A030020190000200500002001000020B9
:104B2000780D00201800002070B5154D2878002859
:104B300025D0144C0120207020790300FDF77EFC65
:104B400005040D07100A1600FFF706FC0AE0FFF740
:104B50002DF807E000F024F804E0FFF743FD01E042
:104B6000FFF7AEFD2078012802D003E0052000E029
:104B70000220207004480078002800D1287070BD01
:104B8000C8000020B00E00204400002010B5FFF740
:104B900013FFFFF767FEFFF7DDFC00F059F810BDCB
:104BA000F8B5234A234E5079941D234F234B244DAF
:104BB000802810D008DC1146897900280FD0012800
:104BC00016D0022804D124E081280CD082281BD0E2
:104BD00003201070F8BD30782070387817E03170FD
:104BE00060783870F8BD18782070164800780EE0AC
:104BF000A0781870134AE1781170134A1378134A99
:104C00001278FBF7F9FDF8BDA87A2070E87A607099
:104C1000F8BD0029FCD0A9721120FCF775FC2078A2
:104C20000328F5D16178E9726320FCF76DFCF8BDCB
:104C3000B00E0020C5000020C40000205A00002053
:104C4000380F00205B0000205C000020590000208D
:104C500070B50B4C00256078002806D0207800281D
:104C600003D10721FFF790F86570E078002806D09F
:104C7000A078002803D10821FFF786F8E57070BD01
:104C80008400002070B5454900200870444D287804
:104C900000287DD04349098800297ED1800717D597
:104CA0001A214148FDF7CCFD3F493F4A8876000A6A
:104CB000C8761C200870002048700B2001210003DA
:104CC000FBF756FE002803D12878FD210840287004
:104CD0002878000712D535493548FDF7B1FD35492B
:104CE000334A0877000A48771721C802FBF740FECD
:104CF000002803D12878F721084028702878C006BA
:104D000013D558212C48FDF79BFD2B492A4A4031E9
:104D10000876000A487602212848FBF729FE002879
:104D200003D12878EF21084028702878400722D541
:104D3000244C23482070000A21496070891E2046B7
:104D4000FDF77EFD20490876000A487660782178D4
:104D500000020843810608D08109491C194A1B48F2
:104D6000FBF706FE002802D005E08109F6E7287867
:104D7000FB21084028701648007803280DD11649F9
:104D80001448C863BFF34F8F15491448C86000E04A
:104D900003E0BFF34F8F00BFFDE770BD9000002020
:104DA000B0000020B2000020FC0E00207F050000B3
:104DB00000040020630900201C0E0020C0BD00007C
:104DC0001C040000180F00201A13002080B00000FF
:104DD000BF000020AAAAAAAAC04700200400FA0522
:104DE00000ED00E0F8B502460120C007C4170E46EA
:104DF0001546914201D2354616460F4F721B02D11D
:104E000017E0400864080242FBD00C493868FBF701
:104E100059FA0B4A51430B4A5043081A386000288C
:104E200002DC09494018386020404019B042ECD8F3
:104E3000F8BD0846F8BD0000500000201DF3010039
:104E4000A7410000140B0000FFFFFF7F0B4610B5C9
:104E500001461846FBF7B2F910BD0000044A117074
:104E60000449802208700448417B11434173704714
:104E7000C7000020C600002054000020FCB52E4AC8
:104E80008E461378012119432C4D8C46022829D0D7
:104E9000042829D0714601278F401646019736789D
:104EA0000427274C3E4300962178019F0E463E433F
:104EB000F6B208281CD0002701281ED0102820D0C8
:104EC000202824D013461B781026334340282FD0A7
:104ED000802806D1042003431F2013700143217052
:104EE0002F80FCBD117024E0022003431370FCBD31
:104EF000009810706420288007E0009810702670D9
:104F0000EEE760460421084310702670FCBD0820BF
:104F100003431370642028807046C008724600194D
:104F2000530741785B0F01229A4011434170FCBD49
:104F3000137064202880FCBDB0000020B200002067
:104F4000CB0D0020FEB56348644C017862484029CF
:104F5000C678407901D3009011E05F498B780D79D4
:104F6000F11A401BC0B20090CEB2002001210622EF
:104F700042431219401CC0B251710928F7D31E2EAA
:104F800000D91C2600981E2801D91C2000905448E6
:104F9000016802688907C90F1204D20F5200114339
:104FA0000268D207520F11434E4A136812689B07DA
:104FB000DB0FDB001943D207D20E114302680068F1
:104FC0009206D20F520111430005C00F8001014328
:104FD000002501912C460620404A4443135D980762
:104FE00013D5A018817800290CD01746019A437870
:104FF000EA40D207D20F934216D0491E8170002199
:10500000C1705CE0FD20034013550198E840C007E3
:1050100015D0A7187878002859D0D80737D00020A5
:1050200010550120B8704AE0C178491CC9B2C1705E
:10503000B14244D3395DFD20014039553FE0A71806
:105040007878012843D0D8B2C10718D078790128E0
:105050001AD00020B978491CC9B2B97081422ED942
:1050600029460120FEF790FE01201C497870085D5A
:10507000022210430855BE70002078711FE0012104
:1050800008431055B9701AE013488078E2E7787940
:10509000012819D00020B978491CC9B2B9708142E1
:1050A0000DD929460020FEF76FFE00220B4B7A70C7
:1050B000195D0220014319550098B8707A716D1C72
:1050C000EDB2072D86D3FEBD03480079E3E700204B
:1050D000A8E7000020020020180F00203402002062
:1050E0000080044000400440F0B526A00FC885B001
:1050F0006C460FC4274908680968C006C00F400005
:105100000907C90F244C08436074217C6A46890052
:105110000143515C2074002931D0E174A07CA1745A
:1051200008180006000E2AD0C10728D11B492246C4
:105130000B780C215156527B02252646012730362A
:105140002A43FA2802D006280BD016E0012B06D0FD
:1051500008210120FEF718FEB570F7700DE0491E1A
:1051600009E0012B06D007210120FEF70DFE357066
:10517000777002E0491C217362730020A07405B0AF
:10518000F0BD000000FD0300030000FDFD00000372
:105190000003FD000080044054000020BF000020F8
:1051A00010B500F0AFFA1248426A20210A43426269
:1051B00000BF00BF00BF00BF00BF00BF826A0A433C
:1051C00082625A213A20FCF79FF93720FDF7C8FD8B
:1051D0000220FCF769F90320FCF766F90420FCF7CC
:1051E00063F90520FCF760F90620FCF75DF910BDB6
:1051F0000040044010B500F0F5F910BDF8B50125E8
:10520000094C471809E04105090E43075B0F625C32
:105210002E469E4032436254401C8742F3D8002100
:105220004020FFF72BFEF8BD1C0E0020FFB50746FF
:105230007F4883B0016A049800261C4681427DD1D4
:105240003846FDF783FE05463846FDF7A7FE0746BC
:1052500004980119B94202D90498381AC4B2E8195D
:1052600002226946FFF7F2FD002D68D0002FFCD026
:10527000684600886F49884201D000285FD16C4E93
:105280002146B2890598FDF7F5FAB081B069211879
:1052900040290AD26849224608180599FAF78EFF74
:1052A000B0690019B061012645E040210A1A62493F
:1052B0005F4E08180599FAF781FFF0695E4A800190
:1052C00040191021FBF76AFB00284FD000265849EF
:1052D0004023C869401CC861019088690599181A63
:1052E000221A402A46D9411840225348FAF766FF4D
:1052F0000198514A800140191021FBF74FFB00280B
:1053000036D000264A484A49C069401CC861084650
:1053100081694020401A0599221A411846484031B7
:10532000403AFAF74BFF424881694020401A211A5F
:105330003F48403981610498001901E06EE034E093
:105340000190B84228D300BF00BF00BF3849886928
:10535000821C402A2CD8384A0E461218317B117014
:10536000717B51703E21091A901C48E00126AEE77E
:105370000126C7E741183048FAF720FF2C48816919
:105380004020401A211A2A48D4E7002128484A1E02
:10539000C161816182810162002E06D00198B8420C
:1053A00003D22348016A09190162304607B0F0BDF3
:1053B00040210A1A20491E4E081831460C31FAF7CE
:1053C000FDFEF0691C4A800140191021FBF7E6FA46
:1053D000307E3E38C0B2F070F169491CF1610221A3
:1053E0000A1A314650000C3141181348FAF7E6FE0C
:1053F000F0783E210222091A121A0F481018FAF703
:105400003AFFF0690C4A800140191021FBF7C6FAF7
:10541000002801D00026B8E70126B6E7002104489D
:105420004A1EC161816182810162C170BDE70000D5
:1054300018000020FFFF0000DC0D002001498876E5
:105440007047000060090020F3B581B001981F4942
:105450000027401E884213D80198FEF7A3F90028C0
:105460000ED11B4D288F64280AD21A4E00240E201C
:105470006043305A400405D0641CA4B2642CF6D3B7
:105480003846FEBD0298801CFEF7E6FA0200F7D00F
:1054900020460E214843315A019BC90B5B04C903C6
:1054A0005B0C19433152811948784006400E487010
:1054B0004A80091D0298FAF7F3FE288FE1B2401CDA
:1054C00028872020FFF7DAFC0127D9E7FE7F0000BC
:1054D000400900200004002070B5054611480A4626
:1054E0000580418032211046FAF7E2FE0446010AA7
:1054F0000F20FCF709F8E1B20E20FCF705F8322185
:105500002846FAF7D5FE0446010A2F20FBF7FCFFD8
:10551000E1B22E20FBF7F8FF00210220FFF79EFCEE
:1055200070BD00008000002070B50A46054632219B
:105530001046FAF7BDFE0446010A0F20FBF7E4FF10
:10554000E1B20E20FBF7E0FF32212846FAF7B0FE69
:105550000446010A2F20FBF7D7FFE1B22E20FBF70C
:10556000D3FF00210220FFF779FC70BD70B5002445
:105570002A20FBF799FF052811D015211320FBF7EE
:10558000C3FF0D20FDF7ECFB2620FBF78DFFBE28A7
:1055900005D12520FBF788FFEF2800D101248021C9
:1055A0003D20FBF7B1FF0E4D0020287200F0AAF855
:1055B0000120FDF7D5FB287A372800D900243D20AB
:1055C000FBF772FFC02801D0002CEFD100213D2055
:1055D000FBF79AFF00211020FBF796FF204670BDD5
:1055E0001E0200201FB50020184C00900190029070
:1055F0000390607A002805D1FF215020FBF784FF3B
:105600000120607269465020FBF7F8FE6946087871
:1056100020704978617069468979A1706946C979B5
:10562000E1706946097A21716946497A6171694672
:10563000897AA1716946C97AE171000605D5684683
:105640004088608168468088A0811FBD1E020020BE
:1056500010B500211020FBF757FF1D211320FBF789
:1056600053FF0A20FDF77CFB18211320FBF74CFFAA
:10567000C820FDF74DFB0123044A0549E220FBF752
:1056800065FFC820FDF744FB10BD0000FE0F0000C1
:10569000885F000010B500246420FDF761FB00F076
:1056A00031F8FFF77DFDFFF7D3FFFFF75FFF641CC5
:1056B000E4B2002801D1062CF1D30948D022017AA6
:1056C00051430A18104621304179007909020143FB
:1056D00023325078127800021043FFF7FDFE10BD10
:1056E000180F0020054804490160054A0021916017
:1056F0000149FE31816070470000FA5A0000014004
:1057000000E0054002490148C8607047AA55FA5AAE
:105710000000014070471201000200000040241008
:10572000202101010102000105010902A101090175
:10573000A100050919012905150025019505750127
:1057400081029501750381010600FF094009411599
:1057500081257F950275088102050109381581258B
:105760007F75089501810605010930093116008011
:1057700026FF7F751095028106C0050C0900158073
:10578000257F95407508B102C0050C0901A101856E
:105790000119002A3C021500263C02751095018172
:1057A00000C005010980A101850219812983150026
:1057B0002501950375018102750195058101C005DB
:1057C000010906A1018503050719E029E715002550
:1057D000017501950881029501750881019505758E
:1057E000010508190129059102950175039101959B
:1057F000067508150026FF00050719002AFF00811D
:1058000000C006A0FF0901A10185040902150026B8
:10581000FF00957F7508B102C006FFFF0901A101D5
:1058200085050901150026FF00950375088102C052
:10583000050C0901A10185011500250195207501BF
:1058400009B509B609B709CD09E009E209E309E498
:1058500009E509E909EA0A52010A53010A54010A51
:1058600055010A8A010A21020A23020A24020A2592
:10587000020A26020A27020A2A020A92010A94014F
:105880000A83010A02020A03020A07020A18020A2C
:105890001A0209B88102C005010980A10185021917
:1058A00081298315002501750195038102750595F0
:1058B000018101C00600FF0901A10185031AF10061
:1058C0002AF80015002501750895028102C0090219
:1058D0003B00020100A04B0904000001030102008B
:1058E000092111010001226100070581030800015F
:1058F0000904010001030101000921110100012235
:10590000A70007058203090001040309040E0358D8
:105910000041004E004F00560041003C035800413A
:10592000004E004F005600410020004D0065006E03
:1059300000730061002000500072006F00200047DB
:105940000061006D0069006E00670020004D006F6F
:1059500000750073006500000100000012000000E7
:1059600016570000020000003B000000CE58000067
:1059700003000000040000000959000003090000B2
:105980000400000009590000030001000E0000009F
:105990000D590000030901000E0000000D59000020
:1059A000030002003C0000001B5900000309020034
:1059B0003C0000001B59000005000000070000002B
:1059C000E95800000500000007000000E958000049
:1059D0002100000009000000E05800002101000043
:1059E00009000000F95800002200000061000000DA
:1059F0002857000022010000A7000000895700007E
:105A0000220200009E000000305800000011090032
:105A1000FF000000FFFF000000FF000000FFFF008C
:105A20000000FF001C000000FFFFFFFFFFFFFFFF63
:105A3000FFFFFFFFFFFFFFFFFFFFFFFFFFFF000074
:105A40001C04081C081C01010005010203FFFFFFE4
:105A50003700FF0103FFFFFF3700FF0303FFFFFFD6
:105A60003700FF4006400605020000029001900149
:105A70009001200320032003400640064006800CCE
:105A8000800C800CC012C012C01201000100010085
:105A90000100000000000000000002000100010001
:105AA00002000000000000000000030001000100EF
:105AB00003000000000000000000040001000100DD
:105AC00004000000000000000000050001000100CB
:105AD00005000000000000000000080002000100B6
